{
  "contractName": "StakingPool",
  "abi": [
    {
      "inputs": [
        {
          "internalType": "contract IERC20",
          "name": "_stakingToken",
          "type": "address"
        },
        {
          "internalType": "uint256",
          "name": "_minAmountStake",
          "type": "uint256"
        }
      ],
      "stateMutability": "nonpayable",
      "type": "constructor"
    },
    {
      "anonymous": false,
      "inputs": [
        {
          "indexed": false,
          "internalType": "address",
          "name": "account",
          "type": "address"
        }
      ],
      "name": "AddedToWhitelist",
      "type": "event"
    },
    {
      "anonymous": false,
      "inputs": [
        {
          "indexed": true,
          "internalType": "address",
          "name": "user",
          "type": "address"
        },
        {
          "indexed": false,
          "internalType": "uint256",
          "name": "amount",
          "type": "uint256"
        }
      ],
      "name": "EmergencyWithdraw",
      "type": "event"
    },
    {
      "anonymous": false,
      "inputs": [
        {
          "indexed": false,
          "internalType": "bool",
          "name": "newValue",
          "type": "bool"
        }
      ],
      "name": "HasWhitelistingUpdated",
      "type": "event"
    },
    {
      "anonymous": false,
      "inputs": [
        {
          "indexed": true,
          "internalType": "address",
          "name": "previousOwner",
          "type": "address"
        },
        {
          "indexed": true,
          "internalType": "address",
          "name": "newOwner",
          "type": "address"
        }
      ],
      "name": "OwnershipTransferred",
      "type": "event"
    },
    {
      "anonymous": false,
      "inputs": [
        {
          "indexed": false,
          "internalType": "uint256",
          "name": "amount",
          "type": "uint256"
        }
      ],
      "name": "PoolReplenished",
      "type": "event"
    },
    {
      "anonymous": false,
      "inputs": [
        {
          "indexed": false,
          "internalType": "address",
          "name": "account",
          "type": "address"
        }
      ],
      "name": "RemovedFromWhitelist",
      "type": "event"
    },
    {
      "anonymous": false,
      "inputs": [
        {
          "indexed": true,
          "internalType": "address",
          "name": "user",
          "type": "address"
        },
        {
          "indexed": false,
          "internalType": "uint256",
          "name": "amount",
          "type": "uint256"
        },
        {
          "indexed": false,
          "internalType": "uint256",
          "name": "reward",
          "type": "uint256"
        }
      ],
      "name": "StakeWithdrawn",
      "type": "event"
    },
    {
      "anonymous": false,
      "inputs": [
        {
          "indexed": true,
          "internalType": "address",
          "name": "user",
          "type": "address"
        },
        {
          "indexed": false,
          "internalType": "uint256",
          "name": "amount",
          "type": "uint256"
        },
        {
          "indexed": false,
          "internalType": "uint256",
          "name": "reward",
          "type": "uint256"
        },
        {
          "indexed": false,
          "internalType": "bool",
          "name": "reinvest",
          "type": "bool"
        }
      ],
      "name": "TokensStaked",
      "type": "event"
    },
    {
      "anonymous": false,
      "inputs": [
        {
          "indexed": false,
          "internalType": "uint256",
          "name": "addedTokenAmount",
          "type": "uint256"
        },
        {
          "indexed": false,
          "internalType": "uint256",
          "name": "newFinishTime",
          "type": "uint256"
        }
      ],
      "name": "UpdateFinishTime",
      "type": "event"
    },
    {
      "anonymous": false,
      "inputs": [
        {
          "indexed": true,
          "internalType": "address",
          "name": "user",
          "type": "address"
        },
        {
          "indexed": false,
          "internalType": "uint256",
          "name": "amount",
          "type": "uint256"
        }
      ],
      "name": "WithdrawPoolRemainder",
      "type": "event"
    },
    {
      "inputs": [],
      "name": "accTokensPerShare",
      "outputs": [
        {
          "internalType": "uint256",
          "name": "",
          "type": "uint256"
        }
      ],
      "stateMutability": "view",
      "type": "function"
    },
    {
      "inputs": [
        {
          "internalType": "address[]",
          "name": "_addresses",
          "type": "address[]"
        }
      ],
      "name": "add",
      "outputs": [],
      "stateMutability": "nonpayable",
      "type": "function"
    },
    {
      "inputs": [
        {
          "internalType": "string",
          "name": "_enodeAdress",
          "type": "string"
        }
      ],
      "name": "addRequest",
      "outputs": [],
      "stateMutability": "nonpayable",
      "type": "function"
    },
    {
      "inputs": [],
      "name": "allPaidReward",
      "outputs": [
        {
          "internalType": "uint256",
          "name": "",
          "type": "uint256"
        }
      ],
      "stateMutability": "view",
      "type": "function"
    },
    {
      "inputs": [],
      "name": "allRewardDebt",
      "outputs": [
        {
          "internalType": "uint256",
          "name": "",
          "type": "uint256"
        }
      ],
      "stateMutability": "view",
      "type": "function"
    },
    {
      "inputs": [],
      "name": "allStakedAmount",
      "outputs": [
        {
          "internalType": "uint256",
          "name": "",
          "type": "uint256"
        }
      ],
      "stateMutability": "view",
      "type": "function"
    },
    {
      "inputs": [
        {
          "internalType": "address",
          "name": "",
          "type": "address"
        }
      ],
      "name": "canStake",
      "outputs": [
        {
          "internalType": "bool",
          "name": "",
          "type": "bool"
        }
      ],
      "stateMutability": "view",
      "type": "function"
    },
    {
      "inputs": [
        {
          "internalType": "address",
          "name": "_user",
          "type": "address"
        },
        {
          "internalType": "string",
          "name": "_status",
          "type": "string"
        }
      ],
      "name": "changeStatus",
      "outputs": [],
      "stateMutability": "nonpayable",
      "type": "function"
    },
    {
      "inputs": [
        {
          "internalType": "address",
          "name": "_user",
          "type": "address"
        },
        {
          "internalType": "bool",
          "name": "value",
          "type": "bool"
        }
      ],
      "name": "defineValidator",
      "outputs": [],
      "stateMutability": "nonpayable",
      "type": "function"
    },
    {
      "inputs": [
        {
          "internalType": "address",
          "name": "_user",
          "type": "address"
        }
      ],
      "name": "deleteRequest",
      "outputs": [],
      "stateMutability": "nonpayable",
      "type": "function"
    },
    {
      "inputs": [],
      "name": "emergencyWithdraw",
      "outputs": [],
      "stateMutability": "nonpayable",
      "type": "function"
    },
    {
      "inputs": [
        {
          "internalType": "uint256",
          "name": "amount",
          "type": "uint256"
        }
      ],
      "name": "emergencyWithdrawOneng",
      "outputs": [],
      "stateMutability": "nonpayable",
      "type": "function"
    },
    {
      "inputs": [],
      "name": "emergencyWithdrawPoolRemainder",
      "outputs": [],
      "stateMutability": "nonpayable",
      "type": "function"
    },
    {
      "inputs": [
        {
          "internalType": "uint256",
          "name": "amount",
          "type": "uint256"
        }
      ],
      "name": "emergencyWithdrawST",
      "outputs": [],
      "stateMutability": "nonpayable",
      "type": "function"
    },
    {
      "inputs": [],
      "name": "getRequestsLength",
      "outputs": [
        {
          "internalType": "uint256",
          "name": "",
          "type": "uint256"
        }
      ],
      "stateMutability": "view",
      "type": "function"
    },
    {
      "inputs": [
        {
          "internalType": "address",
          "name": "user",
          "type": "address"
        }
      ],
      "name": "getUserInfo",
      "outputs": [
        {
          "internalType": "uint256",
          "name": "",
          "type": "uint256"
        },
        {
          "internalType": "uint256",
          "name": "",
          "type": "uint256"
        }
      ],
      "stateMutability": "view",
      "type": "function"
    },
    {
      "inputs": [],
      "name": "hasWhitelisting",
      "outputs": [
        {
          "internalType": "bool",
          "name": "",
          "type": "bool"
        }
      ],
      "stateMutability": "view",
      "type": "function"
    },
    {
      "inputs": [
        {
          "internalType": "address",
          "name": "",
          "type": "address"
        }
      ],
      "name": "isValidator",
      "outputs": [
        {
          "internalType": "bool",
          "name": "",
          "type": "bool"
        }
      ],
      "stateMutability": "view",
      "type": "function"
    },
    {
      "inputs": [
        {
          "internalType": "address",
          "name": "_address",
          "type": "address"
        }
      ],
      "name": "isWhitelisted",
      "outputs": [
        {
          "internalType": "bool",
          "name": "",
          "type": "bool"
        }
      ],
      "stateMutability": "view",
      "type": "function"
    },
    {
      "inputs": [],
      "name": "lastRewardTime",
      "outputs": [
        {
          "internalType": "uint256",
          "name": "",
          "type": "uint256"
        }
      ],
      "stateMutability": "view",
      "type": "function"
    },
    {
      "inputs": [],
      "name": "minAmountStake",
      "outputs": [
        {
          "internalType": "uint256",
          "name": "",
          "type": "uint256"
        }
      ],
      "stateMutability": "view",
      "type": "function"
    },
    {
      "inputs": [],
      "name": "owner",
      "outputs": [
        {
          "internalType": "address",
          "name": "",
          "type": "address"
        }
      ],
      "stateMutability": "view",
      "type": "function"
    },
    {
      "inputs": [],
      "name": "participants",
      "outputs": [
        {
          "internalType": "uint256",
          "name": "",
          "type": "uint256"
        }
      ],
      "stateMutability": "view",
      "type": "function"
    },
    {
      "inputs": [
        {
          "internalType": "address",
          "name": "_user",
          "type": "address"
        }
      ],
      "name": "pendingReward",
      "outputs": [
        {
          "internalType": "uint256",
          "name": "",
          "type": "uint256"
        }
      ],
      "stateMutability": "view",
      "type": "function"
    },
    {
      "inputs": [],
      "name": "poolTokenAmount",
      "outputs": [
        {
          "internalType": "uint256",
          "name": "",
          "type": "uint256"
        }
      ],
      "stateMutability": "view",
      "type": "function"
    },
    {
      "inputs": [
        {
          "internalType": "address[]",
          "name": "_addresses",
          "type": "address[]"
        }
      ],
      "name": "remove",
      "outputs": [],
      "stateMutability": "nonpayable",
      "type": "function"
    },
    {
      "inputs": [
        {
          "internalType": "address",
          "name": "_validator",
          "type": "address"
        }
      ],
      "name": "removeValidator",
      "outputs": [],
      "stateMutability": "nonpayable",
      "type": "function"
    },
    {
      "inputs": [],
      "name": "renounceOwnership",
      "outputs": [],
      "stateMutability": "nonpayable",
      "type": "function"
    },
    {
      "inputs": [
        {
          "internalType": "uint256",
          "name": "_time",
          "type": "uint256"
        }
      ],
      "name": "setStartTime",
      "outputs": [],
      "stateMutability": "nonpayable",
      "type": "function"
    },
    {
      "inputs": [],
      "name": "sharedWalletStakedAmount",
      "outputs": [
        {
          "internalType": "uint256",
          "name": "",
          "type": "uint256"
        }
      ],
      "stateMutability": "view",
      "type": "function"
    },
    {
      "inputs": [
        {
          "internalType": "uint256",
          "name": "_amountToStake",
          "type": "uint256"
        },
        {
          "internalType": "bool",
          "name": "validator",
          "type": "bool"
        }
      ],
      "name": "stakeTokens",
      "outputs": [],
      "stateMutability": "nonpayable",
      "type": "function"
    },
    {
      "inputs": [],
      "name": "stakingToken",
      "outputs": [
        {
          "internalType": "contract IERC20",
          "name": "",
          "type": "address"
        }
      ],
      "stateMutability": "view",
      "type": "function"
    },
    {
      "inputs": [],
      "name": "startTime",
      "outputs": [
        {
          "internalType": "uint256",
          "name": "",
          "type": "uint256"
        }
      ],
      "stateMutability": "view",
      "type": "function"
    },
    {
      "inputs": [],
      "name": "transferEthertoPool",
      "outputs": [],
      "stateMutability": "payable",
      "type": "function"
    },
    {
      "inputs": [
        {
          "internalType": "address",
          "name": "newOwner",
          "type": "address"
        }
      ],
      "name": "transferOwnership",
      "outputs": [],
      "stateMutability": "nonpayable",
      "type": "function"
    },
    {
      "inputs": [],
      "name": "transferPendingRewardP",
      "outputs": [],
      "stateMutability": "nonpayable",
      "type": "function"
    },
    {
      "inputs": [],
      "name": "updatePool",
      "outputs": [],
      "stateMutability": "nonpayable",
      "type": "function"
    },
    {
      "inputs": [
        {
          "internalType": "address",
          "name": "",
          "type": "address"
        }
      ],
      "name": "userInfo",
      "outputs": [
        {
          "internalType": "uint256",
          "name": "amount",
          "type": "uint256"
        },
        {
          "internalType": "uint256",
          "name": "rewardDebt",
          "type": "uint256"
        },
        {
          "internalType": "bool",
          "name": "registrated",
          "type": "bool"
        },
        {
          "internalType": "bool",
          "name": "maderequest",
          "type": "bool"
        },
        {
          "internalType": "uint256",
          "name": "index",
          "type": "uint256"
        }
      ],
      "stateMutability": "view",
      "type": "function"
    },
    {
      "inputs": [],
      "name": "validatorBonusMultiplier",
      "outputs": [
        {
          "internalType": "uint256",
          "name": "",
          "type": "uint256"
        }
      ],
      "stateMutability": "view",
      "type": "function"
    },
    {
      "inputs": [
        {
          "internalType": "uint256",
          "name": "",
          "type": "uint256"
        }
      ],
      "name": "validators",
      "outputs": [
        {
          "internalType": "address",
          "name": "user",
          "type": "address"
        },
        {
          "internalType": "string",
          "name": "enodeAdress",
          "type": "string"
        },
        {
          "internalType": "string",
          "name": "status",
          "type": "string"
        }
      ],
      "stateMutability": "view",
      "type": "function"
    },
    {
      "inputs": [
        {
          "internalType": "address",
          "name": "",
          "type": "address"
        }
      ],
      "name": "whitelist",
      "outputs": [
        {
          "internalType": "bool",
          "name": "",
          "type": "bool"
        }
      ],
      "stateMutability": "view",
      "type": "function"
    },
    {
      "inputs": [],
      "name": "withdrawPoolRemainder",
      "outputs": [],
      "stateMutability": "nonpayable",
      "type": "function"
    },
    {
      "inputs": [],
      "name": "withdrawStake",
      "outputs": [],
      "stateMutability": "nonpayable",
      "type": "function"
    }
  ],
  "bytecode": "0x60806040526000600260006101000a81548160ff021916908315150217905550600f6010553480156200003157600080fd5b50604051620059aa380380620059aa83398181016040528101906200005791906200037e565b600080339050806000806101000a81548173ffffffffffffffffffffffffffffffffffffffff021916908373ffffffffffffffffffffffffffffffffffffffff1602179055508073ffffffffffffffffffffffffffffffffffffffff16600073ffffffffffffffffffffffffffffffffffffffff167f8be0079c531659141344cd1fd0a4f28419497f9722a3daafe3b4186f6b6457e060405160405180910390a35080600260006101000a81548160ff02191690831515021790555050600160038190555084600460006101000a81548173ffffffffffffffffffffffffffffffffffffffff021916908373ffffffffffffffffffffffffffffffffffffffff160217905550620001786064826200026960201b620030e21790919060201c565b600e81905550620001988442620002ed60201b6200315d1790919060201c565b600581905550600554600681905550620001c18342620002ed60201b6200315d1790919060201c565b60078190555081600b819055506007546005541062000217576040517f08c379a00000000000000000000000000000000000000000000000000000000081526004016200020e9062000508565b60405180910390fd5b42600554116200025e576040517f08c379a00000000000000000000000000000000000000000000000000000000081526004016200025590620004e6565b60405180910390fd5b5050505050620007e4565b6000808314156200027e5760009050620002e7565b600082846200028e9190620005d0565b90508284826200029f919062000598565b14620002e2576040517f08c379a0000000000000000000000000000000000000000000000000000000008152600401620002d990620004c4565b60405180910390fd5b809150505b92915050565b6000808284620002fe91906200053b565b90508381101562000346576040517f08c379a00000000000000000000000000000000000000000000000000000000081526004016200033d90620004a2565b60405180910390fd5b8091505092915050565b6000815190506200036181620007b0565b92915050565b6000815190506200037881620007ca565b92915050565b600080600080600060a086880312156200039d576200039c620006e1565b5b6000620003ad8882890162000350565b9550506020620003c08882890162000367565b9450506040620003d38882890162000367565b9350506060620003e68882890162000367565b9250506080620003f98882890162000367565b9150509295509295909350565b600062000415601b836200052a565b91506200042282620006e6565b602082019050919050565b60006200043c6021836200052a565b915062000449826200070f565b604082019050919050565b600062000463601b836200052a565b915062000470826200075e565b602082019050919050565b60006200048a601e836200052a565b9150620004978262000787565b602082019050919050565b60006020820190508181036000830152620004bd8162000406565b9050919050565b60006020820190508181036000830152620004df816200042d565b9050919050565b60006020820190508181036000830152620005018162000454565b9050919050565b6000602082019050818103600083015262000523816200047b565b9050919050565b600082825260208201905092915050565b6000620005488262000679565b9150620005558362000679565b9250827fffffffffffffffffffffffffffffffffffffffffffffffffffffffffffffffff038211156200058d576200058c62000683565b5b828201905092915050565b6000620005a58262000679565b9150620005b28362000679565b925082620005c557620005c4620006b2565b5b828204905092915050565b6000620005dd8262000679565b9150620005ea8362000679565b9250817fffffffffffffffffffffffffffffffffffffffffffffffffffffffffffffffff048311821515161562000626576200062562000683565b5b828202905092915050565b60006200063e8262000659565b9050919050565b6000620006528262000631565b9050919050565b600073ffffffffffffffffffffffffffffffffffffffff82169050919050565b6000819050919050565b7f4e487b7100000000000000000000000000000000000000000000000000000000600052601160045260246000fd5b7f4e487b7100000000000000000000000000000000000000000000000000000000600052601260045260246000fd5b600080fd5b7f536166654d6174683a206164646974696f6e206f766572666c6f770000000000600082015250565b7f536166654d6174683a206d756c7469706c69636174696f6e206f766572666c6f60008201527f7700000000000000000000000000000000000000000000000000000000000000602082015250565b7f5374617274206d757374206265206d6f7265207468616e206e6f770000000000600082015250565b7f5374617274206d757374206265206c657373207468616e2066696e6973680000600082015250565b620007bb8162000645565b8114620007c757600080fd5b50565b620007d58162000679565b8114620007e157600080fd5b50565b6151b680620007f46000396000f3fe60806040526004361061025b5760003560e01c806372f702f311610144578063b739ef92116100b6578063db2e21bc1161007a578063db2e21bc14610873578063e3161ddd1461088a578063e42578ce146108a1578063f2fde38b146108cc578063f40f0f52146108f5578063facd743b146109325761025b565b8063b739ef92146107c6578063bed9d861146107dd578063c4c1c94f146107f4578063c8cf47221461081d578063d501953d146108485761025b565b80638da5cb5b116101085780638da5cb5b146106c85780639231cf74146106f3578063951fbcc81461071e578063965af692146107495780639b19251a14610772578063aa0bb90c146107af5761025b565b806372f702f3146106075780637647ca051461063257806377e9e17f1461064957806378e97925146106745780637cb7bf941461069f5761025b565b806336d8bf93116101dd5780635e4ba17c116101a15780635e4ba17c1461050a578063626203a2146105335780636386c1c71461055e5780636c4470fb1461059c5780636eaaabd5146105c7578063715018a6146105f05761025b565b806336d8bf93146104325780633af32abf1461046f57806340a141ff146104ac5780635839eafe146104d55780635958611e146104df5761025b565b806314d3bf411161022457806314d3bf41146103315780631959a0021461035c5780631d3a4ef01461039d5780632f3c9a4f146103c857806335aa2e44146103f35761025b565b80627d94f614610260578063076623451461028957806308758f8b146102b45780630ac906a9146102df578063128d721514610308575b600080fd5b34801561026c57600080fd5b50610287600480360381019061028291906141e5565b61096f565b005b34801561029557600080fd5b5061029e610bcc565b6040516102ab9190614755565b60405180910390f35b3480156102c057600080fd5b506102c9610bdf565b6040516102d6919061492d565b60405180910390f35b3480156102eb57600080fd5b5061030660048036038101906103019190614252565b610be5565b005b34801561031457600080fd5b5061032f600480360381019061032a9190614351565b610cff565b005b34801561033d57600080fd5b50610346610ead565b604051610353919061492d565b60405180910390f35b34801561036857600080fd5b50610383600480360381019061037e91906141e5565b610eb3565b6040516103949594939291906149a8565b60405180910390f35b3480156103a957600080fd5b506103b2610f03565b6040516103bf9190614695565b60405180910390f35b3480156103d457600080fd5b506103dd610f29565b6040516103ea919061492d565b60405180910390f35b3480156103ff57600080fd5b5061041a6004803603810190610415919061439a565b610f2f565b604051610429939291906146e7565b60405180910390f35b34801561043e57600080fd5b50610459600480360381019061045491906141e5565b611099565b6040516104669190614755565b60405180910390f35b34801561047b57600080fd5b50610496600480360381019061049191906141e5565b6110b9565b6040516104a39190614755565b60405180910390f35b3480156104b857600080fd5b506104d360048036038101906104ce91906141e5565b61110f565b005b6104dd611710565b005b3480156104eb57600080fd5b506104f4611712565b604051610501919061492d565b60405180910390f35b34801561051657600080fd5b50610531600480360381019061052c91906142ae565b611718565b005b34801561053f57600080fd5b506105486118cb565b604051610555919061492d565b60405180910390f35b34801561056a57600080fd5b50610585600480360381019061058091906141e5565b6118d1565b604051610593929190614948565b60405180910390f35b3480156105a857600080fd5b506105b161198a565b6040516105be919061492d565b60405180910390f35b3480156105d357600080fd5b506105ee60048036038101906105e991906142f7565b611990565b005b3480156105fc57600080fd5b50610605611a81565b005b34801561061357600080fd5b5061061c611bcd565b6040516106299190614770565b60405180910390f35b34801561063e57600080fd5b50610647611bf3565b005b34801561065557600080fd5b5061065e611e33565b60405161066b919061492d565b60405180910390f35b34801561068057600080fd5b50610689611e39565b604051610696919061492d565b60405180910390f35b3480156106ab57600080fd5b506106c660048036038101906106c19190614212565b611e3f565b005b3480156106d457600080fd5b506106dd61203f565b6040516106ea9190614695565b60405180910390f35b3480156106ff57600080fd5b50610708612068565b604051610715919061492d565b60405180910390f35b34801561072a57600080fd5b5061073361206e565b604051610740919061492d565b60405180910390f35b34801561075557600080fd5b50610770600480360381019061076b91906143f4565b612074565b005b34801561077e57600080fd5b50610799600480360381019061079491906141e5565b612195565b6040516107a69190614755565b60405180910390f35b3480156107bb57600080fd5b506107c46121b5565b005b3480156107d257600080fd5b506107db6123db565b005b3480156107e957600080fd5b506107f26124f1565b005b34801561080057600080fd5b5061081b600480360381019061081691906142ae565b612a58565b005b34801561082957600080fd5b50610832612bcb565b60405161083f919061492d565b60405180910390f35b34801561085457600080fd5b5061085d612bd8565b60405161086a919061492d565b60405180910390f35b34801561087f57600080fd5b50610888612bde565b005b34801561089657600080fd5b5061089f612d7d565b005b3480156108ad57600080fd5b506108b6612e0b565b6040516108c3919061492d565b60405180910390f35b3480156108d857600080fd5b506108f360048036038101906108ee91906141e5565b612e11565b005b34801561090157600080fd5b5061091c600480360381019061091791906141e5565b612fcc565b604051610929919061492d565b60405180910390f35b34801561093e57600080fd5b50610959600480360381019061095491906141e5565b6130c2565b6040516109669190614755565b60405180910390f35b3373ffffffffffffffffffffffffffffffffffffffff1660008054906101000a900473ffffffffffffffffffffffffffffffffffffffff1673ffffffffffffffffffffffffffffffffffffffff16146109fd576040517f08c379a00000000000000000000000000000000000000000000000000000000081526004016109f49061488d565b60405180910390fd5b6000601260008373ffffffffffffffffffffffffffffffffffffffff1673ffffffffffffffffffffffffffffffffffffffff1681526020019081526020016000209050600060156001601580549050610a569190614b90565b81548110610a6757610a66614dbd565b5b90600052602060002090600302019050806015836003015481548110610a9057610a8f614dbd565b5b90600052602060002090600302016000820160009054906101000a900473ffffffffffffffffffffffffffffffffffffffff168160000160006101000a81548173ffffffffffffffffffffffffffffffffffffffff021916908373ffffffffffffffffffffffffffffffffffffffff1602179055506001820181600101908054610b1990614c84565b610b24929190613f3e565b506002820181600201908054610b3990614c84565b610b44929190613f3e565b509050506000601260008360000160009054906101000a900473ffffffffffffffffffffffffffffffffffffffff1673ffffffffffffffffffffffffffffffffffffffff1673ffffffffffffffffffffffffffffffffffffffff1681526020019081526020016000209050826003015481600301819055506000836003018190555050505050565b600260009054906101000a900460ff1681565b600f5481565b3373ffffffffffffffffffffffffffffffffffffffff1660008054906101000a900473ffffffffffffffffffffffffffffffffffffffff1673ffffffffffffffffffffffffffffffffffffffff1614610c73576040517f08c379a0000000000000000000000000000000000000000000000000000000008152600401610c6a9061488d565b60405180910390fd5b6000601260008473ffffffffffffffffffffffffffffffffffffffff1673ffffffffffffffffffffffffffffffffffffffff168152602001908152602001600020905060006015826003015481548110610cd057610ccf614dbd565b5b9060005260206000209060030201905082816002019080519060200190610cf8929190613fcb565b5050505050565b6000601260003373ffffffffffffffffffffffffffffffffffffffff1673ffffffffffffffffffffffffffffffffffffffff16815260200190815260200160002090508060020160019054906101000a900460ff1615610d5e57600080fd5b601560405180606001604052803373ffffffffffffffffffffffffffffffffffffffff1681526020018481526020016040518060400160405280600781526020017f70656e64696e6700000000000000000000000000000000000000000000000000815250815250908060018154018082558091505060019003906000526020600020906003020160009091909190915060008201518160000160006101000a81548173ffffffffffffffffffffffffffffffffffffffff021916908373ffffffffffffffffffffffffffffffffffffffff1602179055506020820151816001019080519060200190610e52929190613fcb565b506040820151816002019080519060200190610e6f929190613fcb565b50505060018160020160016101000a81548160ff0219169083151502179055506001601580549050610ea19190614b90565b81600301819055505050565b60085481565b60126020528060005260406000206000915090508060000154908060010154908060020160009054906101000a900460ff16908060020160019054906101000a900460ff16908060030154905085565b601160009054906101000a900473ffffffffffffffffffffffffffffffffffffffff1681565b600c5481565b60158181548110610f3f57600080fd5b90600052602060002090600302016000915090508060000160009054906101000a900473ffffffffffffffffffffffffffffffffffffffff1690806001018054610f8890614c84565b80601f0160208091040260200160405190810160405280929190818152602001828054610fb490614c84565b80156110015780601f10610fd657610100808354040283529160200191611001565b820191906000526020600020905b815481529060010190602001808311610fe457829003601f168201915b50505050509080600201805461101690614c84565b80601f016020809104026020016040519081016040528092919081815260200182805461104290614c84565b801561108f5780601f106110645761010080835404028352916020019161108f565b820191906000526020600020905b81548152906001019060200180831161107257829003601f168201915b5050505050905083565b60146020528060005260406000206000915054906101000a900460ff1681565b6000600160008373ffffffffffffffffffffffffffffffffffffffff1673ffffffffffffffffffffffffffffffffffffffff16815260200190815260200160002060009054906101000a900460ff169050919050565b3373ffffffffffffffffffffffffffffffffffffffff1660008054906101000a900473ffffffffffffffffffffffffffffffffffffffff1673ffffffffffffffffffffffffffffffffffffffff161461119d576040517f08c379a00000000000000000000000000000000000000000000000000000000081526004016111949061488d565b60405180910390fd5b6000601260008373ffffffffffffffffffffffffffffffffffffffff1673ffffffffffffffffffffffffffffffffffffffff1681526020019081526020016000209050600081600001549050601360008473ffffffffffffffffffffffffffffffffffffffff1673ffffffffffffffffffffffffffffffffffffffff16815260200190815260200160002060009054906101000a900460ff1615611559576000601583600301548154811061125557611254614dbd565b5b906000526020600020906003020190506040518060400160405280601181526020017f57697468647261776564205374616b65730000000000000000000000000000008152508160020190805190602001906112b2929190613fcb565b506112bb612d7d565b6000611325846040518060a001604052908160008201548152602001600182015481526020016002820160009054906101000a900460ff161515151581526020016002820160019054906101000a900460ff161515151581526020016003820154815250506131bb565b90506000601360008773ffffffffffffffffffffffffffffffffffffffff1673ffffffffffffffffffffffffffffffffffffffff16815260200190815260200160002060006101000a81548160ff0219169083151502179055506113a7601054611399600a866130e290919063ffffffff16565b61326490919063ffffffff16565b9250600084600001819055506114008584600460009054906101000a900473ffffffffffffffffffffffffffffffffffffffff1673ffffffffffffffffffffffffffffffffffffffff166132ae9092919063ffffffff16565b6114098561096f565b6000601460008773ffffffffffffffffffffffffffffffffffffffff1673ffffffffffffffffffffffffffffffffffffffff16815260200190815260200160002060006101000a81548160ff02191690831515021790555061147a8460010154600a5461333490919063ffffffff16565b600a81905550611499600c5485600001546130e290919063ffffffff16565b84600101819055506114ba8460010154600a5461315d90919063ffffffff16565b600a819055506114fc6114eb600a6114dd601054876130e290919063ffffffff16565b61326490919063ffffffff16565b60085461333490919063ffffffff16565b6008819055508473ffffffffffffffffffffffffffffffffffffffff167f933735aa8de6d7547d0126171b2f31b9c34dd00f3ecd4be85a0ba047db4fafef848360405161154a929190614948565b60405180910390a2505061170b565b611561612d7d565b60006115cb836040518060a001604052908160008201548152602001600182015481526020016002820160009054906101000a900460ff161515151581526020016002820160019054906101000a900460ff161515151581526020016003820154815250506131bb565b9050600083600001819055506116248483600460009054906101000a900473ffffffffffffffffffffffffffffffffffffffff1673ffffffffffffffffffffffffffffffffffffffff166132ae9092919063ffffffff16565b61163d8360010154600a5461333490919063ffffffff16565b600a8190555061165c600c5484600001546130e290919063ffffffff16565b836001018190555061167d8360010154600a5461315d90919063ffffffff16565b600a819055506116988260085461333490919063ffffffff16565b6008819055506116b382600f5461333490919063ffffffff16565b600f819055508373ffffffffffffffffffffffffffffffffffffffff167f933735aa8de6d7547d0126171b2f31b9c34dd00f3ecd4be85a0ba047db4fafef8383604051611701929190614948565b60405180910390a2505b505050565b565b60075481565b3373ffffffffffffffffffffffffffffffffffffffff1660008054906101000a900473ffffffffffffffffffffffffffffffffffffffff1673ffffffffffffffffffffffffffffffffffffffff16146117a6576040517f08c379a000000000000000000000000000000000000000000000000000000000815260040161179d9061488d565b60405180910390fd5b60005b81518110156118c75760008282815181106117c7576117c6614dbd565b5b60200260200101519050600160008273ffffffffffffffffffffffffffffffffffffffff1673ffffffffffffffffffffffffffffffffffffffff16815260200190815260200160002060009054906101000a900460ff16156118b3576000600160008373ffffffffffffffffffffffffffffffffffffffff1673ffffffffffffffffffffffffffffffffffffffff16815260200190815260200160002060006101000a81548160ff0219169083151502179055507fcdd2e9b91a56913d370075169cefa1602ba36be5301664f752192bb1709df757816040516118aa9190614695565b60405180910390a15b5080806118bf90614ce7565b9150506117a9565b5050565b600e5481565b6000806000601260008573ffffffffffffffffffffffffffffffffffffffff1673ffffffffffffffffffffffffffffffffffffffff1681526020019081526020016000206040518060a001604052908160008201548152602001600182015481526020016002820160009054906101000a900460ff161515151581526020016002820160019054906101000a900460ff161515151581526020016003820154815250509050806000015181602001519250925050915091565b600d5481565b3373ffffffffffffffffffffffffffffffffffffffff1660008054906101000a900473ffffffffffffffffffffffffffffffffffffffff1673ffffffffffffffffffffffffffffffffffffffff1614611a1e576040517f08c379a0000000000000000000000000000000000000000000000000000000008152600401611a159061488d565b60405180910390fd5b80600260006101000a81548160ff0219169083151502179055507f81a1b67ab393231a9f3a2ce8c84cc6c46c76cc94cf733e155af6fb539873fa39600260009054906101000a900460ff16604051611a769190614755565b60405180910390a150565b3373ffffffffffffffffffffffffffffffffffffffff1660008054906101000a900473ffffffffffffffffffffffffffffffffffffffff1673ffffffffffffffffffffffffffffffffffffffff1614611b0f576040517f08c379a0000000000000000000000000000000000000000000000000000000008152600401611b069061488d565b60405180910390fd5b600073ffffffffffffffffffffffffffffffffffffffff1660008054906101000a900473ffffffffffffffffffffffffffffffffffffffff1673ffffffffffffffffffffffffffffffffffffffff167f8be0079c531659141344cd1fd0a4f28419497f9722a3daafe3b4186f6b6457e060405160405180910390a360008060006101000a81548173ffffffffffffffffffffffffffffffffffffffff021916908373ffffffffffffffffffffffffffffffffffffffff160217905550565b600460009054906101000a900473ffffffffffffffffffffffffffffffffffffffff1681565b3373ffffffffffffffffffffffffffffffffffffffff1660008054906101000a900473ffffffffffffffffffffffffffffffffffffffff1673ffffffffffffffffffffffffffffffffffffffff1614611c81576040517f08c379a0000000000000000000000000000000000000000000000000000000008152600401611c789061488d565b60405180910390fd5b60026003541415611cc7576040517f08c379a0000000000000000000000000000000000000000000000000000000008152600401611cbe906148ed565b60405180910390fd5b60026003819055506007544211611d13576040517f08c379a0000000000000000000000000000000000000000000000000000000008152600401611d0a9061490d565b60405180910390fd5b611d1b612d7d565b6000611d48600a54611d3a600c546008546130e290919063ffffffff16565b61333490919063ffffffff16565b90506000611d7582611d67600954600b5461333490919063ffffffff16565b61333490919063ffffffff16565b9050611d8c8160095461315d90919063ffffffff16565b6009819055503373ffffffffffffffffffffffffffffffffffffffff166108fc829081150290604051600060405180830381858888f19350505050158015611dd8573d6000803e3d6000fd5b503373ffffffffffffffffffffffffffffffffffffffff167f575274ea138cb54fdd6aded4d581d6cfb06d6cda7b8d9c519804512d1d61b5a482604051611e1f919061492d565b60405180910390a250506001600381905550565b60105481565b60055481565b3373ffffffffffffffffffffffffffffffffffffffff1660008054906101000a900473ffffffffffffffffffffffffffffffffffffffff1673ffffffffffffffffffffffffffffffffffffffff1614611ecd576040517f08c379a0000000000000000000000000000000000000000000000000000000008152600401611ec49061488d565b60405180910390fd5b80601460008473ffffffffffffffffffffffffffffffffffffffff1673ffffffffffffffffffffffffffffffffffffffff16815260200190815260200160002060006101000a81548160ff0219169083151502179055506000601260008473ffffffffffffffffffffffffffffffffffffffff1673ffffffffffffffffffffffffffffffffffffffff168152602001908152602001600020905060006015826003015481548110611f8157611f80614dbd565b5b906000526020600020906003020190508215611fea576040518060400160405280600881526020017f617070726f766564000000000000000000000000000000000000000000000000815250816002019080519060200190611fe4929190613fcb565b50612039565b6040518060400160405280600681526020017f64656e6965640000000000000000000000000000000000000000000000000000815250816002019080519060200190612037929190613fcb565b505b50505050565b60008060009054906101000a900473ffffffffffffffffffffffffffffffffffffffff16905090565b60065481565b600a5481565b600260035414156120ba576040517f08c379a00000000000000000000000000000000000000000000000000000000081526004016120b1906148ed565b60405180910390fd5b6002600381905550600260009054906101000a900460ff16156120ea576120e0336110b9565b6120e957600080fd5b5b801561217d57601460003373ffffffffffffffffffffffffffffffffffffffff1673ffffffffffffffffffffffffffffffffffffffff16815260200190815260200160002060009054906101000a900460ff1661217c576040517f08c379a0000000000000000000000000000000000000000000000000000000008152600401612173906147ad565b60405180910390fd5b5b6121898282600061337e565b60016003819055505050565b60016020528060005260406000206000915054906101000a900460ff1681565b3373ffffffffffffffffffffffffffffffffffffffff1660008054906101000a900473ffffffffffffffffffffffffffffffffffffffff1673ffffffffffffffffffffffffffffffffffffffff1614612243576040517f08c379a000000000000000000000000000000000000000000000000000000000815260040161223a9061488d565b60405180910390fd5b60026003541415612289576040517f08c379a0000000000000000000000000000000000000000000000000000000008152600401612280906148ed565b60405180910390fd5b60026003819055503373ffffffffffffffffffffffffffffffffffffffff166108fc479081150290604051600060405180830381858888f193505050501580156122d7573d6000803e3d6000fd5b506123d13033600460009054906101000a900473ffffffffffffffffffffffffffffffffffffffff1673ffffffffffffffffffffffffffffffffffffffff166370a08231306040518263ffffffff1660e01b81526004016123389190614695565b60206040518083038186803b15801561235057600080fd5b505afa158015612364573d6000803e3d6000fd5b505050506040513d601f19601f8201168201806040525081019061238891906143c7565b600460009054906101000a900473ffffffffffffffffffffffffffffffffffffffff1673ffffffffffffffffffffffffffffffffffffffff16613a71909392919063ffffffff16565b6001600381905550565b6000601260003373ffffffffffffffffffffffffffffffffffffffff1673ffffffffffffffffffffffffffffffffffffffff1681526020019081526020016000209050612426612d7d565b61248e816040518060a001604052908160008201548152602001600182015481526020016002820160009054906101000a900460ff161515151581526020016002820160019054906101000a900460ff161515151581526020016003820154815250506131bb565b506124a88160010154600a5461333490919063ffffffff16565b600a819055506124c7600c5482600001546130e290919063ffffffff16565b81600101819055506124e88160010154600a5461315d90919063ffffffff16565b600a8190555050565b60026003541415612537576040517f08c379a000000000000000000000000000000000000000000000000000000000815260040161252e906148ed565b60405180910390fd5b60026003819055506000601260003373ffffffffffffffffffffffffffffffffffffffff1673ffffffffffffffffffffffffffffffffffffffff1681526020019081526020016000209050600081600001549050601360003373ffffffffffffffffffffffffffffffffffffffff1673ffffffffffffffffffffffffffffffffffffffff16815260200190815260200160002060009054906101000a900460ff161561289a57600060158360030154815481106125f7576125f6614dbd565b5b906000526020600020906003020190506040518060400160405280601181526020017f57697468647261776564205374616b6573000000000000000000000000000000815250816002019080519060200190612654929190613fcb565b5061265d612d7d565b60006126c7846040518060a001604052908160008201548152602001600182015481526020016002820160009054906101000a900460ff161515151581526020016002820160019054906101000a900460ff161515151581526020016003820154815250506131bb565b90506000601360003373ffffffffffffffffffffffffffffffffffffffff1673ffffffffffffffffffffffffffffffffffffffff16815260200190815260200160002060006101000a81548160ff02191690831515021790555061274960105461273b600a866130e290919063ffffffff16565b61326490919063ffffffff16565b9250600084600001819055506127a23384600460009054906101000a900473ffffffffffffffffffffffffffffffffffffffff1673ffffffffffffffffffffffffffffffffffffffff166132ae9092919063ffffffff16565b6127bb8460010154600a5461333490919063ffffffff16565b600a819055506127da600c5485600001546130e290919063ffffffff16565b84600101819055506127fb8460010154600a5461315d90919063ffffffff16565b600a8190555061283d61282c600a61281e601054876130e290919063ffffffff16565b61326490919063ffffffff16565b60085461333490919063ffffffff16565b6008819055503373ffffffffffffffffffffffffffffffffffffffff167f933735aa8de6d7547d0126171b2f31b9c34dd00f3ecd4be85a0ba047db4fafef848360405161288b929190614948565b60405180910390a25050612a4c565b6128a2612d7d565b600061290c836040518060a001604052908160008201548152602001600182015481526020016002820160009054906101000a900460ff161515151581526020016002820160019054906101000a900460ff161515151581526020016003820154815250506131bb565b9050600083600001819055506129653383600460009054906101000a900473ffffffffffffffffffffffffffffffffffffffff1673ffffffffffffffffffffffffffffffffffffffff166132ae9092919063ffffffff16565b61297e8360010154600a5461333490919063ffffffff16565b600a8190555061299d600c5484600001546130e290919063ffffffff16565b83600101819055506129be8360010154600a5461315d90919063ffffffff16565b600a819055506129d98260085461333490919063ffffffff16565b6008819055506129f482600f5461333490919063ffffffff16565b600f819055503373ffffffffffffffffffffffffffffffffffffffff167f933735aa8de6d7547d0126171b2f31b9c34dd00f3ecd4be85a0ba047db4fafef8383604051612a42929190614948565b60405180910390a2505b50506001600381905550565b3373ffffffffffffffffffffffffffffffffffffffff1660008054906101000a900473ffffffffffffffffffffffffffffffffffffffff1673ffffffffffffffffffffffffffffffffffffffff1614612ae6576040517f08c379a0000000000000000000000000000000000000000000000000000000008152600401612add9061488d565b60405180910390fd5b60005b8151811015612bc7576001806000848481518110612b0a57612b09614dbd565b5b602002602001015173ffffffffffffffffffffffffffffffffffffffff1673ffffffffffffffffffffffffffffffffffffffff16815260200190815260200160002060006101000a81548160ff0219169083151502179055507fa850ae9193f515cbae8d35e8925bd2be26627fc91bce650b8652ed254e9cab03828281518110612b9757612b96614dbd565b5b6020026020010151604051612bac9190614695565b60405180910390a18080612bbf90614ce7565b915050612ae9565b5050565b6000601580549050905090565b600b5481565b60026003541415612c24576040517f08c379a0000000000000000000000000000000000000000000000000000000008152600401612c1b906148ed565b60405180910390fd5b60026003819055506000601260003373ffffffffffffffffffffffffffffffffffffffff1673ffffffffffffffffffffffffffffffffffffffff1681526020019081526020016000209050600081600001541115612d7257612ccd338260000154600460009054906101000a900473ffffffffffffffffffffffffffffffffffffffff1673ffffffffffffffffffffffffffffffffffffffff166132ae9092919063ffffffff16565b3373ffffffffffffffffffffffffffffffffffffffff167f5fafa99d0643513820be26656b45130b01e1c03062e1266bf36f88cbd3bd96958260000154604051612d17919061492d565b60405180910390a2612d38816000015460085461333490919063ffffffff16565b600881905550612d578160010154600a5461333490919063ffffffff16565b600a8190555060008160000181905550600081600101819055505b506001600381905550565b6006544211612d8b57612e09565b60006008541415612da25742600681905550612e09565b6000612db060065442613afa565b90506000612dce612dbf613b5f565b836130e290919063ffffffff16565b9050612df9612de86008548361326490919063ffffffff16565b600c5461315d90919063ffffffff16565b600c819055504260068190555050505b565b60095481565b3373ffffffffffffffffffffffffffffffffffffffff1660008054906101000a900473ffffffffffffffffffffffffffffffffffffffff1673ffffffffffffffffffffffffffffffffffffffff1614612e9f576040517f08c379a0000000000000000000000000000000000000000000000000000000008152600401612e969061488d565b60405180910390fd5b600073ffffffffffffffffffffffffffffffffffffffff168173ffffffffffffffffffffffffffffffffffffffff161415612f0f576040517f08c379a0000000000000000000000000000000000000000000000000000000008152600401612f06906147cd565b60405180910390fd5b8073ffffffffffffffffffffffffffffffffffffffff1660008054906101000a900473ffffffffffffffffffffffffffffffffffffffff1673ffffffffffffffffffffffffffffffffffffffff167f8be0079c531659141344cd1fd0a4f28419497f9722a3daafe3b4186f6b6457e060405160405180910390a3806000806101000a81548173ffffffffffffffffffffffffffffffffffffffff021916908373ffffffffffffffffffffffffffffffffffffffff16021790555050565b600080601260008473ffffffffffffffffffffffffffffffffffffffff1673ffffffffffffffffffffffffffffffffffffffff16815260200190815260200160002090506000600c5490506006544211801561302b5750600060085414155b1561308c57600061303e60065442613afa565b9050600061305c61304d613b5f565b836130e290919063ffffffff16565b90506130876130766008548361326490919063ffffffff16565b600c5461315d90919063ffffffff16565b925050505b6130b982600101546130ab8385600001546130e290919063ffffffff16565b61333490919063ffffffff16565b92505050919050565b60136020528060005260406000206000915054906101000a900460ff1681565b6000808314156130f55760009050613157565b600082846131039190614b36565b90508284826131129190614b05565b14613152576040517f08c379a00000000000000000000000000000000000000000000000000000000081526004016131499061486d565b60405180910390fd5b809150505b92915050565b600080828461316c9190614aaf565b9050838110156131b1576040517f08c379a00000000000000000000000000000000000000000000000000000000081526004016131a89061480d565b60405180910390fd5b8091505092915050565b6000806131ed83602001516131df600c5486600001516130e290919063ffffffff16565b61333490919063ffffffff16565b9050600081111561325b573373ffffffffffffffffffffffffffffffffffffffff166108fc829081150290604051600060405180830381858888f1935050505015801561323e573d6000803e3d6000fd5b506132548160095461315d90919063ffffffff16565b6009819055505b80915050919050565b60006132a683836040518060400160405280601a81526020017f536166654d6174683a206469766973696f6e206279207a65726f000000000000815250613c0a565b905092915050565b61332f8363a9059cbb60e01b84846040516024016132cd92919061472c565b604051602081830303815290604052907bffffffffffffffffffffffffffffffffffffffffffffffffffffffff19166020820180517bffffffffffffffffffffffffffffffffffffffffffffffffffffffff8381831617835250505050613c6d565b505050565b600061337683836040518060400160405280601e81526020017f536166654d6174683a207375627472616374696f6e206f766572666c6f770000815250613d34565b905092915050565b6000601260003373ffffffffffffffffffffffffffffffffffffffff1673ffffffffffffffffffffffffffffffffffffffff168152602001908152602001600020905083600460009054906101000a900473ffffffffffffffffffffffffffffffffffffffff1673ffffffffffffffffffffffffffffffffffffffff166370a08231336040518263ffffffff1660e01b815260040161341d9190614695565b60206040518083038186803b15801561343557600080fd5b505afa158015613449573d6000803e3d6000fd5b505050506040513d601f19601f8201168201806040525081019061346d91906143c7565b10156134ae576040517f08c379a00000000000000000000000000000000000000000000000000000000081526004016134a59061482d565b60405180910390fd5b821561351057600e546134ce85836000015461315d90919063ffffffff16565b101561350f576040517f08c379a0000000000000000000000000000000000000000000000000000000008152600401613506906147ed565b60405180910390fd5b5b613518612d7d565b60008160020160009054906101000a900460ff166135685760018260020160006101000a81548160ff0219169083151502179055506001600d60008282546135609190614aaf565b925050819055505b6000826000015411156135e0576135dd826040518060a001604052908160008201548152602001600182015481526020016002820160009054906101000a900460ff161515151581526020016002820160019054906101000a900460ff161515151581526020016003820154815250506131bb565b90505b6000851115613812576000600460009054906101000a900473ffffffffffffffffffffffffffffffffffffffff1673ffffffffffffffffffffffffffffffffffffffff166370a08231306040518263ffffffff1660e01b81526004016136469190614695565b60206040518083038186803b15801561365e57600080fd5b505afa158015613672573d6000803e3d6000fd5b505050506040513d601f19601f8201168201806040525081019061369691906143c7565b90506136e7333088600460009054906101000a900473ffffffffffffffffffffffffffffffffffffffff1673ffffffffffffffffffffffffffffffffffffffff16613a71909392919063ffffffff16565b600081600460009054906101000a900473ffffffffffffffffffffffffffffffffffffffff1673ffffffffffffffffffffffffffffffffffffffff166370a08231306040518263ffffffff1660e01b81526004016137459190614695565b60206040518083038186803b15801561375d57600080fd5b505afa158015613771573d6000803e3d6000fd5b505050506040513d601f19601f8201168201806040525081019061379591906143c7565b61379f9190614b90565b905080965085156137d5576137d2600a6137c46010548a6130e290919063ffffffff16565b61326490919063ffffffff16565b96505b6137ec87856000015461315d90919063ffffffff16565b84600001819055506138098760085461315d90919063ffffffff16565b60088190555050505b8380156138695750601360003373ffffffffffffffffffffffffffffffffffffffff1673ffffffffffffffffffffffffffffffffffffffff16815260200190815260200160002060009054906101000a900460ff16155b15613940576001601360003373ffffffffffffffffffffffffffffffffffffffff1673ffffffffffffffffffffffffffffffffffffffff16815260200190815260200160002060006101000a81548160ff021916908315150217905550600060158360030154815481106138e0576138df614dbd565b5b906000526020600020906003020190506040518060400160405280600681526020017f5374616b6564000000000000000000000000000000000000000000000000000081525081600201908051906020019061393d929190613fcb565b50505b831580156139985750601360003373ffffffffffffffffffffffffffffffffffffffff1673ffffffffffffffffffffffffffffffffffffffff16815260200190815260200160002060009054906101000a900460ff16155b156139b9576139b285600f5461315d90919063ffffffff16565b600f819055505b6139d28260010154600a5461333490919063ffffffff16565b600a819055506139f1600c5483600001546130e290919063ffffffff16565b8260010181905550613a128260010154600a5461315d90919063ffffffff16565b600a819055503373ffffffffffffffffffffffffffffffffffffffff167f6363655a3c7ace10eb7a32098436bd120788e6c01329bb863799624f11b575f3868386604051613a6293929190614971565b60405180910390a25050505050565b613af4846323b872dd60e01b858585604051602401613a92939291906146b0565b604051602081830303815290604052907bffffffffffffffffffffffffffffffffffffffffffffffffffffffff19166020820180517bffffffffffffffffffffffffffffffffffffffffffffffffffffffff8381831617835250505050613c6d565b50505050565b6000818310613b0c5760009050613b59565b6007548211613b2f57613b28838361333490919063ffffffff16565b9050613b59565b6007548310613b415760009050613b59565b613b568360075461333490919063ffffffff16565b90505b92915050565b6000600554421015613b745760009050613c07565b62fe5029613b8d6005544261333490919063ffffffff16565b1015613bcf57600060199050613bc7600f613bb9670de0b6b3a7640000846130e290919063ffffffff16565b61326490919063ffffffff16565b915050613c07565b6000600b9050613c03600f613bf5670de0b6b3a7640000846130e290919063ffffffff16565b61326490919063ffffffff16565b9150505b90565b60008083118290613c51576040517f08c379a0000000000000000000000000000000000000000000000000000000008152600401613c48919061478b565b60405180910390fd5b5060008385613c609190614b05565b9050809150509392505050565b6000613ccf826040518060400160405280602081526020017f5361666545524332303a206c6f772d6c6576656c2063616c6c206661696c65648152508573ffffffffffffffffffffffffffffffffffffffff16613d989092919063ffffffff16565b9050600081511115613d2f5780806020019051810190613cef9190614324565b613d2e576040517f08c379a0000000000000000000000000000000000000000000000000000000008152600401613d25906148cd565b60405180910390fd5b5b505050565b6000838311158290613d7c576040517f08c379a0000000000000000000000000000000000000000000000000000000008152600401613d73919061478b565b60405180910390fd5b5060008385613d8b9190614b90565b9050809150509392505050565b6060613da78484600085613db0565b90509392505050565b606082471015613df5576040517f08c379a0000000000000000000000000000000000000000000000000000000008152600401613dec9061484d565b60405180910390fd5b613dfe85613ec4565b613e3d576040517f08c379a0000000000000000000000000000000000000000000000000000000008152600401613e34906148ad565b60405180910390fd5b6000808673ffffffffffffffffffffffffffffffffffffffff168587604051613e66919061467e565b60006040518083038185875af1925050503d8060008114613ea3576040519150601f19603f3d011682016040523d82523d6000602084013e613ea8565b606091505b5091509150613eb8828286613ed7565b92505050949350505050565b600080823b905060008111915050919050565b60608315613ee757829050613f37565b600083511115613efa5782518084602001fd5b816040517f08c379a0000000000000000000000000000000000000000000000000000000008152600401613f2e919061478b565b60405180910390fd5b9392505050565b828054613f4a90614c84565b90600052602060002090601f016020900481019282613f6c5760008555613fba565b82601f10613f7d5780548555613fba565b82800160010185558215613fba57600052602060002091601f016020900482015b82811115613fb9578254825591600101919060010190613f9e565b5b509050613fc79190614051565b5090565b828054613fd790614c84565b90600052602060002090601f016020900481019282613ff95760008555614040565b82601f1061401257805160ff1916838001178555614040565b82800160010185558215614040579182015b8281111561403f578251825591602001919060010190614024565b5b50905061404d9190614051565b5090565b5b8082111561406a576000816000905550600101614052565b5090565b600061408161407c84614a20565b6149fb565b905080838252602082019050828560208602820111156140a4576140a3614e20565b5b60005b858110156140d457816140ba8882614120565b8452602084019350602083019250506001810190506140a7565b5050509392505050565b60006140f16140ec84614a4c565b6149fb565b90508281526020810184848401111561410d5761410c614e25565b5b614118848285614c42565b509392505050565b60008135905061412f8161513b565b92915050565b600082601f83011261414a57614149614e1b565b5b813561415a84826020860161406e565b91505092915050565b60008135905061417281615152565b92915050565b60008151905061418781615152565b92915050565b600082601f8301126141a2576141a1614e1b565b5b81356141b28482602086016140de565b91505092915050565b6000813590506141ca81615169565b92915050565b6000815190506141df81615169565b92915050565b6000602082840312156141fb576141fa614e2f565b5b600061420984828501614120565b91505092915050565b6000806040838503121561422957614228614e2f565b5b600061423785828601614120565b925050602061424885828601614163565b9150509250929050565b6000806040838503121561426957614268614e2f565b5b600061427785828601614120565b925050602083013567ffffffffffffffff81111561429857614297614e2a565b5b6142a48582860161418d565b9150509250929050565b6000602082840312156142c4576142c3614e2f565b5b600082013567ffffffffffffffff8111156142e2576142e1614e2a565b5b6142ee84828501614135565b91505092915050565b60006020828403121561430d5761430c614e2f565b5b600061431b84828501614163565b91505092915050565b60006020828403121561433a57614339614e2f565b5b600061434884828501614178565b91505092915050565b60006020828403121561436757614366614e2f565b5b600082013567ffffffffffffffff81111561438557614384614e2a565b5b6143918482850161418d565b91505092915050565b6000602082840312156143b0576143af614e2f565b5b60006143be848285016141bb565b91505092915050565b6000602082840312156143dd576143dc614e2f565b5b60006143eb848285016141d0565b91505092915050565b6000806040838503121561440b5761440a614e2f565b5b6000614419858286016141bb565b925050602061442a85828601614163565b9150509250929050565b61443d81614bc4565b82525050565b61444c81614bd6565b82525050565b600061445d82614a7d565b6144678185614a93565b9350614477818560208601614c51565b80840191505092915050565b61448c81614c0c565b82525050565b600061449d82614a88565b6144a78185614a9e565b93506144b7818560208601614c51565b6144c081614e34565b840191505092915050565b60006144d8604483614a9e565b91506144e382614e45565b606082019050919050565b60006144fb602683614a9e565b915061450682614eba565b604082019050919050565b600061451e602c83614a9e565b915061452982614f09565b604082019050919050565b6000614541601b83614a9e565b915061454c82614f58565b602082019050919050565b6000614564601a83614a9e565b915061456f82614f81565b602082019050919050565b6000614587602683614a9e565b915061459282614faa565b604082019050919050565b60006145aa602183614a9e565b91506145b582614ff9565b604082019050919050565b60006145cd602083614a9e565b91506145d882615048565b602082019050919050565b60006145f0601d83614a9e565b91506145fb82615071565b602082019050919050565b6000614613602a83614a9e565b915061461e8261509a565b604082019050919050565b6000614636601f83614a9e565b9150614641826150e9565b602082019050919050565b6000614659601283614a9e565b915061466482615112565b602082019050919050565b61467881614c02565b82525050565b600061468a8284614452565b915081905092915050565b60006020820190506146aa6000830184614434565b92915050565b60006060820190506146c56000830186614434565b6146d26020830185614434565b6146df604083018461466f565b949350505050565b60006060820190506146fc6000830186614434565b818103602083015261470e8185614492565b905081810360408301526147228184614492565b9050949350505050565b60006040820190506147416000830185614434565b61474e602083018461466f565b9392505050565b600060208201905061476a6000830184614443565b92915050565b60006020820190506147856000830184614483565b92915050565b600060208201905081810360008301526147a58184614492565b905092915050565b600060208201905081810360008301526147c6816144cb565b9050919050565b600060208201905081810360008301526147e6816144ee565b9050919050565b6000602082019050818103600083015261480681614511565b9050919050565b6000602082019050818103600083015261482681614534565b9050919050565b6000602082019050818103600083015261484681614557565b9050919050565b600060208201905081810360008301526148668161457a565b9050919050565b600060208201905081810360008301526148868161459d565b9050919050565b600060208201905081810360008301526148a6816145c0565b9050919050565b600060208201905081810360008301526148c6816145e3565b9050919050565b600060208201905081810360008301526148e681614606565b9050919050565b6000602082019050818103600083015261490681614629565b9050919050565b600060208201905081810360008301526149268161464c565b9050919050565b6000602082019050614942600083018461466f565b92915050565b600060408201905061495d600083018561466f565b61496a602083018461466f565b9392505050565b6000606082019050614986600083018661466f565b614993602083018561466f565b6149a06040830184614443565b949350505050565b600060a0820190506149bd600083018861466f565b6149ca602083018761466f565b6149d76040830186614443565b6149e46060830185614443565b6149f1608083018461466f565b9695505050505050565b6000614a05614a16565b9050614a118282614cb6565b919050565b6000604051905090565b600067ffffffffffffffff821115614a3b57614a3a614dec565b5b602082029050602081019050919050565b600067ffffffffffffffff821115614a6757614a66614dec565b5b614a7082614e34565b9050602081019050919050565b600081519050919050565b600081519050919050565b600081905092915050565b600082825260208201905092915050565b6000614aba82614c02565b9150614ac583614c02565b9250827fffffffffffffffffffffffffffffffffffffffffffffffffffffffffffffffff03821115614afa57614af9614d30565b5b828201905092915050565b6000614b1082614c02565b9150614b1b83614c02565b925082614b2b57614b2a614d5f565b5b828204905092915050565b6000614b4182614c02565b9150614b4c83614c02565b9250817fffffffffffffffffffffffffffffffffffffffffffffffffffffffffffffffff0483118215151615614b8557614b84614d30565b5b828202905092915050565b6000614b9b82614c02565b9150614ba683614c02565b925082821015614bb957614bb8614d30565b5b828203905092915050565b6000614bcf82614be2565b9050919050565b60008115159050919050565b600073ffffffffffffffffffffffffffffffffffffffff82169050919050565b6000819050919050565b6000614c1782614c1e565b9050919050565b6000614c2982614c30565b9050919050565b6000614c3b82614be2565b9050919050565b82818337600083830152505050565b60005b83811015614c6f578082015181840152602081019050614c54565b83811115614c7e576000848401525b50505050565b60006002820490506001821680614c9c57607f821691505b60208210811415614cb057614caf614d8e565b5b50919050565b614cbf82614e34565b810181811067ffffffffffffffff82111715614cde57614cdd614dec565b5b80604052505050565b6000614cf282614c02565b91507fffffffffffffffffffffffffffffffffffffffffffffffffffffffffffffffff821415614d2557614d24614d30565b5b600182019050919050565b7f4e487b7100000000000000000000000000000000000000000000000000000000600052601160045260246000fd5b7f4e487b7100000000000000000000000000000000000000000000000000000000600052601260045260246000fd5b7f4e487b7100000000000000000000000000000000000000000000000000000000600052602260045260246000fd5b7f4e487b7100000000000000000000000000000000000000000000000000000000600052603260045260246000fd5b7f4e487b7100000000000000000000000000000000000000000000000000000000600052604160045260246000fd5b600080fd5b600080fd5b600080fd5b600080fd5b600080fd5b6000601f19601f8301169050919050565b7f596f7520617265206e6f742061626c6520746f207374616b65206e6f772c207060008201527f6c65617365206d616b652061207265717565737420746f2062652076616c696460208201527f61746f7200000000000000000000000000000000000000000000000000000000604082015250565b7f4f776e61626c653a206e6577206f776e657220697320746865207a65726f206160008201527f6464726573730000000000000000000000000000000000000000000000000000602082015250565b7f4d696e696d756d20616d6f756e7420746f207374616b6520636f6e646974696f60008201527f6e206973206e6f74206d65740000000000000000000000000000000000000000602082015250565b7f536166654d6174683a206164646974696f6e206f766572666c6f770000000000600082015250565b7f596f75722062616c616e6365206973206e6f7420656e6f756768000000000000600082015250565b7f416464726573733a20696e73756666696369656e742062616c616e636520666f60008201527f722063616c6c0000000000000000000000000000000000000000000000000000602082015250565b7f536166654d6174683a206d756c7469706c69636174696f6e206f766572666c6f60008201527f7700000000000000000000000000000000000000000000000000000000000000602082015250565b7f4f776e61626c653a2063616c6c6572206973206e6f7420746865206f776e6572600082015250565b7f416464726573733a2063616c6c20746f206e6f6e2d636f6e7472616374000000600082015250565b7f5361666545524332303a204552433230206f7065726174696f6e20646964206e60008201527f6f74207375636365656400000000000000000000000000000000000000000000602082015250565b7f5265656e7472616e637947756172643a207265656e7472616e742063616c6c00600082015250565b7f416c6c6f772061667465722066696e6973680000000000000000000000000000600082015250565b61514481614bc4565b811461514f57600080fd5b50565b61515b81614bd6565b811461516657600080fd5b50565b61517281614c02565b811461517d57600080fd5b5056fea2646970667358221220c7c26c0eed1574f71c4aaf08499853a7dbd5c95ee9306bd91fe841497796671f64736f6c63430008070033",
  "immutableReferences": {},
  "source": "// SPDX-License-Identifier: MIT\r\n//pragma solidity 0.6.12;\r\n\r\npragma solidity 0.8.7;\r\n/**\r\n * @dev Collection of functions related to the address type\r\n */\r\nlibrary Address {\r\n    /**\r\n     * @dev Returns true if `account` is a contract.\r\n     *\r\n     * [IMPORTANT]\r\n     * ====\r\n     * It is unsafe to assume that an address for which this function returns\r\n     * false is an externally-owned account (EOA) and not a contract.\r\n     *\r\n     * Among others, `isContract` will return false for the following\r\n     * types of addresses:\r\n     *\r\n     *  - an externally-owned account\r\n     *  - a contract in construction\r\n     *  - an address where a contract will be created\r\n     *  - an address where a contract lived, but was destroyed\r\n     * ====\r\n     */\r\n    function isContract(address account) internal view returns (bool) {\r\n        // This method relies on extcodesize, which returns 0 for contracts in\r\n        // construction, since the code is only stored at the end of the\r\n        // constructor execution.\r\n\r\n        uint256 size;\r\n        // solhint-disable-next-line no-inline-assembly\r\n        assembly { size := extcodesize(account) }\r\n        return size > 0;\r\n    }\r\n\r\n    /**\r\n     * @dev Replacement for Solidity's `transfer`: sends `amount` wei to\r\n     * `recipient`, forwarding all available gas and reverting on errors.\r\n     *\r\n     * https://eips.ethereum.org/EIPS/eip-1884[EIP1884] increases the gas cost\r\n     * of certain opcodes, possibly making contracts go over the 2300 gas limit\r\n     * imposed by `transfer`, making them unable to receive funds via\r\n     * `transfer`. {sendValue} removes this limitation.\r\n     *\r\n     * https://diligence.consensys.net/posts/2019/09/stop-using-soliditys-transfer-now/[Learn more].\r\n     *\r\n     * IMPORTANT: because control is transferred to `recipient`, care must be\r\n     * taken to not create reentrancy vulnerabilities. Consider using\r\n     * {ReentrancyGuard} or the\r\n     * https://solidity.readthedocs.io/en/v0.5.11/security-considerations.html#use-the-checks-effects-interactions-pattern[checks-effects-interactions pattern].\r\n     */\r\n    function sendValue(address payable recipient, uint256 amount) internal {\r\n        require(address(this).balance >= amount, \"Address: insufficient balance\");\r\n\r\n        // solhint-disable-next-line avoid-low-level-calls, avoid-call-value\r\n        (bool success, ) = recipient.call{ value: amount }(\"\");\r\n        require(success, \"Address: unable to send value, recipient may have reverted\");\r\n    }\r\n\r\n    /**\r\n     * @dev Performs a Solidity function call using a low level `call`. A\r\n     * plain`call` is an unsafe replacement for a function call: use this\r\n     * function instead.\r\n     *\r\n     * If `target` reverts with a revert reason, it is bubbled up by this\r\n     * function (like regular Solidity function calls).\r\n     *\r\n     * Returns the raw returned data. To convert to the expected return value,\r\n     * use https://solidity.readthedocs.io/en/latest/units-and-global-variables.html?highlight=abi.decode#abi-encoding-and-decoding-functions[`abi.decode`].\r\n     *\r\n     * Requirements:\r\n     *\r\n     * - `target` must be a contract.\r\n     * - calling `target` with `data` must not revert.\r\n     *\r\n     * _Available since v3.1._\r\n     */\r\n    function functionCall(address target, bytes memory data) internal returns (bytes memory) {\r\n      return functionCall(target, data, \"Address: low-level call failed\");\r\n    }\r\n\r\n    /**\r\n     * @dev Same as {xref-Address-functionCall-address-bytes-}[`functionCall`], but with\r\n     * `errorMessage` as a fallback revert reason when `target` reverts.\r\n     *\r\n     * _Available since v3.1._\r\n     */\r\n    function functionCall(address target, bytes memory data, string memory errorMessage) internal returns (bytes memory) {\r\n        return functionCallWithValue(target, data, 0, errorMessage);\r\n    }\r\n\r\n    /**\r\n     * @dev Same as {xref-Address-functionCall-address-bytes-}[`functionCall`],\r\n     * but also transferring `value` wei to `target`.\r\n     *\r\n     * Requirements:\r\n     *\r\n     * - the calling contract must have an ETH balance of at least `value`.\r\n     * - the called Solidity function must be `payable`.\r\n     *\r\n     * _Available since v3.1._\r\n     */\r\n    function functionCallWithValue(address target, bytes memory data, uint256 value) internal returns (bytes memory) {\r\n        return functionCallWithValue(target, data, value, \"Address: low-level call with value failed\");\r\n    }\r\n\r\n    /**\r\n     * @dev Same as {xref-Address-functionCallWithValue-address-bytes-uint256-}[`functionCallWithValue`], but\r\n     * with `errorMessage` as a fallback revert reason when `target` reverts.\r\n     *\r\n     * _Available since v3.1._\r\n     */\r\n    function functionCallWithValue(address target, bytes memory data, uint256 value, string memory errorMessage) internal returns (bytes memory) {\r\n        require(address(this).balance >= value, \"Address: insufficient balance for call\");\r\n        require(isContract(target), \"Address: call to non-contract\");\r\n\r\n        // solhint-disable-next-line avoid-low-level-calls\r\n        (bool success, bytes memory returndata) = target.call{ value: value }(data);\r\n        return _verifyCallResult(success, returndata, errorMessage);\r\n    }\r\n\r\n    /**\r\n     * @dev Same as {xref-Address-functionCall-address-bytes-}[`functionCall`],\r\n     * but performing a static call.\r\n     *\r\n     * _Available since v3.3._\r\n     */\r\n    function functionStaticCall(address target, bytes memory data) internal view returns (bytes memory) {\r\n        return functionStaticCall(target, data, \"Address: low-level static call failed\");\r\n    }\r\n\r\n    /**\r\n     * @dev Same as {xref-Address-functionCall-address-bytes-string-}[`functionCall`],\r\n     * but performing a static call.\r\n     *\r\n     * _Available since v3.3._\r\n     */\r\n    function functionStaticCall(address target, bytes memory data, string memory errorMessage) internal view returns (bytes memory) {\r\n        require(isContract(target), \"Address: static call to non-contract\");\r\n\r\n        // solhint-disable-next-line avoid-low-level-calls\r\n        (bool success, bytes memory returndata) = target.staticcall(data);\r\n        return _verifyCallResult(success, returndata, errorMessage);\r\n    }\r\n\r\n    function _verifyCallResult(bool success, bytes memory returndata, string memory errorMessage) private pure returns(bytes memory) {\r\n        if (success) {\r\n            return returndata;\r\n        } else {\r\n            // Look for revert reason and bubble it up if present\r\n            if (returndata.length > 0) {\r\n                // The easiest way to bubble the revert reason is using memory via assembly\r\n\r\n                // solhint-disable-next-line no-inline-assembly\r\n                assembly {\r\n                    let returndata_size := mload(returndata)\r\n                    revert(add(32, returndata), returndata_size)\r\n                }\r\n            } else {\r\n                revert(errorMessage);\r\n            }\r\n        }\r\n    }\r\n}\r\n\r\n/*\r\n * @dev Provides information about the current execution context, including the\r\n * sender of the transaction and its data. While these are generally available\r\n * via msg.sender and msg.data, they should not be accessed in such a direct\r\n * manner, since when dealing with GSN meta-transactions the account sending and\r\n * paying for execution may not be the actual sender (as far as an application\r\n * is concerned).\r\n *\r\n * This contract is only required for intermediate, library-like contracts.\r\n */\r\n\r\n/**\r\n * @dev Contract module which provides a basic access control mechanism, where\r\n * there is an account (an owner) that can be granted exclusive access to\r\n * specific functions.\r\n *\r\n * By default, the owner account will be the one that deploys the contract. This\r\n * can later be changed with {transferOwnership}.\r\n *\r\n * This module is used through inheritance. It will make available the modifier\r\n * `onlyOwner`, which can be applied to your functions to restrict their use to\r\n * the owner.\r\n */\r\nabstract contract Ownable  {\r\n    address private _owner;\r\n\r\n    event OwnershipTransferred(address indexed previousOwner, address indexed newOwner);\r\n\r\n    /**\r\n     * @dev Initializes the contract setting the deployer as the initial owner.\r\n     */\r\n    constructor () internal {\r\n        address msgSender = msg.sender;\r\n        _owner = msgSender;\r\n        emit OwnershipTransferred(address(0), msgSender);\r\n    }\r\n\r\n    /**\r\n     * @dev Returns the address of the current owner.\r\n     */\r\n    function owner() public view returns (address) {\r\n        return _owner;\r\n    }\r\n\r\n    /**\r\n     * @dev Throws if called by any account other than the owner.\r\n     */\r\n    modifier onlyOwner() {\r\n        require(_owner == msg.sender, \"Ownable: caller is not the owner\");\r\n        _;\r\n    }\r\n\r\n    /**\r\n     * @dev Leaves the contract without owner. It will not be possible to call\r\n     * `onlyOwner` functions anymore. Can only be called by the current owner.\r\n     *\r\n     * NOTE: Renouncing ownership will leave the contract without an owner,\r\n     * thereby removing any functionality that is only available to the owner.\r\n     */\r\n    function renounceOwnership() public virtual onlyOwner {\r\n        emit OwnershipTransferred(_owner, address(0));\r\n        _owner = address(0);\r\n    }\r\n\r\n    /**\r\n     * @dev Transfers ownership of the contract to a new account (`newOwner`).\r\n     * Can only be called by the current owner.\r\n     */\r\n    function transferOwnership(address newOwner) public virtual onlyOwner {\r\n        require(newOwner != address(0), \"Ownable: new owner is the zero address\");\r\n        emit OwnershipTransferred(_owner, newOwner);\r\n        _owner = newOwner;\r\n    }\r\n}\r\n\r\n\r\n/**\r\n * @dev Contract module that helps prevent reentrant calls to a function.\r\n *\r\n * Inheriting from `ReentrancyGuard` will make the {nonReentrant} modifier\r\n * available, which can be applied to functions to make sure there are no nested\r\n * (reentrant) calls to them.\r\n *\r\n * Note that because there is a single `nonReentrant` guard, functions marked as\r\n * `nonReentrant` may not call one another. This can be worked around by making\r\n * those functions `private`, and then adding `external` `nonReentrant` entry\r\n * points to them.\r\n *\r\n * TIP: If you would like to learn more about reentrancy and alternative ways\r\n * to protect against it, check out our blog post\r\n * https://blog.openzeppelin.com/reentrancy-after-istanbul/[Reentrancy After Istanbul].\r\n */\r\nabstract contract ReentrancyGuard {\r\n    // Booleans are more expensive than uint256 or any type that takes up a full\r\n    // word because each write operation emits an extra SLOAD to first read the\r\n    // slot's contents, replace the bits taken up by the boolean, and then write\r\n    // back. This is the compiler's defense against contract upgrades and\r\n    // pointer aliasing, and it cannot be disabled.\r\n\r\n    // The values being non-zero value makes deployment a bit more expensive,\r\n    // but in exchange the refund on every call to nonReentrant will be lower in\r\n    // amount. Since refunds are capped to a percentage of the total\r\n    // transaction's gas, it is best to keep them low in cases like this one, to\r\n    // increase the likelihood of the full refund coming into effect.\r\n    uint256 private constant _NOT_ENTERED = 1;\r\n    uint256 private constant _ENTERED = 2;\r\n\r\n    uint256 private _status;\r\n\r\n    constructor () internal {\r\n        _status = _NOT_ENTERED;\r\n    }\r\n\r\n    /**\r\n     * @dev Prevents a contract from calling itself, directly or indirectly.\r\n     * Calling a `nonReentrant` function from another `nonReentrant`\r\n     * function is not supported. It is possible to prevent this from happening\r\n     * by making the `nonReentrant` function external, and make it call a\r\n     * `private` function that does the actual work.\r\n     */\r\n    modifier nonReentrant() {\r\n        // On the first call to nonReentrant, _notEntered will be true\r\n        require(_status != _ENTERED, \"ReentrancyGuard: reentrant call\");\r\n\r\n        // Any calls to nonReentrant after this point will fail\r\n        _status = _ENTERED;\r\n\r\n        _;\r\n\r\n        // By storing the original value once again, a refund is triggered (see\r\n        // https://eips.ethereum.org/EIPS/eip-2200)\r\n        _status = _NOT_ENTERED;\r\n    }\r\n}\r\n\r\n\r\n/**\r\n * @dev Wrappers over Solidity's arithmetic operations with added overflow\r\n * checks.\r\n *\r\n * Arithmetic operations in Solidity wrap on overflow. This can easily result\r\n * in bugs, because programmers usually assume that an overflow raises an\r\n * error, which is the standard behavior in high level programming languages.\r\n * `SafeMath` restores this intuition by reverting the transaction when an\r\n * operation overflows.\r\n *\r\n * Using this library instead of the unchecked operations eliminates an entire\r\n * class of bugs, so it's recommended to use it always.\r\n */\r\nlibrary SafeMath {\r\n    /**\r\n     * @dev Returns the addition of two unsigned integers, reverting on\r\n     * overflow.\r\n     *\r\n     * Counterpart to Solidity's `+` operator.\r\n     *\r\n     * Requirements:\r\n     *\r\n     * - Addition cannot overflow.\r\n     */\r\n    function add(uint256 a, uint256 b) internal pure returns (uint256) {\r\n        uint256 c = a + b;\r\n        require(c >= a, \"SafeMath: addition overflow\");\r\n\r\n        return c;\r\n    }\r\n\r\n    /**\r\n     * @dev Returns the subtraction of two unsigned integers, reverting on\r\n     * overflow (when the result is negative).\r\n     *\r\n     * Counterpart to Solidity's `-` operator.\r\n     *\r\n     * Requirements:\r\n     *\r\n     * - Subtraction cannot overflow.\r\n     */\r\n    function sub(uint256 a, uint256 b) internal pure returns (uint256) {\r\n        return sub(a, b, \"SafeMath: subtraction overflow\");\r\n    }\r\n\r\n    /**\r\n     * @dev Returns the subtraction of two unsigned integers, reverting with custom message on\r\n     * overflow (when the result is negative).\r\n     *\r\n     * Counterpart to Solidity's `-` operator.\r\n     *\r\n     * Requirements:\r\n     *\r\n     * - Subtraction cannot overflow.\r\n     */\r\n    function sub(uint256 a, uint256 b, string memory errorMessage) internal pure returns (uint256) {\r\n        require(b <= a, errorMessage);\r\n        uint256 c = a - b;\r\n\r\n        return c;\r\n    }\r\n\r\n    /**\r\n     * @dev Returns the multiplication of two unsigned integers, reverting on\r\n     * overflow.\r\n     *\r\n     * Counterpart to Solidity's `*` operator.\r\n     *\r\n     * Requirements:\r\n     *\r\n     * - Multiplication cannot overflow.\r\n     */\r\n    function mul(uint256 a, uint256 b) internal pure returns (uint256) {\r\n        // Gas optimization: this is cheaper than requiring 'a' not being zero, but the\r\n        // benefit is lost if 'b' is also tested.\r\n        // See: https://github.com/OpenZeppelin/openzeppelin-contracts/pull/522\r\n        if (a == 0) {\r\n            return 0;\r\n        }\r\n\r\n        uint256 c = a * b;\r\n        require(c / a == b, \"SafeMath: multiplication overflow\");\r\n\r\n        return c;\r\n    }\r\n\r\n    /**\r\n     * @dev Returns the integer division of two unsigned integers. Reverts on\r\n     * division by zero. The result is rounded towards zero.\r\n     *\r\n     * Counterpart to Solidity's `/` operator. Note: this function uses a\r\n     * `revert` opcode (which leaves remaining gas untouched) while Solidity\r\n     * uses an invalid opcode to revert (consuming all remaining gas).\r\n     *\r\n     * Requirements:\r\n     *\r\n     * - The divisor cannot be zero.\r\n     */\r\n    function div(uint256 a, uint256 b) internal pure returns (uint256) {\r\n        return div(a, b, \"SafeMath: division by zero\");\r\n    }\r\n\r\n    /**\r\n     * @dev Returns the integer division of two unsigned integers. Reverts with custom message on\r\n     * division by zero. The result is rounded towards zero.\r\n     *\r\n     * Counterpart to Solidity's `/` operator. Note: this function uses a\r\n     * `revert` opcode (which leaves remaining gas untouched) while Solidity\r\n     * uses an invalid opcode to revert (consuming all remaining gas).\r\n     *\r\n     * Requirements:\r\n     *\r\n     * - The divisor cannot be zero.\r\n     */\r\n    function div(uint256 a, uint256 b, string memory errorMessage) internal pure returns (uint256) {\r\n        require(b > 0, errorMessage);\r\n        uint256 c = a / b;\r\n        // assert(a == b * c + a % b); // There is no case in which this doesn't hold\r\n\r\n        return c;\r\n    }\r\n\r\n    /**\r\n     * @dev Returns the remainder of dividing two unsigned integers. (unsigned integer modulo),\r\n     * Reverts when dividing by zero.\r\n     *\r\n     * Counterpart to Solidity's `%` operator. This function uses a `revert`\r\n     * opcode (which leaves remaining gas untouched) while Solidity uses an\r\n     * invalid opcode to revert (consuming all remaining gas).\r\n     *\r\n     * Requirements:\r\n     *\r\n     * - The divisor cannot be zero.\r\n     */\r\n    function mod(uint256 a, uint256 b) internal pure returns (uint256) {\r\n        return mod(a, b, \"SafeMath: modulo by zero\");\r\n    }\r\n\r\n    /**\r\n     * @dev Returns the remainder of dividing two unsigned integers. (unsigned integer modulo),\r\n     * Reverts with custom message when dividing by zero.\r\n     *\r\n     * Counterpart to Solidity's `%` operator. This function uses a `revert`\r\n     * opcode (which leaves remaining gas untouched) while Solidity uses an\r\n     * invalid opcode to revert (consuming all remaining gas).\r\n     *\r\n     * Requirements:\r\n     *\r\n     * - The divisor cannot be zero.\r\n     */\r\n    function mod(uint256 a, uint256 b, string memory errorMessage) internal pure returns (uint256) {\r\n        require(b != 0, errorMessage);\r\n        return a % b;\r\n    }\r\n}\r\n\r\n/**\r\n * @dev Interface of the ERC20 standard as defined in the EIP.\r\n */\r\ninterface IERC20 {\r\n    /**\r\n     * @dev Returns the amount of tokens in existence.\r\n     */\r\n    function totalSupply() external view returns (uint256);\r\n\r\n    /**\r\n     * @dev Returns the amount of tokens owned by `account`.\r\n     */\r\n    function balanceOf(address account) external view returns (uint256);\r\n\r\n    /**\r\n     * @dev Moves `amount` tokens from the caller's account to `recipient`.\r\n     *\r\n     * Returns a boolean value indicating whether the operation succeeded.\r\n     *\r\n     * Emits a {Transfer} event.\r\n     */\r\n    function transfer(address recipient, uint256 amount) external returns (bool);\r\n\r\n    /**\r\n     * @dev Returns the remaining number of tokens that `spender` will be\r\n     * allowed to spend on behalf of `owner` through {transferFrom}. This is\r\n     * zero by default.\r\n     *\r\n     * This value changes when {approve} or {transferFrom} are called.\r\n     */\r\n    function allowance(address owner, address spender) external view returns (uint256);\r\n\r\n    /**\r\n     * @dev Sets `amount` as the allowance of `spender` over the caller's tokens.\r\n     *\r\n     * Returns a boolean value indicating whether the operation succeeded.\r\n     *\r\n     * IMPORTANT: Beware that changing an allowance with this method brings the risk\r\n     * that someone may use both the old and the new allowance by unfortunate\r\n     * transaction ordering. One possible solution to mitigate this race\r\n     * condition is to first reduce the spender's allowance to 0 and set the\r\n     * desired value afterwards:\r\n     * https://github.com/ethereum/EIPs/issues/20#issuecomment-263524729\r\n     *\r\n     * Emits an {Approval} event.\r\n     */\r\n    function approve(address spender, uint256 amount) external returns (bool);\r\n\r\n    /**\r\n     * @dev Moves `amount` tokens from `sender` to `recipient` using the\r\n     * allowance mechanism. `amount` is then deducted from the caller's\r\n     * allowance.\r\n     *\r\n     * Returns a boolean value indicating whether the operation succeeded.\r\n     *\r\n     * Emits a {Transfer} event.\r\n     */\r\n    function transferFrom(address sender, address recipient, uint256 amount) external returns (bool);\r\n\r\n    /**\r\n     * @dev Emitted when `value` tokens are moved from one account (`from`) to\r\n     * another (`to`).\r\n     *\r\n     * Note that `value` may be zero.\r\n     */\r\n    event Transfer(address indexed from, address indexed to, uint256 value);\r\n\r\n    /**\r\n     * @dev Emitted when the allowance of a `spender` for an `owner` is set by\r\n     * a call to {approve}. `value` is the new allowance.\r\n     */\r\n    event Approval(address indexed owner, address indexed spender, uint256 value);\r\n}\r\n\r\n/**\r\n * @title SafeERC20\r\n * @dev Wrappers around ERC20 operations that throw on failure (when the token\r\n * contract returns false). Tokens that return no value (and instead revert or\r\n * throw on failure) are also supported, non-reverting calls are assumed to be\r\n * successful.\r\n * To use this library you can add a `using SafeERC20 for IERC20;` statement to your contract,\r\n * which allows you to call the safe operations as `token.safeTransfer(...)`, etc.\r\n */\r\nlibrary SafeERC20 {\r\n    using SafeMath for uint256;\r\n    using Address for address;\r\n\r\n    function safeTransfer(IERC20 token, address to, uint256 value) internal {\r\n        _callOptionalReturn(token, abi.encodeWithSelector(token.transfer.selector, to, value));\r\n    }\r\n\r\n    function safeTransferFrom(IERC20 token, address from, address to, uint256 value) internal {\r\n        _callOptionalReturn(token, abi.encodeWithSelector(token.transferFrom.selector, from, to, value));\r\n    }\r\n\r\n    /**\r\n     * @dev Deprecated. This function has issues similar to the ones found in\r\n     * {IERC20-approve}, and its usage is discouraged.\r\n     *\r\n     * Whenever possible, use {safeIncreaseAllowance} and\r\n     * {safeDecreaseAllowance} instead.\r\n     */\r\n    function safeApprove(IERC20 token, address spender, uint256 value) internal {\r\n        // safeApprove should only be called when setting an initial allowance,\r\n        // or when resetting it to zero. To increase and decrease it, use\r\n        // 'safeIncreaseAllowance' and 'safeDecreaseAllowance'\r\n        // solhint-disable-next-line max-line-length\r\n        require((value == 0) || (token.allowance(address(this), spender) == 0),\r\n            \"SafeERC20: approve from non-zero to non-zero allowance\"\r\n        );\r\n        _callOptionalReturn(token, abi.encodeWithSelector(token.approve.selector, spender, value));\r\n    }\r\n\r\n    function safeIncreaseAllowance(IERC20 token, address spender, uint256 value) internal {\r\n        uint256 newAllowance = token.allowance(address(this), spender).add(value);\r\n        _callOptionalReturn(token, abi.encodeWithSelector(token.approve.selector, spender, newAllowance));\r\n    }\r\n\r\n    function safeDecreaseAllowance(IERC20 token, address spender, uint256 value) internal {\r\n        uint256 newAllowance = token.allowance(address(this), spender).sub(value, \"SafeERC20: decreased allowance below zero\");\r\n        _callOptionalReturn(token, abi.encodeWithSelector(token.approve.selector, spender, newAllowance));\r\n    }\r\n\r\n    /**\r\n     * @dev Imitates a Solidity high-level call (i.e. a regular function call to a contract), relaxing the requirement\r\n     * on the return value: the return value is optional (but if data is returned, it must not be false).\r\n     * @param token The token targeted by the call.\r\n     * @param data The call data (encoded using abi.encode or one of its variants).\r\n     */\r\n    function _callOptionalReturn(IERC20 token, bytes memory data) private {\r\n        // We need to perform a low level call here, to bypass Solidity's return data size checking mechanism, since\r\n        // we're implementing it ourselves. We use {Address.functionCall} to perform this call, which verifies that\r\n        // the target address contains contract code and also asserts for success in the low-level call.\r\n\r\n        bytes memory returndata = address(token).functionCall(data, \"SafeERC20: low-level call failed\");\r\n        if (returndata.length > 0) { // Return data is optional\r\n            // solhint-disable-next-line max-line-length\r\n            require(abi.decode(returndata, (bool)), \"SafeERC20: ERC20 operation did not succeed\");\r\n        }\r\n    }\r\n}\r\n\r\ncontract Whitelist is Ownable {\r\n\r\n    mapping(address => bool) public whitelist;\r\n    //Gas optimization\r\n    // address[] public whitelistedAddresses;\r\n    bool public hasWhitelisting = false;\r\n\r\n    event AddedToWhitelist(address account);\r\n    event RemovedFromWhitelist(address account);\r\n\r\n    modifier onlyWhitelisted() {\r\n        if(hasWhitelisting){\r\n            require(isWhitelisted(msg.sender));\r\n        }\r\n        _;\r\n    }\r\n    \r\n    constructor (bool _hasWhitelisting) public{\r\n        hasWhitelisting = _hasWhitelisting;\r\n    }\r\n\r\n    function add(address[] memory _addresses) public onlyOwner {\r\n        for (uint i = 0; i < _addresses.length; i++) {\r\n            // require(whitelist[_addresses[i]] != true);\r\n            whitelist[_addresses[i]] = true;\r\n            // whitelistedAddresses.push(_addresses[i]);\r\n            emit AddedToWhitelist(_addresses[i]);\r\n        }\r\n    }\r\n\r\n    function remove(address[] memory _addresses) public onlyOwner {\r\n        for (uint i = 0; i < _addresses.length; i++) {\r\n            address uAddress = _addresses[i];\r\n            if(whitelist[uAddress]){\r\n                whitelist[uAddress] = false;\r\n                emit RemovedFromWhitelist(uAddress);\r\n            }\r\n        }\r\n    }\r\n\r\n    // function getWhitelistedAddresses() public view returns(address[] memory) {\r\n    //     return whitelistedAddresses;\r\n    // } \r\n\r\n    function isWhitelisted(address _address) public view returns(bool) {\r\n        return whitelist[_address];\r\n    }\r\n}\r\n\r\ncontract StakingPool is Ownable, Whitelist, ReentrancyGuard {\r\n    using SafeMath for uint256;\r\n    using SafeERC20 for IERC20;\r\n\r\n    IERC20 public stakingToken;    \r\n    uint256 public startTime;\r\n    uint256 public lastRewardTime;\r\n    uint256 public finishTime;\r\n    uint256 public allStakedAmount;\r\n    uint256 public allPaidReward;\r\n    uint256 public allRewardDebt;\r\n    uint256 public poolTokenAmount;\r\n    uint256 public accTokensPerShare; // Accumulated tokens per share\r\n    uint256 public participants; //Count of participants\r\n    uint256 public minAmountStake;\r\n    uint256 public sharedWalletStakedAmount;\r\n    uint256 public validatorBonusMultiplier=15;\r\n    // Info of each user.\r\n    struct UserInfo {\r\n        uint256 amount;     // How many tokens the user has staked.\r\n        uint256 rewardDebt; // Reward debt\r\n        bool registrated;\r\n        bool maderequest;\r\n        uint256 index;\r\n    }\r\n    address public sharedWallet;\r\n    mapping (address => UserInfo) public userInfo;\r\n    mapping (address => bool) public isValidator;\r\n    mapping (address => bool) public canStake;\r\n    \r\n\r\n    event PoolReplenished(uint256 amount);\r\n    event TokensStaked(address indexed user, uint256 amount, uint256 reward, bool reinvest);\r\n    event StakeWithdrawn(address indexed user, uint256 amount, uint256 reward);\r\n    event EmergencyWithdraw(address indexed user, uint256 amount);\r\n\r\n    event WithdrawPoolRemainder(address indexed user, uint256 amount);\r\n    event UpdateFinishTime(uint256 addedTokenAmount, uint256 newFinishTime);\r\n    event HasWhitelistingUpdated(bool newValue);\r\n\r\n    constructor(\r\n        IERC20 _stakingToken,\r\n        uint256 _startTime,\r\n        uint256 _finishTime,\r\n        uint256 _poolTokenAmount,\r\n        //bool _hasWhitelisting,\r\n        uint256 _minAmountStake\r\n        //address _sharedWallet\r\n    ) public Whitelist(false) {\r\n        stakingToken = _stakingToken;\r\n        \r\n        minAmountStake = _minAmountStake.mul(1e2);\r\n        startTime = block.timestamp.add(_startTime);        \r\n        lastRewardTime = startTime;\r\n        finishTime = block.timestamp.add(_finishTime);        \r\n        poolTokenAmount = _poolTokenAmount;\r\n        //sharedWallet = _sharedWallet;\r\n        require(startTime < finishTime, \"Start must be less than finish\");\r\n        require(startTime > block.timestamp, \"Start must be more than now\");\r\n\r\n    }\r\n    struct ValidatorInfo {\r\n        address user;     // How many tokens the user has staked.\r\n        string enodeAdress; // Reward debt\r\n        string status;\r\n    }\r\n    ValidatorInfo[] public validators;\r\n\r\n    function addRequest(string memory _enodeAdress) public {       \r\n        UserInfo storage user = userInfo[msg.sender];\r\n        require(!user.maderequest);\r\n        validators.push(ValidatorInfo(msg.sender,_enodeAdress,\"pending\"));\r\n        user.maderequest=true;\r\n        user.index=validators.length-1;\r\n    }\r\n    function defineValidator(address _user, bool value) external onlyOwner{\r\n        canStake[_user]=value;\r\n        UserInfo storage user = userInfo[_user];        \r\n        ValidatorInfo storage validator = validators[user.index];\r\n        if(value){\r\n            validator.status = \"approved\";\r\n        }else{\r\n            validator.status = \"denied\";\r\n        }\r\n        \r\n    }\r\n    function changeStatus(address _user, string memory _status) public onlyOwner {\r\n        UserInfo storage user = userInfo[_user];        \r\n        ValidatorInfo storage validator = validators[user.index];\r\n        validator.status = _status;\r\n    }\r\n    function getRequestsLength() public view returns(uint256) {\r\n        return validators.length;\r\n    }\r\n    function deleteRequest(address _user) public onlyOwner {        \r\n        UserInfo storage user = userInfo[_user];               \r\n        ValidatorInfo storage lastvalidator = validators[validators.length-1];\r\n        validators[user.index] = lastvalidator;\r\n        UserInfo storage lastValidatorUser = userInfo[lastvalidator.user]; \r\n        lastValidatorUser.index = user.index;\r\n        user.index=0;        \r\n    }\r\n\r\n    // in wei\r\n    function rewardPerSec() internal view returns (uint256)\r\n    {\r\n        \r\n        if(block.timestamp<startTime){\r\n            return 0;\r\n        }else if(block.timestamp.sub(startTime)<1111111*15){\r\n            uint256 tempRPS = 25;\r\n            return tempRPS.mul(1e18).div(15);\r\n        }else{\r\n            uint256 tempRPS = 11;\r\n            return tempRPS.mul(1e18).div(15);\r\n        }\r\n    }\r\n\r\n    function getUserInfo(address user)\r\n        external\r\n        view\r\n        returns (uint256, uint256)\r\n    {\r\n        UserInfo memory info = userInfo[user];\r\n        return (info.amount, info.rewardDebt);\r\n    }\r\n    \r\n    function getMultiplier(uint256 _from, uint256 _to)\r\n        internal\r\n        view\r\n        returns (uint256)\r\n    {\r\n        if (_from >= _to) {\r\n          return 0;\r\n        }\r\n        if (_to <= finishTime) {\r\n            return _to.sub(_from);\r\n        } else if (_from >= finishTime) {\r\n            return 0;\r\n        } else {\r\n            return finishTime.sub(_from);\r\n        }\r\n    }\r\n\r\n    // View function to see pending Reward on frontend.\r\n    function pendingReward(address _user) external view returns (uint256) {\r\n        UserInfo storage user = userInfo[_user];\r\n        uint256 tempAccTokensPerShare = accTokensPerShare;\r\n        if (block.timestamp > lastRewardTime && allStakedAmount != 0) {\r\n            uint256 multiplier = getMultiplier(lastRewardTime, block.timestamp);\r\n            uint256 reward = multiplier.mul(rewardPerSec());\r\n            tempAccTokensPerShare = accTokensPerShare.add(\r\n                reward.div(allStakedAmount)\r\n            );\r\n        }\r\n        return user.amount.mul(tempAccTokensPerShare).sub(user.rewardDebt);\r\n    }\r\n\r\n    // Update reward variables of the given pool to be up-to-date.\r\n    function updatePool() public {\r\n        if (block.timestamp <= lastRewardTime) {\r\n            return;\r\n        }\r\n        if (allStakedAmount == 0) {\r\n            lastRewardTime = block.timestamp;\r\n            return;\r\n        }\r\n\r\n        uint256 multiplier = getMultiplier(lastRewardTime, block.timestamp);\r\n        uint256 reward = multiplier.mul(rewardPerSec());\r\n        accTokensPerShare = accTokensPerShare.add(\r\n            reward.div(allStakedAmount)\r\n        );\r\n        lastRewardTime = block.timestamp;\r\n    }\r\n\r\n    function stakeTokens(uint256 _amountToStake, bool validator) external nonReentrant onlyWhitelisted{\r\n        if(validator){\r\n            require(canStake[msg.sender],\"You are not able to stake now, please make a request to be validator\");\r\n        }\r\n        innerStakeTokens(_amountToStake, validator, false);\r\n    }\r\n\r\n    function innerStakeTokens(uint256 _amountToStake, bool validator, bool reinvest) private{\r\n        UserInfo storage user = userInfo[msg.sender];\r\n        require(stakingToken.balanceOf(msg.sender)>=_amountToStake, \"Your balance is not enough\");\r\n        if(validator){\r\n            require(user.amount.add(_amountToStake)>=minAmountStake, \"Minimum amount to stake condition is not met\");\r\n        }\r\n        updatePool();\r\n        uint256 pending = 0;        \r\n\r\n        if(!user.registrated){\r\n            user.registrated = true;\r\n            participants +=1;\r\n        }\r\n        if (user.amount > 0) {\r\n            pending = transferPendingReward(user);            \r\n        }\r\n        if (_amountToStake > 0) {\r\n            uint256 balanceBefore = stakingToken.balanceOf(address(this));\r\n            stakingToken.safeTransferFrom(msg.sender, address(this), _amountToStake);\r\n            uint256 received = stakingToken.balanceOf(address(this)) - balanceBefore;\r\n            _amountToStake = received;\r\n            if(validator){\r\n                _amountToStake = _amountToStake.mul(validatorBonusMultiplier).div(10);\r\n            }\r\n            user.amount = user.amount.add(_amountToStake);\r\n            allStakedAmount = allStakedAmount.add(_amountToStake);\r\n        }\r\n        if(validator && !isValidator[msg.sender]){\r\n            isValidator[msg.sender] = true;\r\n            ValidatorInfo storage _validator = validators[user.index];\r\n            _validator.status = \"Staked\";\r\n        }\r\n        if(!validator && !isValidator[msg.sender]){\r\n            sharedWalletStakedAmount = sharedWalletStakedAmount.add(_amountToStake);\r\n        }\r\n        \r\n        allRewardDebt = allRewardDebt.sub(user.rewardDebt);\r\n        user.rewardDebt = user.amount.mul(accTokensPerShare);\r\n        allRewardDebt = allRewardDebt.add(user.rewardDebt);\r\n        emit TokensStaked(msg.sender, _amountToStake, pending, reinvest);\r\n    }\r\n\r\n    // Leave the pool. Claim back your tokens.\r\n    // Unclocks the staked + gained tokens and burns pool shares\r\n    function withdrawStake() external nonReentrant {        \r\n        UserInfo storage user = userInfo[msg.sender];\r\n        uint256 _amount = user.amount;\r\n        if(isValidator[msg.sender]){            \r\n            ValidatorInfo storage validator = validators[user.index];\r\n            validator.status = \"Withdrawed Stakes\";\r\n            updatePool();\r\n            uint256 pending = transferPendingReward(user);\r\n            isValidator[msg.sender]=false;\r\n            _amount = _amount.mul(10).div(validatorBonusMultiplier);\r\n            user.amount = 0;\r\n            stakingToken.safeTransfer(msg.sender, _amount);\r\n            \r\n            allRewardDebt = allRewardDebt.sub(user.rewardDebt);\r\n            user.rewardDebt = user.amount.mul(accTokensPerShare);\r\n            allRewardDebt = allRewardDebt.add(user.rewardDebt);\r\n            allStakedAmount = allStakedAmount.sub(_amount.mul(validatorBonusMultiplier).div(10));\r\n            emit StakeWithdrawn(msg.sender, _amount, pending);\r\n        }else{\r\n            updatePool();\r\n            uint256 pending = transferPendingReward(user);            \r\n            user.amount = 0;\r\n            stakingToken.safeTransfer(msg.sender, _amount);            \r\n            allRewardDebt = allRewardDebt.sub(user.rewardDebt);\r\n            user.rewardDebt = user.amount.mul(accTokensPerShare);\r\n            allRewardDebt = allRewardDebt.add(user.rewardDebt);\r\n            allStakedAmount = allStakedAmount.sub(_amount);\r\n            sharedWalletStakedAmount = sharedWalletStakedAmount.sub(_amount);\r\n            emit StakeWithdrawn(msg.sender, _amount, pending);\r\n        }     \r\n        \r\n        \r\n    }\r\n\r\n    function removeValidator(address _validator) external onlyOwner{\r\n        UserInfo storage user = userInfo[_validator];\r\n        uint256 _amount = user.amount;\r\n        if(isValidator[_validator]){            \r\n            ValidatorInfo storage validator = validators[user.index];\r\n            validator.status = \"Withdrawed Stakes\";\r\n            updatePool();\r\n            uint256 pending = transferPendingReward(user);\r\n            isValidator[_validator]=false;\r\n            _amount = _amount.mul(10).div(validatorBonusMultiplier);\r\n            user.amount = 0;\r\n            stakingToken.safeTransfer(_validator, _amount);\r\n            \r\n            deleteRequest(_validator);\r\n            canStake[_validator]=false;\r\n\r\n            allRewardDebt = allRewardDebt.sub(user.rewardDebt);\r\n            user.rewardDebt = user.amount.mul(accTokensPerShare);\r\n            allRewardDebt = allRewardDebt.add(user.rewardDebt);\r\n            allStakedAmount = allStakedAmount.sub(_amount.mul(validatorBonusMultiplier).div(10));\r\n            emit StakeWithdrawn(_validator, _amount, pending);\r\n        }else{\r\n            updatePool();\r\n            uint256 pending = transferPendingReward(user);            \r\n            user.amount = 0;\r\n            stakingToken.safeTransfer(_validator, _amount);            \r\n            allRewardDebt = allRewardDebt.sub(user.rewardDebt);\r\n            user.rewardDebt = user.amount.mul(accTokensPerShare);\r\n            allRewardDebt = allRewardDebt.add(user.rewardDebt);\r\n            allStakedAmount = allStakedAmount.sub(_amount);\r\n            sharedWalletStakedAmount = sharedWalletStakedAmount.sub(_amount);\r\n            emit StakeWithdrawn(_validator, _amount, pending);\r\n        }     \r\n    }\r\n\r\n    function transferPendingReward(UserInfo memory user) private returns (uint256) {\r\n        uint256 pending = user.amount.mul(accTokensPerShare).sub(user.rewardDebt);        \r\n\r\n        if (pending > 0) {            \r\n            //rewardToken.safeTransfer(msg.sender, pending);\r\n            payable(msg.sender).transfer(pending);\r\n            allPaidReward = allPaidReward.add(pending);\r\n        }\r\n\r\n        return pending;\r\n    }\r\n    function transferPendingRewardP() public{\r\n        UserInfo storage user = userInfo[msg.sender];\r\n        updatePool();\r\n        transferPendingReward(user);\r\n        allRewardDebt = allRewardDebt.sub(user.rewardDebt);\r\n        user.rewardDebt = user.amount.mul(accTokensPerShare);\r\n        allRewardDebt = allRewardDebt.add(user.rewardDebt);\r\n    }\r\n    function transferEthertoPool() public payable {\r\n                \r\n    }\r\n\r\n    // Withdraw without caring about rewards. EMERGENCY ONLY.\r\n    function emergencyWithdraw() external nonReentrant{\r\n        UserInfo storage user = userInfo[msg.sender];\r\n        if(user.amount > 0) {\r\n            stakingToken.safeTransfer(msg.sender, user.amount);\r\n            emit EmergencyWithdraw(msg.sender, user.amount);\r\n\r\n            allStakedAmount = allStakedAmount.sub(user.amount);\r\n            allRewardDebt = allRewardDebt.sub(user.rewardDebt);\r\n            user.amount = 0;\r\n            user.rewardDebt = 0;\r\n        }\r\n    }\r\n\r\n    function emergencyWithdrawPoolRemainder() external onlyOwner nonReentrant{\r\n        payable(msg.sender).transfer(address(this).balance);\r\n        stakingToken.safeTransferFrom(address(this), msg.sender,  stakingToken.balanceOf(address(this)));\r\n    }\r\n    function withdrawPoolRemainder() external onlyOwner nonReentrant{\r\n        require(block.timestamp > finishTime, \"Allow after finish\");\r\n        updatePool();\r\n        uint256 pending = allStakedAmount.mul(accTokensPerShare).sub(allRewardDebt);\r\n        uint256 returnAmount = poolTokenAmount.sub(allPaidReward).sub(pending);\r\n        allPaidReward = allPaidReward.add(returnAmount);\r\n\r\n        //rewardToken.safeTransfer(msg.sender, returnAmount);\r\n        payable(msg.sender).transfer(returnAmount);\r\n        emit WithdrawPoolRemainder(msg.sender, returnAmount);\r\n    }\r\n\r\n    \r\n    /*\r\n    function extendDuration(uint256 _addTokenAmount) external onlyOwner nonReentrant{\r\n        require(now < finishTime, \"Pool was finished\");\r\n        rewardToken.safeTransferFrom(msg.sender, address(this), _addTokenAmount);     \r\n        poolTokenAmount = poolTokenAmount.add(_addTokenAmount);\r\n        finishTime = finishTime.add(_addTokenAmount.div(rewardPerSec()));\r\n\r\n        emit UpdateFinishTime(_addTokenAmount, finishTime);\r\n    }*/\r\n\r\n    function setHasWhitelisting(bool value) external onlyOwner{\r\n        hasWhitelisting = value;\r\n        emit HasWhitelistingUpdated(hasWhitelisting);\r\n    }   \r\n}",
  "sourcePath": "D:\\Folders\\staking\\contracts\\staking.sol",
  "compiler": {
    "name": "solc",
    "version": "0.8.7+commit.e28d00a7.Emscripten.clang"
  },
  "schemaVersion": "3.4.3",
  "updatedAt": "2022-02-18T14:36:44.805Z",
  "devdoc": {
    "kind": "dev",
    "methods": {
      "owner()": {
        "details": "Returns the address of the current owner."
      },
      "renounceOwnership()": {
        "details": "Leaves the contract without owner. It will not be possible to call `onlyOwner` functions anymore. Can only be called by the current owner. NOTE: Renouncing ownership will leave the contract without an owner, thereby removing any functionality that is only available to the owner."
      },
      "transferOwnership(address)": {
        "details": "Transfers ownership of the contract to a new account (`newOwner`). Can only be called by the current owner."
      }
    },
    "version": 1
  },
  "userdoc": {
    "kind": "user",
    "methods": {},
    "version": 1
  }
}