{
  "contractName": "StakingPool",
  "abi": [
    {
      "inputs": [
        {
          "internalType": "contract IERC20",
          "name": "_stakingToken",
          "type": "address"
        },
        {
          "internalType": "uint256",
          "name": "_startTime",
          "type": "uint256"
        },
        {
          "internalType": "uint256",
          "name": "_finishTime",
          "type": "uint256"
        },
        {
          "internalType": "uint256",
          "name": "_poolTokenAmount",
          "type": "uint256"
        },
        {
          "internalType": "uint256",
          "name": "_minAmountStake",
          "type": "uint256"
        }
      ],
      "stateMutability": "nonpayable",
      "type": "constructor"
    },
    {
      "anonymous": false,
      "inputs": [
        {
          "indexed": false,
          "internalType": "address",
          "name": "account",
          "type": "address"
        }
      ],
      "name": "AddedToWhitelist",
      "type": "event"
    },
    {
      "anonymous": false,
      "inputs": [
        {
          "indexed": true,
          "internalType": "address",
          "name": "user",
          "type": "address"
        },
        {
          "indexed": false,
          "internalType": "uint256",
          "name": "amount",
          "type": "uint256"
        }
      ],
      "name": "EmergencyWithdraw",
      "type": "event"
    },
    {
      "anonymous": false,
      "inputs": [
        {
          "indexed": false,
          "internalType": "bool",
          "name": "newValue",
          "type": "bool"
        }
      ],
      "name": "HasWhitelistingUpdated",
      "type": "event"
    },
    {
      "anonymous": false,
      "inputs": [
        {
          "indexed": true,
          "internalType": "address",
          "name": "previousOwner",
          "type": "address"
        },
        {
          "indexed": true,
          "internalType": "address",
          "name": "newOwner",
          "type": "address"
        }
      ],
      "name": "OwnershipTransferred",
      "type": "event"
    },
    {
      "anonymous": false,
      "inputs": [
        {
          "indexed": false,
          "internalType": "uint256",
          "name": "amount",
          "type": "uint256"
        }
      ],
      "name": "PoolReplenished",
      "type": "event"
    },
    {
      "anonymous": false,
      "inputs": [
        {
          "indexed": false,
          "internalType": "address",
          "name": "account",
          "type": "address"
        }
      ],
      "name": "RemovedFromWhitelist",
      "type": "event"
    },
    {
      "anonymous": false,
      "inputs": [
        {
          "indexed": true,
          "internalType": "address",
          "name": "user",
          "type": "address"
        },
        {
          "indexed": false,
          "internalType": "uint256",
          "name": "amount",
          "type": "uint256"
        },
        {
          "indexed": false,
          "internalType": "uint256",
          "name": "reward",
          "type": "uint256"
        }
      ],
      "name": "StakeWithdrawn",
      "type": "event"
    },
    {
      "anonymous": false,
      "inputs": [
        {
          "indexed": true,
          "internalType": "address",
          "name": "user",
          "type": "address"
        },
        {
          "indexed": false,
          "internalType": "uint256",
          "name": "amount",
          "type": "uint256"
        },
        {
          "indexed": false,
          "internalType": "uint256",
          "name": "reward",
          "type": "uint256"
        },
        {
          "indexed": false,
          "internalType": "bool",
          "name": "reinvest",
          "type": "bool"
        }
      ],
      "name": "TokensStaked",
      "type": "event"
    },
    {
      "anonymous": false,
      "inputs": [
        {
          "indexed": false,
          "internalType": "uint256",
          "name": "addedTokenAmount",
          "type": "uint256"
        },
        {
          "indexed": false,
          "internalType": "uint256",
          "name": "newFinishTime",
          "type": "uint256"
        }
      ],
      "name": "UpdateFinishTime",
      "type": "event"
    },
    {
      "anonymous": false,
      "inputs": [
        {
          "indexed": true,
          "internalType": "address",
          "name": "user",
          "type": "address"
        },
        {
          "indexed": false,
          "internalType": "uint256",
          "name": "amount",
          "type": "uint256"
        }
      ],
      "name": "WithdrawPoolRemainder",
      "type": "event"
    },
    {
      "inputs": [],
      "name": "accTokensPerShare",
      "outputs": [
        {
          "internalType": "uint256",
          "name": "",
          "type": "uint256"
        }
      ],
      "stateMutability": "view",
      "type": "function"
    },
    {
      "inputs": [
        {
          "internalType": "address[]",
          "name": "_addresses",
          "type": "address[]"
        }
      ],
      "name": "add",
      "outputs": [],
      "stateMutability": "nonpayable",
      "type": "function"
    },
    {
      "inputs": [],
      "name": "allPaidReward",
      "outputs": [
        {
          "internalType": "uint256",
          "name": "",
          "type": "uint256"
        }
      ],
      "stateMutability": "view",
      "type": "function"
    },
    {
      "inputs": [],
      "name": "allRewardDebt",
      "outputs": [
        {
          "internalType": "uint256",
          "name": "",
          "type": "uint256"
        }
      ],
      "stateMutability": "view",
      "type": "function"
    },
    {
      "inputs": [],
      "name": "allStakedAmount",
      "outputs": [
        {
          "internalType": "uint256",
          "name": "",
          "type": "uint256"
        }
      ],
      "stateMutability": "view",
      "type": "function"
    },
    {
      "inputs": [
        {
          "internalType": "address",
          "name": "",
          "type": "address"
        }
      ],
      "name": "canStake",
      "outputs": [
        {
          "internalType": "bool",
          "name": "",
          "type": "bool"
        }
      ],
      "stateMutability": "view",
      "type": "function"
    },
    {
      "inputs": [],
      "name": "finishTime",
      "outputs": [
        {
          "internalType": "uint256",
          "name": "",
          "type": "uint256"
        }
      ],
      "stateMutability": "view",
      "type": "function"
    },
    {
      "inputs": [],
      "name": "hasWhitelisting",
      "outputs": [
        {
          "internalType": "bool",
          "name": "",
          "type": "bool"
        }
      ],
      "stateMutability": "view",
      "type": "function"
    },
    {
      "inputs": [
        {
          "internalType": "address",
          "name": "",
          "type": "address"
        }
      ],
      "name": "isValidator",
      "outputs": [
        {
          "internalType": "bool",
          "name": "",
          "type": "bool"
        }
      ],
      "stateMutability": "view",
      "type": "function"
    },
    {
      "inputs": [
        {
          "internalType": "address",
          "name": "_address",
          "type": "address"
        }
      ],
      "name": "isWhitelisted",
      "outputs": [
        {
          "internalType": "bool",
          "name": "",
          "type": "bool"
        }
      ],
      "stateMutability": "view",
      "type": "function"
    },
    {
      "inputs": [],
      "name": "lastRewardTime",
      "outputs": [
        {
          "internalType": "uint256",
          "name": "",
          "type": "uint256"
        }
      ],
      "stateMutability": "view",
      "type": "function"
    },
    {
      "inputs": [],
      "name": "minAmountStake",
      "outputs": [
        {
          "internalType": "uint256",
          "name": "",
          "type": "uint256"
        }
      ],
      "stateMutability": "view",
      "type": "function"
    },
    {
      "inputs": [],
      "name": "owner",
      "outputs": [
        {
          "internalType": "address",
          "name": "",
          "type": "address"
        }
      ],
      "stateMutability": "view",
      "type": "function"
    },
    {
      "inputs": [],
      "name": "participants",
      "outputs": [
        {
          "internalType": "uint256",
          "name": "",
          "type": "uint256"
        }
      ],
      "stateMutability": "view",
      "type": "function"
    },
    {
      "inputs": [],
      "name": "poolTokenAmount",
      "outputs": [
        {
          "internalType": "uint256",
          "name": "",
          "type": "uint256"
        }
      ],
      "stateMutability": "view",
      "type": "function"
    },
    {
      "inputs": [
        {
          "internalType": "address[]",
          "name": "_addresses",
          "type": "address[]"
        }
      ],
      "name": "remove",
      "outputs": [],
      "stateMutability": "nonpayable",
      "type": "function"
    },
    {
      "inputs": [],
      "name": "renounceOwnership",
      "outputs": [],
      "stateMutability": "nonpayable",
      "type": "function"
    },
    {
      "inputs": [],
      "name": "sharedWallet",
      "outputs": [
        {
          "internalType": "address",
          "name": "",
          "type": "address"
        }
      ],
      "stateMutability": "view",
      "type": "function"
    },
    {
      "inputs": [],
      "name": "sharedWalletStakedAmount",
      "outputs": [
        {
          "internalType": "uint256",
          "name": "",
          "type": "uint256"
        }
      ],
      "stateMutability": "view",
      "type": "function"
    },
    {
      "inputs": [],
      "name": "stakingToken",
      "outputs": [
        {
          "internalType": "contract IERC20",
          "name": "",
          "type": "address"
        }
      ],
      "stateMutability": "view",
      "type": "function"
    },
    {
      "inputs": [],
      "name": "startTime",
      "outputs": [
        {
          "internalType": "uint256",
          "name": "",
          "type": "uint256"
        }
      ],
      "stateMutability": "view",
      "type": "function"
    },
    {
      "inputs": [
        {
          "internalType": "address",
          "name": "newOwner",
          "type": "address"
        }
      ],
      "name": "transferOwnership",
      "outputs": [],
      "stateMutability": "nonpayable",
      "type": "function"
    },
    {
      "inputs": [
        {
          "internalType": "address",
          "name": "",
          "type": "address"
        }
      ],
      "name": "userInfo",
      "outputs": [
        {
          "internalType": "uint256",
          "name": "amount",
          "type": "uint256"
        },
        {
          "internalType": "uint256",
          "name": "rewardDebt",
          "type": "uint256"
        },
        {
          "internalType": "bool",
          "name": "registrated",
          "type": "bool"
        },
        {
          "internalType": "bool",
          "name": "maderequest",
          "type": "bool"
        },
        {
          "internalType": "uint256",
          "name": "index",
          "type": "uint256"
        }
      ],
      "stateMutability": "view",
      "type": "function"
    },
    {
      "inputs": [],
      "name": "validatorBonusMultiplier",
      "outputs": [
        {
          "internalType": "uint256",
          "name": "",
          "type": "uint256"
        }
      ],
      "stateMutability": "view",
      "type": "function"
    },
    {
      "inputs": [
        {
          "internalType": "uint256",
          "name": "",
          "type": "uint256"
        }
      ],
      "name": "validators",
      "outputs": [
        {
          "internalType": "address",
          "name": "user",
          "type": "address"
        },
        {
          "internalType": "string",
          "name": "enodeAdress",
          "type": "string"
        },
        {
          "internalType": "string",
          "name": "status",
          "type": "string"
        }
      ],
      "stateMutability": "view",
      "type": "function"
    },
    {
      "inputs": [
        {
          "internalType": "address",
          "name": "",
          "type": "address"
        }
      ],
      "name": "whitelist",
      "outputs": [
        {
          "internalType": "bool",
          "name": "",
          "type": "bool"
        }
      ],
      "stateMutability": "view",
      "type": "function"
    },
    {
      "inputs": [
        {
          "internalType": "string",
          "name": "_enodeAdress",
          "type": "string"
        }
      ],
      "name": "addRequest",
      "outputs": [],
      "stateMutability": "nonpayable",
      "type": "function"
    },
    {
      "inputs": [
        {
          "internalType": "address",
          "name": "user",
          "type": "address"
        },
        {
          "internalType": "bool",
          "name": "value",
          "type": "bool"
        }
      ],
      "name": "defineValidator",
      "outputs": [],
      "stateMutability": "nonpayable",
      "type": "function"
    },
    {
      "inputs": [
        {
          "internalType": "address",
          "name": "_user",
          "type": "address"
        },
        {
          "internalType": "string",
          "name": "_status",
          "type": "string"
        }
      ],
      "name": "changeStatus",
      "outputs": [],
      "stateMutability": "nonpayable",
      "type": "function"
    },
    {
      "inputs": [],
      "name": "getRequestsLength",
      "outputs": [
        {
          "internalType": "uint256",
          "name": "",
          "type": "uint256"
        }
      ],
      "stateMutability": "view",
      "type": "function"
    },
    {
      "inputs": [
        {
          "internalType": "address",
          "name": "user",
          "type": "address"
        }
      ],
      "name": "getUserInfo",
      "outputs": [
        {
          "internalType": "uint256",
          "name": "",
          "type": "uint256"
        },
        {
          "internalType": "uint256",
          "name": "",
          "type": "uint256"
        }
      ],
      "stateMutability": "view",
      "type": "function"
    },
    {
      "inputs": [
        {
          "internalType": "address",
          "name": "_user",
          "type": "address"
        }
      ],
      "name": "pendingReward",
      "outputs": [
        {
          "internalType": "uint256",
          "name": "",
          "type": "uint256"
        }
      ],
      "stateMutability": "view",
      "type": "function"
    },
    {
      "inputs": [],
      "name": "updatePool",
      "outputs": [],
      "stateMutability": "nonpayable",
      "type": "function"
    },
    {
      "inputs": [
        {
          "internalType": "uint256",
          "name": "_amountToStake",
          "type": "uint256"
        },
        {
          "internalType": "bool",
          "name": "validator",
          "type": "bool"
        }
      ],
      "name": "stakeTokens",
      "outputs": [],
      "stateMutability": "nonpayable",
      "type": "function"
    },
    {
      "inputs": [],
      "name": "withdrawStake",
      "outputs": [],
      "stateMutability": "nonpayable",
      "type": "function"
    },
    {
      "inputs": [],
      "name": "transferPendingRewardP",
      "outputs": [],
      "stateMutability": "nonpayable",
      "type": "function"
    },
    {
      "inputs": [],
      "name": "transferEthertoPool",
      "outputs": [],
      "stateMutability": "payable",
      "type": "function"
    },
    {
      "inputs": [],
      "name": "emergencyWithdraw",
      "outputs": [],
      "stateMutability": "nonpayable",
      "type": "function"
    },
    {
      "inputs": [],
      "name": "emergencyWithdrawPoolRemainder",
      "outputs": [],
      "stateMutability": "nonpayable",
      "type": "function"
    },
    {
      "inputs": [],
      "name": "withdrawPoolRemainder",
      "outputs": [],
      "stateMutability": "nonpayable",
      "type": "function"
    },
    {
      "inputs": [
        {
          "internalType": "bool",
          "name": "value",
          "type": "bool"
        }
      ],
      "name": "setHasWhitelisting",
      "outputs": [],
      "stateMutability": "nonpayable",
      "type": "function"
    }
  ],
  "bytecode": "0x60806040526000600260006101000a81548160ff021916908315150217905550600f6010553480156200003157600080fd5b5060405162004f4138038062004f4183398181016040528101906200005791906200037e565b600080339050806000806101000a81548173ffffffffffffffffffffffffffffffffffffffff021916908373ffffffffffffffffffffffffffffffffffffffff1602179055508073ffffffffffffffffffffffffffffffffffffffff16600073ffffffffffffffffffffffffffffffffffffffff167f8be0079c531659141344cd1fd0a4f28419497f9722a3daafe3b4186f6b6457e060405160405180910390a35080600260006101000a81548160ff02191690831515021790555050600160038190555084600460006101000a81548173ffffffffffffffffffffffffffffffffffffffff021916908373ffffffffffffffffffffffffffffffffffffffff160217905550620001786064826200026960201b620027061790919060201c565b600e81905550620001988442620002ed60201b620027811790919060201c565b600581905550600554600681905550620001c18342620002ed60201b620027811790919060201c565b60078190555081600b819055506007546005541062000217576040517f08c379a00000000000000000000000000000000000000000000000000000000081526004016200020e9062000508565b60405180910390fd5b42600554116200025e576040517f08c379a00000000000000000000000000000000000000000000000000000000081526004016200025590620004e6565b60405180910390fd5b5050505050620007e4565b6000808314156200027e5760009050620002e7565b600082846200028e9190620005d0565b90508284826200029f919062000598565b14620002e2576040517f08c379a0000000000000000000000000000000000000000000000000000000008152600401620002d990620004c4565b60405180910390fd5b809150505b92915050565b6000808284620002fe91906200053b565b90508381101562000346576040517f08c379a00000000000000000000000000000000000000000000000000000000081526004016200033d90620004a2565b60405180910390fd5b8091505092915050565b6000815190506200036181620007b0565b92915050565b6000815190506200037881620007ca565b92915050565b600080600080600060a086880312156200039d576200039c620006e1565b5b6000620003ad8882890162000350565b9550506020620003c08882890162000367565b9450506040620003d38882890162000367565b9350506060620003e68882890162000367565b9250506080620003f98882890162000367565b9150509295509295909350565b600062000415601b836200052a565b91506200042282620006e6565b602082019050919050565b60006200043c6021836200052a565b915062000449826200070f565b604082019050919050565b600062000463601b836200052a565b915062000470826200075e565b602082019050919050565b60006200048a601e836200052a565b9150620004978262000787565b602082019050919050565b60006020820190508181036000830152620004bd8162000406565b9050919050565b60006020820190508181036000830152620004df816200042d565b9050919050565b60006020820190508181036000830152620005018162000454565b9050919050565b6000602082019050818103600083015262000523816200047b565b9050919050565b600082825260208201905092915050565b6000620005488262000679565b9150620005558362000679565b9250827fffffffffffffffffffffffffffffffffffffffffffffffffffffffffffffffff038211156200058d576200058c62000683565b5b828201905092915050565b6000620005a58262000679565b9150620005b28362000679565b925082620005c557620005c4620006b2565b5b828204905092915050565b6000620005dd8262000679565b9150620005ea8362000679565b9250817fffffffffffffffffffffffffffffffffffffffffffffffffffffffffffffffff048311821515161562000626576200062562000683565b5b828202905092915050565b60006200063e8262000659565b9050919050565b6000620006528262000631565b9050919050565b600073ffffffffffffffffffffffffffffffffffffffff82169050919050565b6000819050919050565b7f4e487b7100000000000000000000000000000000000000000000000000000000600052601160045260246000fd5b7f4e487b7100000000000000000000000000000000000000000000000000000000600052601260045260246000fd5b600080fd5b7f536166654d6174683a206164646974696f6e206f766572666c6f770000000000600082015250565b7f536166654d6174683a206d756c7469706c69636174696f6e206f766572666c6f60008201527f7700000000000000000000000000000000000000000000000000000000000000602082015250565b7f5374617274206d757374206265206d6f7265207468616e206e6f770000000000600082015250565b7f5374617274206d757374206265206c657373207468616e2066696e6973680000600082015250565b620007bb8162000645565b8114620007c757600080fd5b50565b620007d58162000679565b8114620007e157600080fd5b50565b61474d80620007f46000396000f3fe6080604052600436106102465760003560e01c80637647ca0511610139578063b739ef92116100b6578063db2e21bc1161007a578063db2e21bc1461080c578063e3161ddd14610823578063e42578ce1461083a578063f2fde38b14610865578063f40f0f521461088e578063facd743b146108cb57610246565b8063b739ef921461075f578063bed9d86114610776578063c4c1c94f1461078d578063c8cf4722146107b6578063d501953d146107e157610246565b80639231cf74116100fd5780639231cf741461068c578063951fbcc8146106b7578063965af692146106e25780639b19251a1461070b578063aa0bb90c1461074857610246565b80637647ca05146105cb57806377e9e17f146105e257806378e979251461060d5780637cb7bf94146106385780638da5cb5b1461066157610246565b80633af32abf116101c75780636386c1c71161018b5780636386c1c7146104f75780636c4470fb146105355780636eaaabd514610560578063715018a61461058957806372f702f3146105a057610246565b80633af32abf146104315780635839eafe1461046e5780635958611e146104785780635e4ba17c146104a3578063626203a2146104cc57610246565b80631959a0021161020e5780631959a0021461031e5780631d3a4ef01461035f5780632f3c9a4f1461038a57806335aa2e44146103b557806336d8bf93146103f457610246565b8063076623451461024b57806308758f8b146102765780630ac906a9146102a1578063128d7215146102ca57806314d3bf41146102f3575b600080fd5b34801561025757600080fd5b50610260610908565b60405161026d9190613cec565b60405180910390f35b34801561028257600080fd5b5061028b61091b565b6040516102989190613ec4565b60405180910390f35b3480156102ad57600080fd5b506102c860048036038101906102c391906137e9565b610921565b005b3480156102d657600080fd5b506102f160048036038101906102ec91906138e8565b610a3b565b005b3480156102ff57600080fd5b50610308610be9565b6040516103159190613ec4565b60405180910390f35b34801561032a57600080fd5b506103456004803603810190610340919061377c565b610bef565b604051610356959493929190613f3f565b60405180910390f35b34801561036b57600080fd5b50610374610c3f565b6040516103819190613c2c565b60405180910390f35b34801561039657600080fd5b5061039f610c65565b6040516103ac9190613ec4565b60405180910390f35b3480156103c157600080fd5b506103dc60048036038101906103d79190613931565b610c6b565b6040516103eb93929190613c7e565b60405180910390f35b34801561040057600080fd5b5061041b6004803603810190610416919061377c565b610dd5565b6040516104289190613cec565b60405180910390f35b34801561043d57600080fd5b506104586004803603810190610453919061377c565b610df5565b6040516104659190613cec565b60405180910390f35b610476610e4b565b005b34801561048457600080fd5b5061048d610e4d565b60405161049a9190613ec4565b60405180910390f35b3480156104af57600080fd5b506104ca60048036038101906104c59190613845565b610e53565b005b3480156104d857600080fd5b506104e1611006565b6040516104ee9190613ec4565b60405180910390f35b34801561050357600080fd5b5061051e6004803603810190610519919061377c565b61100c565b60405161052c929190613edf565b60405180910390f35b34801561054157600080fd5b5061054a6110c5565b6040516105579190613ec4565b60405180910390f35b34801561056c57600080fd5b506105876004803603810190610582919061388e565b6110cb565b005b34801561059557600080fd5b5061059e6111bc565b005b3480156105ac57600080fd5b506105b5611308565b6040516105c29190613d07565b60405180910390f35b3480156105d757600080fd5b506105e061132e565b005b3480156105ee57600080fd5b506105f761156e565b6040516106049190613ec4565b60405180910390f35b34801561061957600080fd5b50610622611574565b60405161062f9190613ec4565b60405180910390f35b34801561064457600080fd5b5061065f600480360381019061065a91906137a9565b61157a565b005b34801561066d57600080fd5b50610676611663565b6040516106839190613c2c565b60405180910390f35b34801561069857600080fd5b506106a161168c565b6040516106ae9190613ec4565b60405180910390f35b3480156106c357600080fd5b506106cc611692565b6040516106d99190613ec4565b60405180910390f35b3480156106ee57600080fd5b506107096004803603810190610704919061398b565b611698565b005b34801561071757600080fd5b50610732600480360381019061072d919061377c565b6117b9565b60405161073f9190613cec565b60405180910390f35b34801561075457600080fd5b5061075d6117d9565b005b34801561076b57600080fd5b506107746119ff565b005b34801561078257600080fd5b5061078b611b15565b005b34801561079957600080fd5b506107b460048036038101906107af9190613845565b61207c565b005b3480156107c257600080fd5b506107cb6121ef565b6040516107d89190613ec4565b60405180910390f35b3480156107ed57600080fd5b506107f66121fc565b6040516108039190613ec4565b60405180910390f35b34801561081857600080fd5b50610821612202565b005b34801561082f57600080fd5b506108386123a1565b005b34801561084657600080fd5b5061084f61242f565b60405161085c9190613ec4565b60405180910390f35b34801561087157600080fd5b5061088c6004803603810190610887919061377c565b612435565b005b34801561089a57600080fd5b506108b560048036038101906108b0919061377c565b6125f0565b6040516108c29190613ec4565b60405180910390f35b3480156108d757600080fd5b506108f260048036038101906108ed919061377c565b6126e6565b6040516108ff9190613cec565b60405180910390f35b600260009054906101000a900460ff1681565b600f5481565b3373ffffffffffffffffffffffffffffffffffffffff1660008054906101000a900473ffffffffffffffffffffffffffffffffffffffff1673ffffffffffffffffffffffffffffffffffffffff16146109af576040517f08c379a00000000000000000000000000000000000000000000000000000000081526004016109a690613e24565b60405180910390fd5b6000601260008473ffffffffffffffffffffffffffffffffffffffff1673ffffffffffffffffffffffffffffffffffffffff168152602001908152602001600020905060006015826003015481548110610a0c57610a0b614354565b5b9060005260206000209060030201905082816002019080519060200190610a34929190613562565b5050505050565b6000601260003373ffffffffffffffffffffffffffffffffffffffff1673ffffffffffffffffffffffffffffffffffffffff16815260200190815260200160002090508060020160019054906101000a900460ff1615610a9a57600080fd5b601560405180606001604052803373ffffffffffffffffffffffffffffffffffffffff1681526020018481526020016040518060400160405280600781526020017f70656e64696e6700000000000000000000000000000000000000000000000000815250815250908060018154018082558091505060019003906000526020600020906003020160009091909190915060008201518160000160006101000a81548173ffffffffffffffffffffffffffffffffffffffff021916908373ffffffffffffffffffffffffffffffffffffffff1602179055506020820151816001019080519060200190610b8e929190613562565b506040820151816002019080519060200190610bab929190613562565b50505060018160020160016101000a81548160ff0219169083151502179055506001601580549050610bdd9190614127565b81600301819055505050565b60085481565b60126020528060005260406000206000915090508060000154908060010154908060020160009054906101000a900460ff16908060020160019054906101000a900460ff16908060030154905085565b601160009054906101000a900473ffffffffffffffffffffffffffffffffffffffff1681565b600c5481565b60158181548110610c7b57600080fd5b90600052602060002090600302016000915090508060000160009054906101000a900473ffffffffffffffffffffffffffffffffffffffff1690806001018054610cc49061421b565b80601f0160208091040260200160405190810160405280929190818152602001828054610cf09061421b565b8015610d3d5780601f10610d1257610100808354040283529160200191610d3d565b820191906000526020600020905b815481529060010190602001808311610d2057829003601f168201915b505050505090806002018054610d529061421b565b80601f0160208091040260200160405190810160405280929190818152602001828054610d7e9061421b565b8015610dcb5780601f10610da057610100808354040283529160200191610dcb565b820191906000526020600020905b815481529060010190602001808311610dae57829003601f168201915b5050505050905083565b60146020528060005260406000206000915054906101000a900460ff1681565b6000600160008373ffffffffffffffffffffffffffffffffffffffff1673ffffffffffffffffffffffffffffffffffffffff16815260200190815260200160002060009054906101000a900460ff169050919050565b565b60075481565b3373ffffffffffffffffffffffffffffffffffffffff1660008054906101000a900473ffffffffffffffffffffffffffffffffffffffff1673ffffffffffffffffffffffffffffffffffffffff1614610ee1576040517f08c379a0000000000000000000000000000000000000000000000000000000008152600401610ed890613e24565b60405180910390fd5b60005b8151811015611002576000828281518110610f0257610f01614354565b5b60200260200101519050600160008273ffffffffffffffffffffffffffffffffffffffff1673ffffffffffffffffffffffffffffffffffffffff16815260200190815260200160002060009054906101000a900460ff1615610fee576000600160008373ffffffffffffffffffffffffffffffffffffffff1673ffffffffffffffffffffffffffffffffffffffff16815260200190815260200160002060006101000a81548160ff0219169083151502179055507fcdd2e9b91a56913d370075169cefa1602ba36be5301664f752192bb1709df75781604051610fe59190613c2c565b60405180910390a15b508080610ffa9061427e565b915050610ee4565b5050565b600e5481565b6000806000601260008573ffffffffffffffffffffffffffffffffffffffff1673ffffffffffffffffffffffffffffffffffffffff1681526020019081526020016000206040518060a001604052908160008201548152602001600182015481526020016002820160009054906101000a900460ff161515151581526020016002820160019054906101000a900460ff161515151581526020016003820154815250509050806000015181602001519250925050915091565b600d5481565b3373ffffffffffffffffffffffffffffffffffffffff1660008054906101000a900473ffffffffffffffffffffffffffffffffffffffff1673ffffffffffffffffffffffffffffffffffffffff1614611159576040517f08c379a000000000000000000000000000000000000000000000000000000000815260040161115090613e24565b60405180910390fd5b80600260006101000a81548160ff0219169083151502179055507f81a1b67ab393231a9f3a2ce8c84cc6c46c76cc94cf733e155af6fb539873fa39600260009054906101000a900460ff166040516111b19190613cec565b60405180910390a150565b3373ffffffffffffffffffffffffffffffffffffffff1660008054906101000a900473ffffffffffffffffffffffffffffffffffffffff1673ffffffffffffffffffffffffffffffffffffffff161461124a576040517f08c379a000000000000000000000000000000000000000000000000000000000815260040161124190613e24565b60405180910390fd5b600073ffffffffffffffffffffffffffffffffffffffff1660008054906101000a900473ffffffffffffffffffffffffffffffffffffffff1673ffffffffffffffffffffffffffffffffffffffff167f8be0079c531659141344cd1fd0a4f28419497f9722a3daafe3b4186f6b6457e060405160405180910390a360008060006101000a81548173ffffffffffffffffffffffffffffffffffffffff021916908373ffffffffffffffffffffffffffffffffffffffff160217905550565b600460009054906101000a900473ffffffffffffffffffffffffffffffffffffffff1681565b3373ffffffffffffffffffffffffffffffffffffffff1660008054906101000a900473ffffffffffffffffffffffffffffffffffffffff1673ffffffffffffffffffffffffffffffffffffffff16146113bc576040517f08c379a00000000000000000000000000000000000000000000000000000000081526004016113b390613e24565b60405180910390fd5b60026003541415611402576040517f08c379a00000000000000000000000000000000000000000000000000000000081526004016113f990613e84565b60405180910390fd5b6002600381905550600754421161144e576040517f08c379a000000000000000000000000000000000000000000000000000000000815260040161144590613ea4565b60405180910390fd5b6114566123a1565b6000611483600a54611475600c5460085461270690919063ffffffff16565b6127df90919063ffffffff16565b905060006114b0826114a2600954600b546127df90919063ffffffff16565b6127df90919063ffffffff16565b90506114c78160095461278190919063ffffffff16565b6009819055503373ffffffffffffffffffffffffffffffffffffffff166108fc829081150290604051600060405180830381858888f19350505050158015611513573d6000803e3d6000fd5b503373ffffffffffffffffffffffffffffffffffffffff167f575274ea138cb54fdd6aded4d581d6cfb06d6cda7b8d9c519804512d1d61b5a48260405161155a9190613ec4565b60405180910390a250506001600381905550565b60105481565b60055481565b3373ffffffffffffffffffffffffffffffffffffffff1660008054906101000a900473ffffffffffffffffffffffffffffffffffffffff1673ffffffffffffffffffffffffffffffffffffffff1614611608576040517f08c379a00000000000000000000000000000000000000000000000000000000081526004016115ff90613e24565b60405180910390fd5b80601460008473ffffffffffffffffffffffffffffffffffffffff1673ffffffffffffffffffffffffffffffffffffffff16815260200190815260200160002060006101000a81548160ff0219169083151502179055505050565b60008060009054906101000a900473ffffffffffffffffffffffffffffffffffffffff16905090565b60065481565b600a5481565b600260035414156116de576040517f08c379a00000000000000000000000000000000000000000000000000000000081526004016116d590613e84565b60405180910390fd5b6002600381905550600260009054906101000a900460ff161561170e5761170433610df5565b61170d57600080fd5b5b80156117a157601460003373ffffffffffffffffffffffffffffffffffffffff1673ffffffffffffffffffffffffffffffffffffffff16815260200190815260200160002060009054906101000a900460ff166117a0576040517f08c379a000000000000000000000000000000000000000000000000000000000815260040161179790613d44565b60405180910390fd5b5b6117ad82826000612829565b60016003819055505050565b60016020528060005260406000206000915054906101000a900460ff1681565b3373ffffffffffffffffffffffffffffffffffffffff1660008054906101000a900473ffffffffffffffffffffffffffffffffffffffff1673ffffffffffffffffffffffffffffffffffffffff1614611867576040517f08c379a000000000000000000000000000000000000000000000000000000000815260040161185e90613e24565b60405180910390fd5b600260035414156118ad576040517f08c379a00000000000000000000000000000000000000000000000000000000081526004016118a490613e84565b60405180910390fd5b60026003819055503373ffffffffffffffffffffffffffffffffffffffff166108fc479081150290604051600060405180830381858888f193505050501580156118fb573d6000803e3d6000fd5b506119f53033600460009054906101000a900473ffffffffffffffffffffffffffffffffffffffff1673ffffffffffffffffffffffffffffffffffffffff166370a08231306040518263ffffffff1660e01b815260040161195c9190613c2c565b60206040518083038186803b15801561197457600080fd5b505afa158015611988573d6000803e3d6000fd5b505050506040513d601f19601f820116820180604052508101906119ac919061395e565b600460009054906101000a900473ffffffffffffffffffffffffffffffffffffffff1673ffffffffffffffffffffffffffffffffffffffff16612f1c909392919063ffffffff16565b6001600381905550565b6000601260003373ffffffffffffffffffffffffffffffffffffffff1673ffffffffffffffffffffffffffffffffffffffff1681526020019081526020016000209050611a4a6123a1565b611ab2816040518060a001604052908160008201548152602001600182015481526020016002820160009054906101000a900460ff161515151581526020016002820160019054906101000a900460ff16151515158152602001600382015481525050612fa5565b50611acc8160010154600a546127df90919063ffffffff16565b600a81905550611aeb600c54826000015461270690919063ffffffff16565b8160010181905550611b0c8160010154600a5461278190919063ffffffff16565b600a8190555050565b60026003541415611b5b576040517f08c379a0000000000000000000000000000000000000000000000000000000008152600401611b5290613e84565b60405180910390fd5b60026003819055506000601260003373ffffffffffffffffffffffffffffffffffffffff1673ffffffffffffffffffffffffffffffffffffffff1681526020019081526020016000209050600081600001549050601360003373ffffffffffffffffffffffffffffffffffffffff1673ffffffffffffffffffffffffffffffffffffffff16815260200190815260200160002060009054906101000a900460ff1615611ebe5760006015836003015481548110611c1b57611c1a614354565b5b906000526020600020906003020190506040518060400160405280601181526020017f57697468647261776564205374616b6573000000000000000000000000000000815250816002019080519060200190611c78929190613562565b50611c816123a1565b6000611ceb846040518060a001604052908160008201548152602001600182015481526020016002820160009054906101000a900460ff161515151581526020016002820160019054906101000a900460ff16151515158152602001600382015481525050612fa5565b90506000601360003373ffffffffffffffffffffffffffffffffffffffff1673ffffffffffffffffffffffffffffffffffffffff16815260200190815260200160002060006101000a81548160ff021916908315150217905550611d6d601054611d5f600a8661270690919063ffffffff16565b61304e90919063ffffffff16565b925060008460000181905550611dc63384600460009054906101000a900473ffffffffffffffffffffffffffffffffffffffff1673ffffffffffffffffffffffffffffffffffffffff166130989092919063ffffffff16565b611ddf8460010154600a546127df90919063ffffffff16565b600a81905550611dfe600c54856000015461270690919063ffffffff16565b8460010181905550611e1f8460010154600a5461278190919063ffffffff16565b600a81905550611e61611e50600a611e426010548761270690919063ffffffff16565b61304e90919063ffffffff16565b6008546127df90919063ffffffff16565b6008819055503373ffffffffffffffffffffffffffffffffffffffff167f933735aa8de6d7547d0126171b2f31b9c34dd00f3ecd4be85a0ba047db4fafef8483604051611eaf929190613edf565b60405180910390a25050612070565b611ec66123a1565b6000611f30836040518060a001604052908160008201548152602001600182015481526020016002820160009054906101000a900460ff161515151581526020016002820160019054906101000a900460ff16151515158152602001600382015481525050612fa5565b905060008360000181905550611f893383600460009054906101000a900473ffffffffffffffffffffffffffffffffffffffff1673ffffffffffffffffffffffffffffffffffffffff166130989092919063ffffffff16565b611fa28360010154600a546127df90919063ffffffff16565b600a81905550611fc1600c54846000015461270690919063ffffffff16565b8360010181905550611fe28360010154600a5461278190919063ffffffff16565b600a81905550611ffd826008546127df90919063ffffffff16565b60088190555061201882600f546127df90919063ffffffff16565b600f819055503373ffffffffffffffffffffffffffffffffffffffff167f933735aa8de6d7547d0126171b2f31b9c34dd00f3ecd4be85a0ba047db4fafef8383604051612066929190613edf565b60405180910390a2505b50506001600381905550565b3373ffffffffffffffffffffffffffffffffffffffff1660008054906101000a900473ffffffffffffffffffffffffffffffffffffffff1673ffffffffffffffffffffffffffffffffffffffff161461210a576040517f08c379a000000000000000000000000000000000000000000000000000000000815260040161210190613e24565b60405180910390fd5b60005b81518110156121eb57600180600084848151811061212e5761212d614354565b5b602002602001015173ffffffffffffffffffffffffffffffffffffffff1673ffffffffffffffffffffffffffffffffffffffff16815260200190815260200160002060006101000a81548160ff0219169083151502179055507fa850ae9193f515cbae8d35e8925bd2be26627fc91bce650b8652ed254e9cab038282815181106121bb576121ba614354565b5b60200260200101516040516121d09190613c2c565b60405180910390a180806121e39061427e565b91505061210d565b5050565b6000601580549050905090565b600b5481565b60026003541415612248576040517f08c379a000000000000000000000000000000000000000000000000000000000815260040161223f90613e84565b60405180910390fd5b60026003819055506000601260003373ffffffffffffffffffffffffffffffffffffffff1673ffffffffffffffffffffffffffffffffffffffff1681526020019081526020016000209050600081600001541115612396576122f1338260000154600460009054906101000a900473ffffffffffffffffffffffffffffffffffffffff1673ffffffffffffffffffffffffffffffffffffffff166130989092919063ffffffff16565b3373ffffffffffffffffffffffffffffffffffffffff167f5fafa99d0643513820be26656b45130b01e1c03062e1266bf36f88cbd3bd9695826000015460405161233b9190613ec4565b60405180910390a261235c81600001546008546127df90919063ffffffff16565b60088190555061237b8160010154600a546127df90919063ffffffff16565b600a8190555060008160000181905550600081600101819055505b506001600381905550565b60065442116123af5761242d565b600060085414156123c6574260068190555061242d565b60006123d46006544261311e565b905060006123f26123e3613183565b8361270690919063ffffffff16565b905061241d61240c6008548361304e90919063ffffffff16565b600c5461278190919063ffffffff16565b600c819055504260068190555050505b565b60095481565b3373ffffffffffffffffffffffffffffffffffffffff1660008054906101000a900473ffffffffffffffffffffffffffffffffffffffff1673ffffffffffffffffffffffffffffffffffffffff16146124c3576040517f08c379a00000000000000000000000000000000000000000000000000000000081526004016124ba90613e24565b60405180910390fd5b600073ffffffffffffffffffffffffffffffffffffffff168173ffffffffffffffffffffffffffffffffffffffff161415612533576040517f08c379a000000000000000000000000000000000000000000000000000000000815260040161252a90613d64565b60405180910390fd5b8073ffffffffffffffffffffffffffffffffffffffff1660008054906101000a900473ffffffffffffffffffffffffffffffffffffffff1673ffffffffffffffffffffffffffffffffffffffff167f8be0079c531659141344cd1fd0a4f28419497f9722a3daafe3b4186f6b6457e060405160405180910390a3806000806101000a81548173ffffffffffffffffffffffffffffffffffffffff021916908373ffffffffffffffffffffffffffffffffffffffff16021790555050565b600080601260008473ffffffffffffffffffffffffffffffffffffffff1673ffffffffffffffffffffffffffffffffffffffff16815260200190815260200160002090506000600c5490506006544211801561264f5750600060085414155b156126b05760006126626006544261311e565b90506000612680612671613183565b8361270690919063ffffffff16565b90506126ab61269a6008548361304e90919063ffffffff16565b600c5461278190919063ffffffff16565b925050505b6126dd82600101546126cf83856000015461270690919063ffffffff16565b6127df90919063ffffffff16565b92505050919050565b60136020528060005260406000206000915054906101000a900460ff1681565b600080831415612719576000905061277b565b6000828461272791906140cd565b9050828482612736919061409c565b14612776576040517f08c379a000000000000000000000000000000000000000000000000000000000815260040161276d90613e04565b60405180910390fd5b809150505b92915050565b60008082846127909190614046565b9050838110156127d5576040517f08c379a00000000000000000000000000000000000000000000000000000000081526004016127cc90613da4565b60405180910390fd5b8091505092915050565b600061282183836040518060400160405280601e81526020017f536166654d6174683a207375627472616374696f6e206f766572666c6f77000081525061322e565b905092915050565b6000601260003373ffffffffffffffffffffffffffffffffffffffff1673ffffffffffffffffffffffffffffffffffffffff168152602001908152602001600020905083600460009054906101000a900473ffffffffffffffffffffffffffffffffffffffff1673ffffffffffffffffffffffffffffffffffffffff166370a08231336040518263ffffffff1660e01b81526004016128c89190613c2c565b60206040518083038186803b1580156128e057600080fd5b505afa1580156128f4573d6000803e3d6000fd5b505050506040513d601f19601f82011682018060405250810190612918919061395e565b1015612959576040517f08c379a000000000000000000000000000000000000000000000000000000000815260040161295090613dc4565b60405180910390fd5b82156129bb57600e5461297985836000015461278190919063ffffffff16565b10156129ba576040517f08c379a00000000000000000000000000000000000000000000000000000000081526004016129b190613d84565b60405180910390fd5b5b6129c36123a1565b60008160020160009054906101000a900460ff16612a135760018260020160006101000a81548160ff0219169083151502179055506001600d6000828254612a0b9190614046565b925050819055505b600082600001541115612a8b57612a88826040518060a001604052908160008201548152602001600182015481526020016002820160009054906101000a900460ff161515151581526020016002820160019054906101000a900460ff16151515158152602001600382015481525050612fa5565b90505b6000851115612cbd576000600460009054906101000a900473ffffffffffffffffffffffffffffffffffffffff1673ffffffffffffffffffffffffffffffffffffffff166370a08231306040518263ffffffff1660e01b8152600401612af19190613c2c565b60206040518083038186803b158015612b0957600080fd5b505afa158015612b1d573d6000803e3d6000fd5b505050506040513d601f19601f82011682018060405250810190612b41919061395e565b9050612b92333088600460009054906101000a900473ffffffffffffffffffffffffffffffffffffffff1673ffffffffffffffffffffffffffffffffffffffff16612f1c909392919063ffffffff16565b600081600460009054906101000a900473ffffffffffffffffffffffffffffffffffffffff1673ffffffffffffffffffffffffffffffffffffffff166370a08231306040518263ffffffff1660e01b8152600401612bf09190613c2c565b60206040518083038186803b158015612c0857600080fd5b505afa158015612c1c573d6000803e3d6000fd5b505050506040513d601f19601f82011682018060405250810190612c40919061395e565b612c4a9190614127565b90508096508515612c8057612c7d600a612c6f6010548a61270690919063ffffffff16565b61304e90919063ffffffff16565b96505b612c9787856000015461278190919063ffffffff16565b8460000181905550612cb48760085461278190919063ffffffff16565b60088190555050505b838015612d145750601360003373ffffffffffffffffffffffffffffffffffffffff1673ffffffffffffffffffffffffffffffffffffffff16815260200190815260200160002060009054906101000a900460ff16155b15612deb576001601360003373ffffffffffffffffffffffffffffffffffffffff1673ffffffffffffffffffffffffffffffffffffffff16815260200190815260200160002060006101000a81548160ff02191690831515021790555060006015836003015481548110612d8b57612d8a614354565b5b906000526020600020906003020190506040518060400160405280600681526020017f5374616b65640000000000000000000000000000000000000000000000000000815250816002019080519060200190612de8929190613562565b50505b83158015612e435750601360003373ffffffffffffffffffffffffffffffffffffffff1673ffffffffffffffffffffffffffffffffffffffff16815260200190815260200160002060009054906101000a900460ff16155b15612e6457612e5d85600f5461278190919063ffffffff16565b600f819055505b612e7d8260010154600a546127df90919063ffffffff16565b600a81905550612e9c600c54836000015461270690919063ffffffff16565b8260010181905550612ebd8260010154600a5461278190919063ffffffff16565b600a819055503373ffffffffffffffffffffffffffffffffffffffff167f6363655a3c7ace10eb7a32098436bd120788e6c01329bb863799624f11b575f3868386604051612f0d93929190613f08565b60405180910390a25050505050565b612f9f846323b872dd60e01b858585604051602401612f3d93929190613c47565b604051602081830303815290604052907bffffffffffffffffffffffffffffffffffffffffffffffffffffffff19166020820180517bffffffffffffffffffffffffffffffffffffffffffffffffffffffff8381831617835250505050613292565b50505050565b600080612fd78360200151612fc9600c54866000015161270690919063ffffffff16565b6127df90919063ffffffff16565b90506000811115613045573373ffffffffffffffffffffffffffffffffffffffff166108fc829081150290604051600060405180830381858888f19350505050158015613028573d6000803e3d6000fd5b5061303e8160095461278190919063ffffffff16565b6009819055505b80915050919050565b600061309083836040518060400160405280601a81526020017f536166654d6174683a206469766973696f6e206279207a65726f000000000000815250613359565b905092915050565b6131198363a9059cbb60e01b84846040516024016130b7929190613cc3565b604051602081830303815290604052907bffffffffffffffffffffffffffffffffffffffffffffffffffffffff19166020820180517bffffffffffffffffffffffffffffffffffffffffffffffffffffffff8381831617835250505050613292565b505050565b6000818310613130576000905061317d565b60075482116131535761314c83836127df90919063ffffffff16565b905061317d565b6007548310613165576000905061317d565b61317a836007546127df90919063ffffffff16565b90505b92915050565b6000600554421015613198576000905061322b565b62fe50296131b1600554426127df90919063ffffffff16565b10156131f3576000601990506131eb600f6131dd670de0b6b3a76400008461270690919063ffffffff16565b61304e90919063ffffffff16565b91505061322b565b6000600b9050613227600f613219670de0b6b3a76400008461270690919063ffffffff16565b61304e90919063ffffffff16565b9150505b90565b6000838311158290613276576040517f08c379a000000000000000000000000000000000000000000000000000000000815260040161326d9190613d22565b60405180910390fd5b50600083856132859190614127565b9050809150509392505050565b60006132f4826040518060400160405280602081526020017f5361666545524332303a206c6f772d6c6576656c2063616c6c206661696c65648152508573ffffffffffffffffffffffffffffffffffffffff166133bc9092919063ffffffff16565b9050600081511115613354578080602001905181019061331491906138bb565b613353576040517f08c379a000000000000000000000000000000000000000000000000000000000815260040161334a90613e64565b60405180910390fd5b5b505050565b600080831182906133a0576040517f08c379a00000000000000000000000000000000000000000000000000000000081526004016133979190613d22565b60405180910390fd5b50600083856133af919061409c565b9050809150509392505050565b60606133cb84846000856133d4565b90509392505050565b606082471015613419576040517f08c379a000000000000000000000000000000000000000000000000000000000815260040161341090613de4565b60405180910390fd5b613422856134e8565b613461576040517f08c379a000000000000000000000000000000000000000000000000000000000815260040161345890613e44565b60405180910390fd5b6000808673ffffffffffffffffffffffffffffffffffffffff16858760405161348a9190613c15565b60006040518083038185875af1925050503d80600081146134c7576040519150601f19603f3d011682016040523d82523d6000602084013e6134cc565b606091505b50915091506134dc8282866134fb565b92505050949350505050565b600080823b905060008111915050919050565b6060831561350b5782905061355b565b60008351111561351e5782518084602001fd5b816040517f08c379a00000000000000000000000000000000000000000000000000000000081526004016135529190613d22565b60405180910390fd5b9392505050565b82805461356e9061421b565b90600052602060002090601f01602090048101928261359057600085556135d7565b82601f106135a957805160ff19168380011785556135d7565b828001600101855582156135d7579182015b828111156135d65782518255916020019190600101906135bb565b5b5090506135e491906135e8565b5090565b5b808211156136015760008160009055506001016135e9565b5090565b600061361861361384613fb7565b613f92565b9050808382526020820190508285602086028201111561363b5761363a6143b7565b5b60005b8581101561366b578161365188826136b7565b84526020840193506020830192505060018101905061363e565b5050509392505050565b600061368861368384613fe3565b613f92565b9050828152602081018484840111156136a4576136a36143bc565b5b6136af8482856141d9565b509392505050565b6000813590506136c6816146d2565b92915050565b600082601f8301126136e1576136e06143b2565b5b81356136f1848260208601613605565b91505092915050565b600081359050613709816146e9565b92915050565b60008151905061371e816146e9565b92915050565b600082601f830112613739576137386143b2565b5b8135613749848260208601613675565b91505092915050565b60008135905061376181614700565b92915050565b60008151905061377681614700565b92915050565b600060208284031215613792576137916143c6565b5b60006137a0848285016136b7565b91505092915050565b600080604083850312156137c0576137bf6143c6565b5b60006137ce858286016136b7565b92505060206137df858286016136fa565b9150509250929050565b60008060408385031215613800576137ff6143c6565b5b600061380e858286016136b7565b925050602083013567ffffffffffffffff81111561382f5761382e6143c1565b5b61383b85828601613724565b9150509250929050565b60006020828403121561385b5761385a6143c6565b5b600082013567ffffffffffffffff811115613879576138786143c1565b5b613885848285016136cc565b91505092915050565b6000602082840312156138a4576138a36143c6565b5b60006138b2848285016136fa565b91505092915050565b6000602082840312156138d1576138d06143c6565b5b60006138df8482850161370f565b91505092915050565b6000602082840312156138fe576138fd6143c6565b5b600082013567ffffffffffffffff81111561391c5761391b6143c1565b5b61392884828501613724565b91505092915050565b600060208284031215613947576139466143c6565b5b600061395584828501613752565b91505092915050565b600060208284031215613974576139736143c6565b5b600061398284828501613767565b91505092915050565b600080604083850312156139a2576139a16143c6565b5b60006139b085828601613752565b92505060206139c1858286016136fa565b9150509250929050565b6139d48161415b565b82525050565b6139e38161416d565b82525050565b60006139f482614014565b6139fe818561402a565b9350613a0e8185602086016141e8565b80840191505092915050565b613a23816141a3565b82525050565b6000613a348261401f565b613a3e8185614035565b9350613a4e8185602086016141e8565b613a57816143cb565b840191505092915050565b6000613a6f604483614035565b9150613a7a826143dc565b606082019050919050565b6000613a92602683614035565b9150613a9d82614451565b604082019050919050565b6000613ab5602c83614035565b9150613ac0826144a0565b604082019050919050565b6000613ad8601b83614035565b9150613ae3826144ef565b602082019050919050565b6000613afb601a83614035565b9150613b0682614518565b602082019050919050565b6000613b1e602683614035565b9150613b2982614541565b604082019050919050565b6000613b41602183614035565b9150613b4c82614590565b604082019050919050565b6000613b64602083614035565b9150613b6f826145df565b602082019050919050565b6000613b87601d83614035565b9150613b9282614608565b602082019050919050565b6000613baa602a83614035565b9150613bb582614631565b604082019050919050565b6000613bcd601f83614035565b9150613bd882614680565b602082019050919050565b6000613bf0601283614035565b9150613bfb826146a9565b602082019050919050565b613c0f81614199565b82525050565b6000613c2182846139e9565b915081905092915050565b6000602082019050613c4160008301846139cb565b92915050565b6000606082019050613c5c60008301866139cb565b613c6960208301856139cb565b613c766040830184613c06565b949350505050565b6000606082019050613c9360008301866139cb565b8181036020830152613ca58185613a29565b90508181036040830152613cb98184613a29565b9050949350505050565b6000604082019050613cd860008301856139cb565b613ce56020830184613c06565b9392505050565b6000602082019050613d0160008301846139da565b92915050565b6000602082019050613d1c6000830184613a1a565b92915050565b60006020820190508181036000830152613d3c8184613a29565b905092915050565b60006020820190508181036000830152613d5d81613a62565b9050919050565b60006020820190508181036000830152613d7d81613a85565b9050919050565b60006020820190508181036000830152613d9d81613aa8565b9050919050565b60006020820190508181036000830152613dbd81613acb565b9050919050565b60006020820190508181036000830152613ddd81613aee565b9050919050565b60006020820190508181036000830152613dfd81613b11565b9050919050565b60006020820190508181036000830152613e1d81613b34565b9050919050565b60006020820190508181036000830152613e3d81613b57565b9050919050565b60006020820190508181036000830152613e5d81613b7a565b9050919050565b60006020820190508181036000830152613e7d81613b9d565b9050919050565b60006020820190508181036000830152613e9d81613bc0565b9050919050565b60006020820190508181036000830152613ebd81613be3565b9050919050565b6000602082019050613ed96000830184613c06565b92915050565b6000604082019050613ef46000830185613c06565b613f016020830184613c06565b9392505050565b6000606082019050613f1d6000830186613c06565b613f2a6020830185613c06565b613f3760408301846139da565b949350505050565b600060a082019050613f546000830188613c06565b613f616020830187613c06565b613f6e60408301866139da565b613f7b60608301856139da565b613f886080830184613c06565b9695505050505050565b6000613f9c613fad565b9050613fa8828261424d565b919050565b6000604051905090565b600067ffffffffffffffff821115613fd257613fd1614383565b5b602082029050602081019050919050565b600067ffffffffffffffff821115613ffe57613ffd614383565b5b614007826143cb565b9050602081019050919050565b600081519050919050565b600081519050919050565b600081905092915050565b600082825260208201905092915050565b600061405182614199565b915061405c83614199565b9250827fffffffffffffffffffffffffffffffffffffffffffffffffffffffffffffffff03821115614091576140906142c7565b5b828201905092915050565b60006140a782614199565b91506140b283614199565b9250826140c2576140c16142f6565b5b828204905092915050565b60006140d882614199565b91506140e383614199565b9250817fffffffffffffffffffffffffffffffffffffffffffffffffffffffffffffffff048311821515161561411c5761411b6142c7565b5b828202905092915050565b600061413282614199565b915061413d83614199565b9250828210156141505761414f6142c7565b5b828203905092915050565b600061416682614179565b9050919050565b60008115159050919050565b600073ffffffffffffffffffffffffffffffffffffffff82169050919050565b6000819050919050565b60006141ae826141b5565b9050919050565b60006141c0826141c7565b9050919050565b60006141d282614179565b9050919050565b82818337600083830152505050565b60005b838110156142065780820151818401526020810190506141eb565b83811115614215576000848401525b50505050565b6000600282049050600182168061423357607f821691505b6020821081141561424757614246614325565b5b50919050565b614256826143cb565b810181811067ffffffffffffffff8211171561427557614274614383565b5b80604052505050565b600061428982614199565b91507fffffffffffffffffffffffffffffffffffffffffffffffffffffffffffffffff8214156142bc576142bb6142c7565b5b600182019050919050565b7f4e487b7100000000000000000000000000000000000000000000000000000000600052601160045260246000fd5b7f4e487b7100000000000000000000000000000000000000000000000000000000600052601260045260246000fd5b7f4e487b7100000000000000000000000000000000000000000000000000000000600052602260045260246000fd5b7f4e487b7100000000000000000000000000000000000000000000000000000000600052603260045260246000fd5b7f4e487b7100000000000000000000000000000000000000000000000000000000600052604160045260246000fd5b600080fd5b600080fd5b600080fd5b600080fd5b600080fd5b6000601f19601f8301169050919050565b7f596f7520617265206e6f742061626c6520746f207374616b65206e6f772c207060008201527f6c65617365206d616b652061207265717565737420746f2062652076616c696460208201527f61746f7200000000000000000000000000000000000000000000000000000000604082015250565b7f4f776e61626c653a206e6577206f776e657220697320746865207a65726f206160008201527f6464726573730000000000000000000000000000000000000000000000000000602082015250565b7f4d696e696d756d20616d6f756e7420746f207374616b6520636f6e646974696f60008201527f6e206973206e6f74206d65740000000000000000000000000000000000000000602082015250565b7f536166654d6174683a206164646974696f6e206f766572666c6f770000000000600082015250565b7f596f75722062616c616e6365206973206e6f7420656e6f756768000000000000600082015250565b7f416464726573733a20696e73756666696369656e742062616c616e636520666f60008201527f722063616c6c0000000000000000000000000000000000000000000000000000602082015250565b7f536166654d6174683a206d756c7469706c69636174696f6e206f766572666c6f60008201527f7700000000000000000000000000000000000000000000000000000000000000602082015250565b7f4f776e61626c653a2063616c6c6572206973206e6f7420746865206f776e6572600082015250565b7f416464726573733a2063616c6c20746f206e6f6e2d636f6e7472616374000000600082015250565b7f5361666545524332303a204552433230206f7065726174696f6e20646964206e60008201527f6f74207375636365656400000000000000000000000000000000000000000000602082015250565b7f5265656e7472616e637947756172643a207265656e7472616e742063616c6c00600082015250565b7f416c6c6f772061667465722066696e6973680000000000000000000000000000600082015250565b6146db8161415b565b81146146e657600080fd5b50565b6146f28161416d565b81146146fd57600080fd5b50565b61470981614199565b811461471457600080fd5b5056fea2646970667358221220048115464f4af05b4ded17b25e9aa335f956923fb73e41186ffe63007c0ce83864736f6c63430008070033",
  "immutableReferences": {},
  "source": "// SPDX-License-Identifier: MIT\r\n//pragma solidity 0.6.12;\r\n\r\npragma solidity 0.8.7;\r\n/**\r\n * @dev Collection of functions related to the address type\r\n */\r\nlibrary Address {\r\n    /**\r\n     * @dev Returns true if `account` is a contract.\r\n     *\r\n     * [IMPORTANT]\r\n     * ====\r\n     * It is unsafe to assume that an address for which this function returns\r\n     * false is an externally-owned account (EOA) and not a contract.\r\n     *\r\n     * Among others, `isContract` will return false for the following\r\n     * types of addresses:\r\n     *\r\n     *  - an externally-owned account\r\n     *  - a contract in construction\r\n     *  - an address where a contract will be created\r\n     *  - an address where a contract lived, but was destroyed\r\n     * ====\r\n     */\r\n    function isContract(address account) internal view returns (bool) {\r\n        // This method relies on extcodesize, which returns 0 for contracts in\r\n        // construction, since the code is only stored at the end of the\r\n        // constructor execution.\r\n\r\n        uint256 size;\r\n        // solhint-disable-next-line no-inline-assembly\r\n        assembly { size := extcodesize(account) }\r\n        return size > 0;\r\n    }\r\n\r\n    /**\r\n     * @dev Replacement for Solidity's `transfer`: sends `amount` wei to\r\n     * `recipient`, forwarding all available gas and reverting on errors.\r\n     *\r\n     * https://eips.ethereum.org/EIPS/eip-1884[EIP1884] increases the gas cost\r\n     * of certain opcodes, possibly making contracts go over the 2300 gas limit\r\n     * imposed by `transfer`, making them unable to receive funds via\r\n     * `transfer`. {sendValue} removes this limitation.\r\n     *\r\n     * https://diligence.consensys.net/posts/2019/09/stop-using-soliditys-transfer-now/[Learn more].\r\n     *\r\n     * IMPORTANT: because control is transferred to `recipient`, care must be\r\n     * taken to not create reentrancy vulnerabilities. Consider using\r\n     * {ReentrancyGuard} or the\r\n     * https://solidity.readthedocs.io/en/v0.5.11/security-considerations.html#use-the-checks-effects-interactions-pattern[checks-effects-interactions pattern].\r\n     */\r\n    function sendValue(address payable recipient, uint256 amount) internal {\r\n        require(address(this).balance >= amount, \"Address: insufficient balance\");\r\n\r\n        // solhint-disable-next-line avoid-low-level-calls, avoid-call-value\r\n        (bool success, ) = recipient.call{ value: amount }(\"\");\r\n        require(success, \"Address: unable to send value, recipient may have reverted\");\r\n    }\r\n\r\n    /**\r\n     * @dev Performs a Solidity function call using a low level `call`. A\r\n     * plain`call` is an unsafe replacement for a function call: use this\r\n     * function instead.\r\n     *\r\n     * If `target` reverts with a revert reason, it is bubbled up by this\r\n     * function (like regular Solidity function calls).\r\n     *\r\n     * Returns the raw returned data. To convert to the expected return value,\r\n     * use https://solidity.readthedocs.io/en/latest/units-and-global-variables.html?highlight=abi.decode#abi-encoding-and-decoding-functions[`abi.decode`].\r\n     *\r\n     * Requirements:\r\n     *\r\n     * - `target` must be a contract.\r\n     * - calling `target` with `data` must not revert.\r\n     *\r\n     * _Available since v3.1._\r\n     */\r\n    function functionCall(address target, bytes memory data) internal returns (bytes memory) {\r\n      return functionCall(target, data, \"Address: low-level call failed\");\r\n    }\r\n\r\n    /**\r\n     * @dev Same as {xref-Address-functionCall-address-bytes-}[`functionCall`], but with\r\n     * `errorMessage` as a fallback revert reason when `target` reverts.\r\n     *\r\n     * _Available since v3.1._\r\n     */\r\n    function functionCall(address target, bytes memory data, string memory errorMessage) internal returns (bytes memory) {\r\n        return functionCallWithValue(target, data, 0, errorMessage);\r\n    }\r\n\r\n    /**\r\n     * @dev Same as {xref-Address-functionCall-address-bytes-}[`functionCall`],\r\n     * but also transferring `value` wei to `target`.\r\n     *\r\n     * Requirements:\r\n     *\r\n     * - the calling contract must have an ETH balance of at least `value`.\r\n     * - the called Solidity function must be `payable`.\r\n     *\r\n     * _Available since v3.1._\r\n     */\r\n    function functionCallWithValue(address target, bytes memory data, uint256 value) internal returns (bytes memory) {\r\n        return functionCallWithValue(target, data, value, \"Address: low-level call with value failed\");\r\n    }\r\n\r\n    /**\r\n     * @dev Same as {xref-Address-functionCallWithValue-address-bytes-uint256-}[`functionCallWithValue`], but\r\n     * with `errorMessage` as a fallback revert reason when `target` reverts.\r\n     *\r\n     * _Available since v3.1._\r\n     */\r\n    function functionCallWithValue(address target, bytes memory data, uint256 value, string memory errorMessage) internal returns (bytes memory) {\r\n        require(address(this).balance >= value, \"Address: insufficient balance for call\");\r\n        require(isContract(target), \"Address: call to non-contract\");\r\n\r\n        // solhint-disable-next-line avoid-low-level-calls\r\n        (bool success, bytes memory returndata) = target.call{ value: value }(data);\r\n        return _verifyCallResult(success, returndata, errorMessage);\r\n    }\r\n\r\n    /**\r\n     * @dev Same as {xref-Address-functionCall-address-bytes-}[`functionCall`],\r\n     * but performing a static call.\r\n     *\r\n     * _Available since v3.3._\r\n     */\r\n    function functionStaticCall(address target, bytes memory data) internal view returns (bytes memory) {\r\n        return functionStaticCall(target, data, \"Address: low-level static call failed\");\r\n    }\r\n\r\n    /**\r\n     * @dev Same as {xref-Address-functionCall-address-bytes-string-}[`functionCall`],\r\n     * but performing a static call.\r\n     *\r\n     * _Available since v3.3._\r\n     */\r\n    function functionStaticCall(address target, bytes memory data, string memory errorMessage) internal view returns (bytes memory) {\r\n        require(isContract(target), \"Address: static call to non-contract\");\r\n\r\n        // solhint-disable-next-line avoid-low-level-calls\r\n        (bool success, bytes memory returndata) = target.staticcall(data);\r\n        return _verifyCallResult(success, returndata, errorMessage);\r\n    }\r\n\r\n    function _verifyCallResult(bool success, bytes memory returndata, string memory errorMessage) private pure returns(bytes memory) {\r\n        if (success) {\r\n            return returndata;\r\n        } else {\r\n            // Look for revert reason and bubble it up if present\r\n            if (returndata.length > 0) {\r\n                // The easiest way to bubble the revert reason is using memory via assembly\r\n\r\n                // solhint-disable-next-line no-inline-assembly\r\n                assembly {\r\n                    let returndata_size := mload(returndata)\r\n                    revert(add(32, returndata), returndata_size)\r\n                }\r\n            } else {\r\n                revert(errorMessage);\r\n            }\r\n        }\r\n    }\r\n}\r\n\r\n/*\r\n * @dev Provides information about the current execution context, including the\r\n * sender of the transaction and its data. While these are generally available\r\n * via msg.sender and msg.data, they should not be accessed in such a direct\r\n * manner, since when dealing with GSN meta-transactions the account sending and\r\n * paying for execution may not be the actual sender (as far as an application\r\n * is concerned).\r\n *\r\n * This contract is only required for intermediate, library-like contracts.\r\n */\r\n\r\n/**\r\n * @dev Contract module which provides a basic access control mechanism, where\r\n * there is an account (an owner) that can be granted exclusive access to\r\n * specific functions.\r\n *\r\n * By default, the owner account will be the one that deploys the contract. This\r\n * can later be changed with {transferOwnership}.\r\n *\r\n * This module is used through inheritance. It will make available the modifier\r\n * `onlyOwner`, which can be applied to your functions to restrict their use to\r\n * the owner.\r\n */\r\nabstract contract Ownable  {\r\n    address private _owner;\r\n\r\n    event OwnershipTransferred(address indexed previousOwner, address indexed newOwner);\r\n\r\n    /**\r\n     * @dev Initializes the contract setting the deployer as the initial owner.\r\n     */\r\n    constructor () internal {\r\n        address msgSender = msg.sender;\r\n        _owner = msgSender;\r\n        emit OwnershipTransferred(address(0), msgSender);\r\n    }\r\n\r\n    /**\r\n     * @dev Returns the address of the current owner.\r\n     */\r\n    function owner() public view returns (address) {\r\n        return _owner;\r\n    }\r\n\r\n    /**\r\n     * @dev Throws if called by any account other than the owner.\r\n     */\r\n    modifier onlyOwner() {\r\n        require(_owner == msg.sender, \"Ownable: caller is not the owner\");\r\n        _;\r\n    }\r\n\r\n    /**\r\n     * @dev Leaves the contract without owner. It will not be possible to call\r\n     * `onlyOwner` functions anymore. Can only be called by the current owner.\r\n     *\r\n     * NOTE: Renouncing ownership will leave the contract without an owner,\r\n     * thereby removing any functionality that is only available to the owner.\r\n     */\r\n    function renounceOwnership() public virtual onlyOwner {\r\n        emit OwnershipTransferred(_owner, address(0));\r\n        _owner = address(0);\r\n    }\r\n\r\n    /**\r\n     * @dev Transfers ownership of the contract to a new account (`newOwner`).\r\n     * Can only be called by the current owner.\r\n     */\r\n    function transferOwnership(address newOwner) public virtual onlyOwner {\r\n        require(newOwner != address(0), \"Ownable: new owner is the zero address\");\r\n        emit OwnershipTransferred(_owner, newOwner);\r\n        _owner = newOwner;\r\n    }\r\n}\r\n\r\n\r\n/**\r\n * @dev Contract module that helps prevent reentrant calls to a function.\r\n *\r\n * Inheriting from `ReentrancyGuard` will make the {nonReentrant} modifier\r\n * available, which can be applied to functions to make sure there are no nested\r\n * (reentrant) calls to them.\r\n *\r\n * Note that because there is a single `nonReentrant` guard, functions marked as\r\n * `nonReentrant` may not call one another. This can be worked around by making\r\n * those functions `private`, and then adding `external` `nonReentrant` entry\r\n * points to them.\r\n *\r\n * TIP: If you would like to learn more about reentrancy and alternative ways\r\n * to protect against it, check out our blog post\r\n * https://blog.openzeppelin.com/reentrancy-after-istanbul/[Reentrancy After Istanbul].\r\n */\r\nabstract contract ReentrancyGuard {\r\n    // Booleans are more expensive than uint256 or any type that takes up a full\r\n    // word because each write operation emits an extra SLOAD to first read the\r\n    // slot's contents, replace the bits taken up by the boolean, and then write\r\n    // back. This is the compiler's defense against contract upgrades and\r\n    // pointer aliasing, and it cannot be disabled.\r\n\r\n    // The values being non-zero value makes deployment a bit more expensive,\r\n    // but in exchange the refund on every call to nonReentrant will be lower in\r\n    // amount. Since refunds are capped to a percentage of the total\r\n    // transaction's gas, it is best to keep them low in cases like this one, to\r\n    // increase the likelihood of the full refund coming into effect.\r\n    uint256 private constant _NOT_ENTERED = 1;\r\n    uint256 private constant _ENTERED = 2;\r\n\r\n    uint256 private _status;\r\n\r\n    constructor () internal {\r\n        _status = _NOT_ENTERED;\r\n    }\r\n\r\n    /**\r\n     * @dev Prevents a contract from calling itself, directly or indirectly.\r\n     * Calling a `nonReentrant` function from another `nonReentrant`\r\n     * function is not supported. It is possible to prevent this from happening\r\n     * by making the `nonReentrant` function external, and make it call a\r\n     * `private` function that does the actual work.\r\n     */\r\n    modifier nonReentrant() {\r\n        // On the first call to nonReentrant, _notEntered will be true\r\n        require(_status != _ENTERED, \"ReentrancyGuard: reentrant call\");\r\n\r\n        // Any calls to nonReentrant after this point will fail\r\n        _status = _ENTERED;\r\n\r\n        _;\r\n\r\n        // By storing the original value once again, a refund is triggered (see\r\n        // https://eips.ethereum.org/EIPS/eip-2200)\r\n        _status = _NOT_ENTERED;\r\n    }\r\n}\r\n\r\n\r\n/**\r\n * @dev Wrappers over Solidity's arithmetic operations with added overflow\r\n * checks.\r\n *\r\n * Arithmetic operations in Solidity wrap on overflow. This can easily result\r\n * in bugs, because programmers usually assume that an overflow raises an\r\n * error, which is the standard behavior in high level programming languages.\r\n * `SafeMath` restores this intuition by reverting the transaction when an\r\n * operation overflows.\r\n *\r\n * Using this library instead of the unchecked operations eliminates an entire\r\n * class of bugs, so it's recommended to use it always.\r\n */\r\nlibrary SafeMath {\r\n    /**\r\n     * @dev Returns the addition of two unsigned integers, reverting on\r\n     * overflow.\r\n     *\r\n     * Counterpart to Solidity's `+` operator.\r\n     *\r\n     * Requirements:\r\n     *\r\n     * - Addition cannot overflow.\r\n     */\r\n    function add(uint256 a, uint256 b) internal pure returns (uint256) {\r\n        uint256 c = a + b;\r\n        require(c >= a, \"SafeMath: addition overflow\");\r\n\r\n        return c;\r\n    }\r\n\r\n    /**\r\n     * @dev Returns the subtraction of two unsigned integers, reverting on\r\n     * overflow (when the result is negative).\r\n     *\r\n     * Counterpart to Solidity's `-` operator.\r\n     *\r\n     * Requirements:\r\n     *\r\n     * - Subtraction cannot overflow.\r\n     */\r\n    function sub(uint256 a, uint256 b) internal pure returns (uint256) {\r\n        return sub(a, b, \"SafeMath: subtraction overflow\");\r\n    }\r\n\r\n    /**\r\n     * @dev Returns the subtraction of two unsigned integers, reverting with custom message on\r\n     * overflow (when the result is negative).\r\n     *\r\n     * Counterpart to Solidity's `-` operator.\r\n     *\r\n     * Requirements:\r\n     *\r\n     * - Subtraction cannot overflow.\r\n     */\r\n    function sub(uint256 a, uint256 b, string memory errorMessage) internal pure returns (uint256) {\r\n        require(b <= a, errorMessage);\r\n        uint256 c = a - b;\r\n\r\n        return c;\r\n    }\r\n\r\n    /**\r\n     * @dev Returns the multiplication of two unsigned integers, reverting on\r\n     * overflow.\r\n     *\r\n     * Counterpart to Solidity's `*` operator.\r\n     *\r\n     * Requirements:\r\n     *\r\n     * - Multiplication cannot overflow.\r\n     */\r\n    function mul(uint256 a, uint256 b) internal pure returns (uint256) {\r\n        // Gas optimization: this is cheaper than requiring 'a' not being zero, but the\r\n        // benefit is lost if 'b' is also tested.\r\n        // See: https://github.com/OpenZeppelin/openzeppelin-contracts/pull/522\r\n        if (a == 0) {\r\n            return 0;\r\n        }\r\n\r\n        uint256 c = a * b;\r\n        require(c / a == b, \"SafeMath: multiplication overflow\");\r\n\r\n        return c;\r\n    }\r\n\r\n    /**\r\n     * @dev Returns the integer division of two unsigned integers. Reverts on\r\n     * division by zero. The result is rounded towards zero.\r\n     *\r\n     * Counterpart to Solidity's `/` operator. Note: this function uses a\r\n     * `revert` opcode (which leaves remaining gas untouched) while Solidity\r\n     * uses an invalid opcode to revert (consuming all remaining gas).\r\n     *\r\n     * Requirements:\r\n     *\r\n     * - The divisor cannot be zero.\r\n     */\r\n    function div(uint256 a, uint256 b) internal pure returns (uint256) {\r\n        return div(a, b, \"SafeMath: division by zero\");\r\n    }\r\n\r\n    /**\r\n     * @dev Returns the integer division of two unsigned integers. Reverts with custom message on\r\n     * division by zero. The result is rounded towards zero.\r\n     *\r\n     * Counterpart to Solidity's `/` operator. Note: this function uses a\r\n     * `revert` opcode (which leaves remaining gas untouched) while Solidity\r\n     * uses an invalid opcode to revert (consuming all remaining gas).\r\n     *\r\n     * Requirements:\r\n     *\r\n     * - The divisor cannot be zero.\r\n     */\r\n    function div(uint256 a, uint256 b, string memory errorMessage) internal pure returns (uint256) {\r\n        require(b > 0, errorMessage);\r\n        uint256 c = a / b;\r\n        // assert(a == b * c + a % b); // There is no case in which this doesn't hold\r\n\r\n        return c;\r\n    }\r\n\r\n    /**\r\n     * @dev Returns the remainder of dividing two unsigned integers. (unsigned integer modulo),\r\n     * Reverts when dividing by zero.\r\n     *\r\n     * Counterpart to Solidity's `%` operator. This function uses a `revert`\r\n     * opcode (which leaves remaining gas untouched) while Solidity uses an\r\n     * invalid opcode to revert (consuming all remaining gas).\r\n     *\r\n     * Requirements:\r\n     *\r\n     * - The divisor cannot be zero.\r\n     */\r\n    function mod(uint256 a, uint256 b) internal pure returns (uint256) {\r\n        return mod(a, b, \"SafeMath: modulo by zero\");\r\n    }\r\n\r\n    /**\r\n     * @dev Returns the remainder of dividing two unsigned integers. (unsigned integer modulo),\r\n     * Reverts with custom message when dividing by zero.\r\n     *\r\n     * Counterpart to Solidity's `%` operator. This function uses a `revert`\r\n     * opcode (which leaves remaining gas untouched) while Solidity uses an\r\n     * invalid opcode to revert (consuming all remaining gas).\r\n     *\r\n     * Requirements:\r\n     *\r\n     * - The divisor cannot be zero.\r\n     */\r\n    function mod(uint256 a, uint256 b, string memory errorMessage) internal pure returns (uint256) {\r\n        require(b != 0, errorMessage);\r\n        return a % b;\r\n    }\r\n}\r\n\r\n/**\r\n * @dev Interface of the ERC20 standard as defined in the EIP.\r\n */\r\ninterface IERC20 {\r\n    /**\r\n     * @dev Returns the amount of tokens in existence.\r\n     */\r\n    function totalSupply() external view returns (uint256);\r\n\r\n    /**\r\n     * @dev Returns the amount of tokens owned by `account`.\r\n     */\r\n    function balanceOf(address account) external view returns (uint256);\r\n\r\n    /**\r\n     * @dev Moves `amount` tokens from the caller's account to `recipient`.\r\n     *\r\n     * Returns a boolean value indicating whether the operation succeeded.\r\n     *\r\n     * Emits a {Transfer} event.\r\n     */\r\n    function transfer(address recipient, uint256 amount) external returns (bool);\r\n\r\n    /**\r\n     * @dev Returns the remaining number of tokens that `spender` will be\r\n     * allowed to spend on behalf of `owner` through {transferFrom}. This is\r\n     * zero by default.\r\n     *\r\n     * This value changes when {approve} or {transferFrom} are called.\r\n     */\r\n    function allowance(address owner, address spender) external view returns (uint256);\r\n\r\n    /**\r\n     * @dev Sets `amount` as the allowance of `spender` over the caller's tokens.\r\n     *\r\n     * Returns a boolean value indicating whether the operation succeeded.\r\n     *\r\n     * IMPORTANT: Beware that changing an allowance with this method brings the risk\r\n     * that someone may use both the old and the new allowance by unfortunate\r\n     * transaction ordering. One possible solution to mitigate this race\r\n     * condition is to first reduce the spender's allowance to 0 and set the\r\n     * desired value afterwards:\r\n     * https://github.com/ethereum/EIPs/issues/20#issuecomment-263524729\r\n     *\r\n     * Emits an {Approval} event.\r\n     */\r\n    function approve(address spender, uint256 amount) external returns (bool);\r\n\r\n    /**\r\n     * @dev Moves `amount` tokens from `sender` to `recipient` using the\r\n     * allowance mechanism. `amount` is then deducted from the caller's\r\n     * allowance.\r\n     *\r\n     * Returns a boolean value indicating whether the operation succeeded.\r\n     *\r\n     * Emits a {Transfer} event.\r\n     */\r\n    function transferFrom(address sender, address recipient, uint256 amount) external returns (bool);\r\n\r\n    /**\r\n     * @dev Emitted when `value` tokens are moved from one account (`from`) to\r\n     * another (`to`).\r\n     *\r\n     * Note that `value` may be zero.\r\n     */\r\n    event Transfer(address indexed from, address indexed to, uint256 value);\r\n\r\n    /**\r\n     * @dev Emitted when the allowance of a `spender` for an `owner` is set by\r\n     * a call to {approve}. `value` is the new allowance.\r\n     */\r\n    event Approval(address indexed owner, address indexed spender, uint256 value);\r\n}\r\n\r\n/**\r\n * @title SafeERC20\r\n * @dev Wrappers around ERC20 operations that throw on failure (when the token\r\n * contract returns false). Tokens that return no value (and instead revert or\r\n * throw on failure) are also supported, non-reverting calls are assumed to be\r\n * successful.\r\n * To use this library you can add a `using SafeERC20 for IERC20;` statement to your contract,\r\n * which allows you to call the safe operations as `token.safeTransfer(...)`, etc.\r\n */\r\nlibrary SafeERC20 {\r\n    using SafeMath for uint256;\r\n    using Address for address;\r\n\r\n    function safeTransfer(IERC20 token, address to, uint256 value) internal {\r\n        _callOptionalReturn(token, abi.encodeWithSelector(token.transfer.selector, to, value));\r\n    }\r\n\r\n    function safeTransferFrom(IERC20 token, address from, address to, uint256 value) internal {\r\n        _callOptionalReturn(token, abi.encodeWithSelector(token.transferFrom.selector, from, to, value));\r\n    }\r\n\r\n    /**\r\n     * @dev Deprecated. This function has issues similar to the ones found in\r\n     * {IERC20-approve}, and its usage is discouraged.\r\n     *\r\n     * Whenever possible, use {safeIncreaseAllowance} and\r\n     * {safeDecreaseAllowance} instead.\r\n     */\r\n    function safeApprove(IERC20 token, address spender, uint256 value) internal {\r\n        // safeApprove should only be called when setting an initial allowance,\r\n        // or when resetting it to zero. To increase and decrease it, use\r\n        // 'safeIncreaseAllowance' and 'safeDecreaseAllowance'\r\n        // solhint-disable-next-line max-line-length\r\n        require((value == 0) || (token.allowance(address(this), spender) == 0),\r\n            \"SafeERC20: approve from non-zero to non-zero allowance\"\r\n        );\r\n        _callOptionalReturn(token, abi.encodeWithSelector(token.approve.selector, spender, value));\r\n    }\r\n\r\n    function safeIncreaseAllowance(IERC20 token, address spender, uint256 value) internal {\r\n        uint256 newAllowance = token.allowance(address(this), spender).add(value);\r\n        _callOptionalReturn(token, abi.encodeWithSelector(token.approve.selector, spender, newAllowance));\r\n    }\r\n\r\n    function safeDecreaseAllowance(IERC20 token, address spender, uint256 value) internal {\r\n        uint256 newAllowance = token.allowance(address(this), spender).sub(value, \"SafeERC20: decreased allowance below zero\");\r\n        _callOptionalReturn(token, abi.encodeWithSelector(token.approve.selector, spender, newAllowance));\r\n    }\r\n\r\n    /**\r\n     * @dev Imitates a Solidity high-level call (i.e. a regular function call to a contract), relaxing the requirement\r\n     * on the return value: the return value is optional (but if data is returned, it must not be false).\r\n     * @param token The token targeted by the call.\r\n     * @param data The call data (encoded using abi.encode or one of its variants).\r\n     */\r\n    function _callOptionalReturn(IERC20 token, bytes memory data) private {\r\n        // We need to perform a low level call here, to bypass Solidity's return data size checking mechanism, since\r\n        // we're implementing it ourselves. We use {Address.functionCall} to perform this call, which verifies that\r\n        // the target address contains contract code and also asserts for success in the low-level call.\r\n\r\n        bytes memory returndata = address(token).functionCall(data, \"SafeERC20: low-level call failed\");\r\n        if (returndata.length > 0) { // Return data is optional\r\n            // solhint-disable-next-line max-line-length\r\n            require(abi.decode(returndata, (bool)), \"SafeERC20: ERC20 operation did not succeed\");\r\n        }\r\n    }\r\n}\r\n\r\ncontract Whitelist is Ownable {\r\n\r\n    mapping(address => bool) public whitelist;\r\n    //Gas optimization\r\n    // address[] public whitelistedAddresses;\r\n    bool public hasWhitelisting = false;\r\n\r\n    event AddedToWhitelist(address account);\r\n    event RemovedFromWhitelist(address account);\r\n\r\n    modifier onlyWhitelisted() {\r\n        if(hasWhitelisting){\r\n            require(isWhitelisted(msg.sender));\r\n        }\r\n        _;\r\n    }\r\n    \r\n    constructor (bool _hasWhitelisting) public{\r\n        hasWhitelisting = _hasWhitelisting;\r\n    }\r\n\r\n    function add(address[] memory _addresses) public onlyOwner {\r\n        for (uint i = 0; i < _addresses.length; i++) {\r\n            // require(whitelist[_addresses[i]] != true);\r\n            whitelist[_addresses[i]] = true;\r\n            // whitelistedAddresses.push(_addresses[i]);\r\n            emit AddedToWhitelist(_addresses[i]);\r\n        }\r\n    }\r\n\r\n    function remove(address[] memory _addresses) public onlyOwner {\r\n        for (uint i = 0; i < _addresses.length; i++) {\r\n            address uAddress = _addresses[i];\r\n            if(whitelist[uAddress]){\r\n                whitelist[uAddress] = false;\r\n                emit RemovedFromWhitelist(uAddress);\r\n            }\r\n        }\r\n    }\r\n\r\n    // function getWhitelistedAddresses() public view returns(address[] memory) {\r\n    //     return whitelistedAddresses;\r\n    // } \r\n\r\n    function isWhitelisted(address _address) public view returns(bool) {\r\n        return whitelist[_address];\r\n    }\r\n}\r\n\r\ncontract StakingPool is Ownable, Whitelist, ReentrancyGuard {\r\n    using SafeMath for uint256;\r\n    using SafeERC20 for IERC20;\r\n\r\n    IERC20 public stakingToken;    \r\n    uint256 public startTime;\r\n    uint256 public lastRewardTime;\r\n    uint256 public finishTime;\r\n    uint256 public allStakedAmount;\r\n    uint256 public allPaidReward;\r\n    uint256 public allRewardDebt;\r\n    uint256 public poolTokenAmount;\r\n    uint256 public accTokensPerShare; // Accumulated tokens per share\r\n    uint256 public participants; //Count of participants\r\n    uint256 public minAmountStake;\r\n    uint256 public sharedWalletStakedAmount;\r\n    uint256 public validatorBonusMultiplier=15;\r\n    // Info of each user.\r\n    struct UserInfo {\r\n        uint256 amount;     // How many tokens the user has staked.\r\n        uint256 rewardDebt; // Reward debt\r\n        bool registrated;\r\n        bool maderequest;\r\n        uint256 index;\r\n    }\r\n    address public sharedWallet;\r\n    mapping (address => UserInfo) public userInfo;\r\n    mapping (address => bool) public isValidator;\r\n    mapping (address => bool) public canStake;\r\n    \r\n\r\n    event PoolReplenished(uint256 amount);\r\n    event TokensStaked(address indexed user, uint256 amount, uint256 reward, bool reinvest);\r\n    event StakeWithdrawn(address indexed user, uint256 amount, uint256 reward);\r\n    event EmergencyWithdraw(address indexed user, uint256 amount);\r\n\r\n    event WithdrawPoolRemainder(address indexed user, uint256 amount);\r\n    event UpdateFinishTime(uint256 addedTokenAmount, uint256 newFinishTime);\r\n    event HasWhitelistingUpdated(bool newValue);\r\n\r\n    constructor(\r\n        IERC20 _stakingToken,\r\n        uint256 _startTime,\r\n        uint256 _finishTime,\r\n        uint256 _poolTokenAmount,\r\n        //bool _hasWhitelisting,\r\n        uint256 _minAmountStake\r\n        //address _sharedWallet\r\n    ) public Whitelist(false) {\r\n        stakingToken = _stakingToken;\r\n        \r\n        minAmountStake = _minAmountStake.mul(1e2);\r\n        startTime = block.timestamp.add(_startTime);        \r\n        lastRewardTime = startTime;\r\n        finishTime = block.timestamp.add(_finishTime);        \r\n        poolTokenAmount = _poolTokenAmount;\r\n        //sharedWallet = _sharedWallet;\r\n        require(startTime < finishTime, \"Start must be less than finish\");\r\n        require(startTime > block.timestamp, \"Start must be more than now\");\r\n\r\n    }\r\n    struct ValidatorInfo {\r\n        address user;     // How many tokens the user has staked.\r\n        string enodeAdress; // Reward debt\r\n        string status;\r\n    }\r\n    ValidatorInfo[] public validators;\r\n\r\n    function addRequest(string memory _enodeAdress) public {       \r\n        UserInfo storage user = userInfo[msg.sender];\r\n        require(!user.maderequest);\r\n        validators.push(ValidatorInfo(msg.sender,_enodeAdress,\"pending\"));\r\n        user.maderequest=true;\r\n        user.index=validators.length-1;\r\n    }\r\n    function defineValidator(address user, bool value) external onlyOwner{\r\n        canStake[user]=value;\r\n    }\r\n    function changeStatus(address _user, string memory _status) public onlyOwner {\r\n        UserInfo storage user = userInfo[_user];        \r\n        ValidatorInfo storage validator = validators[user.index];\r\n        validator.status = _status;\r\n    }\r\n    function getRequestsLength() public view returns(uint256) {\r\n        return validators.length;\r\n    }\r\n\r\n    // in wei\r\n    function rewardPerSec() internal view returns (uint256)\r\n    {\r\n        \r\n        if(block.timestamp<startTime){\r\n            return 0;\r\n        }else if(block.timestamp.sub(startTime)<1111111*15){\r\n            uint256 tempRPS = 25;\r\n            return tempRPS.mul(1e18).div(15);\r\n        }else{\r\n            uint256 tempRPS = 11;\r\n            return tempRPS.mul(1e18).div(15);\r\n        }\r\n    }\r\n\r\n    function getUserInfo(address user)\r\n        external\r\n        view\r\n        returns (uint256, uint256)\r\n    {\r\n        UserInfo memory info = userInfo[user];\r\n        return (info.amount, info.rewardDebt);\r\n    }\r\n    \r\n    function getMultiplier(uint256 _from, uint256 _to)\r\n        internal\r\n        view\r\n        returns (uint256)\r\n    {\r\n        if (_from >= _to) {\r\n          return 0;\r\n        }\r\n        if (_to <= finishTime) {\r\n            return _to.sub(_from);\r\n        } else if (_from >= finishTime) {\r\n            return 0;\r\n        } else {\r\n            return finishTime.sub(_from);\r\n        }\r\n    }\r\n\r\n    // View function to see pending Reward on frontend.\r\n    function pendingReward(address _user) external view returns (uint256) {\r\n        UserInfo storage user = userInfo[_user];\r\n        uint256 tempAccTokensPerShare = accTokensPerShare;\r\n        if (block.timestamp > lastRewardTime && allStakedAmount != 0) {\r\n            uint256 multiplier = getMultiplier(lastRewardTime, block.timestamp);\r\n            uint256 reward = multiplier.mul(rewardPerSec());\r\n            tempAccTokensPerShare = accTokensPerShare.add(\r\n                reward.div(allStakedAmount)\r\n            );\r\n        }\r\n        return user.amount.mul(tempAccTokensPerShare).sub(user.rewardDebt);\r\n    }\r\n\r\n    // Update reward variables of the given pool to be up-to-date.\r\n    function updatePool() public {\r\n        if (block.timestamp <= lastRewardTime) {\r\n            return;\r\n        }\r\n        if (allStakedAmount == 0) {\r\n            lastRewardTime = block.timestamp;\r\n            return;\r\n        }\r\n\r\n        uint256 multiplier = getMultiplier(lastRewardTime, block.timestamp);\r\n        uint256 reward = multiplier.mul(rewardPerSec());\r\n        accTokensPerShare = accTokensPerShare.add(\r\n            reward.div(allStakedAmount)\r\n        );\r\n        lastRewardTime = block.timestamp;\r\n    }\r\n\r\n    function stakeTokens(uint256 _amountToStake, bool validator) external nonReentrant onlyWhitelisted{\r\n        if(validator){\r\n            require(canStake[msg.sender],\"You are not able to stake now, please make a request to be validator\");\r\n        }\r\n        innerStakeTokens(_amountToStake, validator, false);\r\n    }\r\n\r\n    function innerStakeTokens(uint256 _amountToStake, bool validator, bool reinvest) private{\r\n        UserInfo storage user = userInfo[msg.sender];\r\n        require(stakingToken.balanceOf(msg.sender)>=_amountToStake, \"Your balance is not enough\");\r\n        if(validator){\r\n            require(user.amount.add(_amountToStake)>=minAmountStake, \"Minimum amount to stake condition is not met\");\r\n        }\r\n        updatePool();\r\n        uint256 pending = 0;        \r\n\r\n        if(!user.registrated){\r\n            user.registrated = true;\r\n            participants +=1;\r\n        }\r\n        if (user.amount > 0) {\r\n            pending = transferPendingReward(user);            \r\n        }\r\n        if (_amountToStake > 0) {\r\n            uint256 balanceBefore = stakingToken.balanceOf(address(this));\r\n            stakingToken.safeTransferFrom(msg.sender, address(this), _amountToStake);\r\n            uint256 received = stakingToken.balanceOf(address(this)) - balanceBefore;\r\n            _amountToStake = received;\r\n            if(validator){\r\n                _amountToStake = _amountToStake.mul(validatorBonusMultiplier).div(10);\r\n            }\r\n            user.amount = user.amount.add(_amountToStake);\r\n            allStakedAmount = allStakedAmount.add(_amountToStake);\r\n        }\r\n        if(validator && !isValidator[msg.sender]){\r\n            isValidator[msg.sender] = true;\r\n            ValidatorInfo storage _validator = validators[user.index];\r\n            _validator.status = \"Staked\";\r\n        }\r\n        if(!validator && !isValidator[msg.sender]){\r\n            sharedWalletStakedAmount = sharedWalletStakedAmount.add(_amountToStake);\r\n        }\r\n        \r\n        allRewardDebt = allRewardDebt.sub(user.rewardDebt);\r\n        user.rewardDebt = user.amount.mul(accTokensPerShare);\r\n        allRewardDebt = allRewardDebt.add(user.rewardDebt);\r\n        emit TokensStaked(msg.sender, _amountToStake, pending, reinvest);\r\n    }\r\n\r\n    // Leave the pool. Claim back your tokens.\r\n    // Unclocks the staked + gained tokens and burns pool shares\r\n    function withdrawStake() external nonReentrant {        \r\n        UserInfo storage user = userInfo[msg.sender];\r\n        uint256 _amount = user.amount;\r\n        if(isValidator[msg.sender]){            \r\n            ValidatorInfo storage validator = validators[user.index];\r\n            validator.status = \"Withdrawed Stakes\";\r\n            updatePool();\r\n            uint256 pending = transferPendingReward(user);\r\n            isValidator[msg.sender]=false;\r\n            _amount = _amount.mul(10).div(validatorBonusMultiplier);\r\n            user.amount = 0;\r\n            stakingToken.safeTransfer(msg.sender, _amount);\r\n            \r\n            allRewardDebt = allRewardDebt.sub(user.rewardDebt);\r\n            user.rewardDebt = user.amount.mul(accTokensPerShare);\r\n            allRewardDebt = allRewardDebt.add(user.rewardDebt);\r\n            allStakedAmount = allStakedAmount.sub(_amount.mul(validatorBonusMultiplier).div(10));\r\n            emit StakeWithdrawn(msg.sender, _amount, pending);\r\n        }else{\r\n            updatePool();\r\n            uint256 pending = transferPendingReward(user);            \r\n            user.amount = 0;\r\n            stakingToken.safeTransfer(msg.sender, _amount);            \r\n            allRewardDebt = allRewardDebt.sub(user.rewardDebt);\r\n            user.rewardDebt = user.amount.mul(accTokensPerShare);\r\n            allRewardDebt = allRewardDebt.add(user.rewardDebt);\r\n            allStakedAmount = allStakedAmount.sub(_amount);\r\n            sharedWalletStakedAmount = sharedWalletStakedAmount.sub(_amount);\r\n            emit StakeWithdrawn(msg.sender, _amount, pending);\r\n        }     \r\n        \r\n        \r\n    }\r\n\r\n    function transferPendingReward(UserInfo memory user) private returns (uint256) {\r\n        uint256 pending = user.amount.mul(accTokensPerShare).sub(user.rewardDebt);        \r\n\r\n        if (pending > 0) {            \r\n            //rewardToken.safeTransfer(msg.sender, pending);\r\n            payable(msg.sender).transfer(pending);\r\n            allPaidReward = allPaidReward.add(pending);\r\n        }\r\n\r\n        return pending;\r\n    }\r\n    function transferPendingRewardP() public{\r\n        UserInfo storage user = userInfo[msg.sender];\r\n        updatePool();\r\n        transferPendingReward(user);\r\n        allRewardDebt = allRewardDebt.sub(user.rewardDebt);\r\n        user.rewardDebt = user.amount.mul(accTokensPerShare);\r\n        allRewardDebt = allRewardDebt.add(user.rewardDebt);\r\n    }\r\n    function transferEthertoPool() public payable {\r\n                \r\n    }\r\n\r\n    // Withdraw without caring about rewards. EMERGENCY ONLY.\r\n    function emergencyWithdraw() external nonReentrant{\r\n        UserInfo storage user = userInfo[msg.sender];\r\n        if(user.amount > 0) {\r\n            stakingToken.safeTransfer(msg.sender, user.amount);\r\n            emit EmergencyWithdraw(msg.sender, user.amount);\r\n\r\n            allStakedAmount = allStakedAmount.sub(user.amount);\r\n            allRewardDebt = allRewardDebt.sub(user.rewardDebt);\r\n            user.amount = 0;\r\n            user.rewardDebt = 0;\r\n        }\r\n    }\r\n\r\n    function emergencyWithdrawPoolRemainder() external onlyOwner nonReentrant{\r\n        payable(msg.sender).transfer(address(this).balance);\r\n        stakingToken.safeTransferFrom(address(this), msg.sender,  stakingToken.balanceOf(address(this)));\r\n    }\r\n    function withdrawPoolRemainder() external onlyOwner nonReentrant{\r\n        require(block.timestamp > finishTime, \"Allow after finish\");\r\n        updatePool();\r\n        uint256 pending = allStakedAmount.mul(accTokensPerShare).sub(allRewardDebt);\r\n        uint256 returnAmount = poolTokenAmount.sub(allPaidReward).sub(pending);\r\n        allPaidReward = allPaidReward.add(returnAmount);\r\n\r\n        //rewardToken.safeTransfer(msg.sender, returnAmount);\r\n        payable(msg.sender).transfer(returnAmount);\r\n        emit WithdrawPoolRemainder(msg.sender, returnAmount);\r\n    }\r\n\r\n    \r\n    /*\r\n    function extendDuration(uint256 _addTokenAmount) external onlyOwner nonReentrant{\r\n        require(now < finishTime, \"Pool was finished\");\r\n        rewardToken.safeTransferFrom(msg.sender, address(this), _addTokenAmount);     \r\n        poolTokenAmount = poolTokenAmount.add(_addTokenAmount);\r\n        finishTime = finishTime.add(_addTokenAmount.div(rewardPerSec()));\r\n\r\n        emit UpdateFinishTime(_addTokenAmount, finishTime);\r\n    }*/\r\n\r\n    function setHasWhitelisting(bool value) external onlyOwner{\r\n        hasWhitelisting = value;\r\n        emit HasWhitelistingUpdated(hasWhitelisting);\r\n    }   \r\n}",
  "sourcePath": "D:\\Folders\\staking\\contracts\\staking.sol",
  "compiler": {
    "name": "solc",
    "version": "0.8.7+commit.e28d00a7.Emscripten.clang"
  },
  "schemaVersion": "3.4.3",
  "updatedAt": "2022-02-17T20:48:09.640Z",
  "devdoc": {
    "kind": "dev",
    "methods": {
      "owner()": {
        "details": "Returns the address of the current owner."
      },
      "renounceOwnership()": {
        "details": "Leaves the contract without owner. It will not be possible to call `onlyOwner` functions anymore. Can only be called by the current owner. NOTE: Renouncing ownership will leave the contract without an owner, thereby removing any functionality that is only available to the owner."
      },
      "transferOwnership(address)": {
        "details": "Transfers ownership of the contract to a new account (`newOwner`). Can only be called by the current owner."
      }
    },
    "version": 1
  },
  "userdoc": {
    "kind": "user",
    "methods": {},
    "version": 1
  }
}